{
  "address": "0x7f01e95F9313153Cca8F0Dff2Ced6607884D9F84",
  "abi": [
    {
      "inputs": [],
      "name": "_dao_ids",
      "outputs": [
        {
          "internalType": "uint256",
          "name": "",
          "type": "uint256"
        }
      ],
      "stateMutability": "view",
      "type": "function"
    },
    {
      "inputs": [
        {
          "internalType": "uint256",
          "name": "",
          "type": "uint256"
        }
      ],
      "name": "_dao_uris",
      "outputs": [
        {
          "internalType": "string",
          "name": "dao_wallet",
          "type": "string"
        },
        {
          "internalType": "string",
          "name": "dao_uri",
          "type": "string"
        },
        {
          "internalType": "string",
          "name": "finished",
          "type": "string"
        }
      ],
      "stateMutability": "view",
      "type": "function"
    },
    {
      "inputs": [
        {
          "internalType": "uint256",
          "name": "",
          "type": "uint256"
        }
      ],
      "name": "_donated",
      "outputs": [
        {
          "internalType": "uint256",
          "name": "",
          "type": "uint256"
        }
      ],
      "stateMutability": "view",
      "type": "function"
    },
    {
      "inputs": [
        {
          "internalType": "uint256",
          "name": "",
          "type": "uint256"
        }
      ],
      "name": "_donations",
      "outputs": [
        {
          "internalType": "string",
          "name": "ideas_id",
          "type": "string"
        },
        {
          "internalType": "uint256",
          "name": "userid",
          "type": "uint256"
        },
        {
          "internalType": "uint256",
          "name": "donation",
          "type": "uint256"
        }
      ],
      "stateMutability": "view",
      "type": "function"
    },
    {
      "inputs": [],
      "name": "_donations_ids",
      "outputs": [
        {
          "internalType": "uint256",
          "name": "",
          "type": "uint256"
        }
      ],
      "stateMutability": "view",
      "type": "function"
    },
    {
      "inputs": [],
      "name": "_feed_ids",
      "outputs": [
        {
          "internalType": "uint256",
          "name": "",
          "type": "uint256"
        }
      ],
      "stateMutability": "view",
      "type": "function"
    },
    {
      "inputs": [
        {
          "internalType": "uint256",
          "name": "",
          "type": "uint256"
        }
      ],
      "name": "_feeds",
      "outputs": [
        {
          "internalType": "uint256",
          "name": "feed_id",
          "type": "uint256"
        },
        {
          "internalType": "uint256",
          "name": "date",
          "type": "uint256"
        },
        {
          "internalType": "string",
          "name": "Type",
          "type": "string"
        },
        {
          "internalType": "string",
          "name": "data",
          "type": "string"
        }
      ],
      "stateMutability": "view",
      "type": "function"
    },
    {
      "inputs": [],
      "name": "_goal_ids",
      "outputs": [
        {
          "internalType": "uint256",
          "name": "",
          "type": "uint256"
        }
      ],
      "stateMutability": "view",
      "type": "function"
    },
    {
      "inputs": [
        {
          "internalType": "uint256",
          "name": "",
          "type": "uint256"
        }
      ],
      "name": "_goal_uris",
      "outputs": [
        {
          "internalType": "string",
          "name": "dao_id",
          "type": "string"
        },
        {
          "internalType": "string",
          "name": "goal_uri",
          "type": "string"
        }
      ],
      "stateMutability": "view",
      "type": "function"
    },
    {
      "inputs": [],
      "name": "_ideas_ids",
      "outputs": [
        {
          "internalType": "uint256",
          "name": "",
          "type": "uint256"
        }
      ],
      "stateMutability": "view",
      "type": "function"
    },
    {
      "inputs": [
        {
          "internalType": "uint256",
          "name": "",
          "type": "uint256"
        }
      ],
      "name": "_ideas_uris",
      "outputs": [
        {
          "internalType": "string",
          "name": "goal_id",
          "type": "string"
        },
        {
          "internalType": "string",
          "name": "ideas_uri",
          "type": "string"
        },
        {
          "internalType": "uint256",
          "name": "donation",
          "type": "uint256"
        }
      ],
      "stateMutability": "view",
      "type": "function"
    },
    {
      "inputs": [],
      "name": "_ideas_vote_ids",
      "outputs": [
        {
          "internalType": "uint256",
          "name": "",
          "type": "uint256"
        }
      ],
      "stateMutability": "view",
      "type": "function"
    },
    {
      "inputs": [],
      "name": "_join_ids",
      "outputs": [
        {
          "internalType": "uint256",
          "name": "",
          "type": "uint256"
        }
      ],
      "stateMutability": "view",
      "type": "function"
    },
    {
      "inputs": [
        {
          "internalType": "uint256",
          "name": "",
          "type": "uint256"
        }
      ],
      "name": "_joined_person",
      "outputs": [
        {
          "internalType": "uint256",
          "name": "daoid",
          "type": "uint256"
        },
        {
          "internalType": "uint256",
          "name": "user_id",
          "type": "uint256"
        },
        {
          "internalType": "string",
          "name": "joined_date",
          "type": "string"
        }
      ],
      "stateMutability": "view",
      "type": "function"
    },
    {
      "inputs": [],
      "name": "_message_ids",
      "outputs": [
        {
          "internalType": "uint256",
          "name": "",
          "type": "uint256"
        }
      ],
      "stateMutability": "view",
      "type": "function"
    },
    {
      "inputs": [],
      "name": "_message_read_ids",
      "outputs": [
        {
          "internalType": "uint256",
          "name": "",
          "type": "uint256"
        }
      ],
      "stateMutability": "view",
      "type": "function"
    },
    {
      "inputs": [],
      "name": "_reply_ids",
      "outputs": [
        {
          "internalType": "uint256",
          "name": "",
          "type": "uint256"
        }
      ],
      "stateMutability": "view",
      "type": "function"
    },
    {
      "inputs": [],
      "name": "_smart_contract_ids",
      "outputs": [
        {
          "internalType": "uint256",
          "name": "",
          "type": "uint256"
        }
      ],
      "stateMutability": "view",
      "type": "function"
    },
    {
      "inputs": [
        {
          "internalType": "uint256",
          "name": "",
          "type": "uint256"
        }
      ],
      "name": "_smart_contracts_uris",
      "outputs": [
        {
          "internalType": "uint256",
          "name": "smart_contract_id",
          "type": "uint256"
        },
        {
          "internalType": "uint256",
          "name": "ideas_id",
          "type": "uint256"
        },
        {
          "internalType": "string",
          "name": "smart_contract_uri",
          "type": "string"
        }
      ],
      "stateMutability": "view",
      "type": "function"
    },
    {
      "inputs": [
        {
          "internalType": "uint256",
          "name": "",
          "type": "uint256"
        }
      ],
      "name": "_template_uris",
      "outputs": [
        {
          "internalType": "string",
          "name": "",
          "type": "string"
        }
      ],
      "stateMutability": "view",
      "type": "function"
    },
    {
      "inputs": [
        {
          "internalType": "uint256",
          "name": "",
          "type": "uint256"
        }
      ],
      "name": "_user_badges",
      "outputs": [
        {
          "internalType": "uint256",
          "name": "user_id",
          "type": "uint256"
        },
        {
          "internalType": "bool",
          "name": "dao",
          "type": "bool"
        },
        {
          "internalType": "bool",
          "name": "joined",
          "type": "bool"
        },
        {
          "internalType": "bool",
          "name": "goal",
          "type": "bool"
        },
        {
          "internalType": "bool",
          "name": "ideas",
          "type": "bool"
        },
        {
          "internalType": "bool",
          "name": "vote",
          "type": "bool"
        },
        {
          "internalType": "bool",
          "name": "donation",
          "type": "bool"
        },
        {
          "internalType": "bool",
          "name": "comment",
          "type": "bool"
        },
        {
          "internalType": "bool",
          "name": "reply",
          "type": "bool"
        }
      ],
      "stateMutability": "view",
      "type": "function"
    },
    {
      "inputs": [
        {
          "internalType": "string",
          "name": "feed_text",
          "type": "string"
        },
        {
          "internalType": "string",
          "name": "_type",
          "type": "string"
        }
      ],
      "name": "add_Feed",
      "outputs": [],
      "stateMutability": "nonpayable",
      "type": "function"
    },
    {
      "inputs": [
        {
          "internalType": "string",
          "name": "_ideas_id",
          "type": "string"
        },
        {
          "internalType": "uint256",
          "name": "_doantion",
          "type": "uint256"
        },
        {
          "internalType": "uint256",
          "name": "_userid",
          "type": "uint256"
        },
        {
          "internalType": "string",
          "name": "_feed1",
          "type": "string"
        },
        {
          "internalType": "string",
          "name": "_feed2",
          "type": "string"
        }
      ],
      "name": "add_donation",
      "outputs": [],
      "stateMutability": "nonpayable",
      "type": "function"
    },
    {
      "inputs": [
        {
          "internalType": "uint256",
          "name": "",
          "type": "uint256"
        }
      ],
      "name": "all_goal_ideas_votes",
      "outputs": [
        {
          "internalType": "string",
          "name": "goal_id",
          "type": "string"
        },
        {
          "internalType": "string",
          "name": "ideas_id",
          "type": "string"
        },
        {
          "internalType": "uint256",
          "name": "user_id",
          "type": "uint256"
        }
      ],
      "stateMutability": "view",
      "type": "function"
    },
    {
      "inputs": [
        {
          "internalType": "uint256",
          "name": "",
          "type": "uint256"
        }
      ],
      "name": "all_messages",
      "outputs": [
        {
          "internalType": "uint256",
          "name": "message_id",
          "type": "uint256"
        },
        {
          "internalType": "uint256",
          "name": "ideas_id",
          "type": "uint256"
        },
        {
          "internalType": "string",
          "name": "message",
          "type": "string"
        },
        {
          "internalType": "string",
          "name": "sender",
          "type": "string"
        }
      ],
      "stateMutability": "view",
      "type": "function"
    },
    {
      "inputs": [
        {
          "internalType": "uint256",
          "name": "",
          "type": "uint256"
        }
      ],
      "name": "all_read_messages",
      "outputs": [
        {
          "internalType": "uint256",
          "name": "message_id",
          "type": "uint256"
        },
        {
          "internalType": "uint256",
          "name": "ideas_id",
          "type": "uint256"
        },
        {
          "internalType": "uint256",
          "name": "user_id",
          "type": "uint256"
        },
        {
          "internalType": "string",
          "name": "msg_type",
          "type": "string"
        }
      ],
      "stateMutability": "view",
      "type": "function"
    },
    {
      "inputs": [
        {
          "internalType": "uint256",
          "name": "",
          "type": "uint256"
        }
      ],
      "name": "all_replies",
      "outputs": [
        {
          "internalType": "uint256",
          "name": "reply_id",
          "type": "uint256"
        },
        {
          "internalType": "uint256",
          "name": "message_id",
          "type": "uint256"
        },
        {
          "internalType": "uint256",
          "name": "ideas_id",
          "type": "uint256"
        },
        {
          "internalType": "string",
          "name": "message",
          "type": "string"
        }
      ],
      "stateMutability": "view",
      "type": "function"
    },
    {
      "inputs": [
        {
          "internalType": "string",
          "name": "_dao_wallet",
          "type": "string"
        },
        {
          "internalType": "string",
          "name": "_dao_uri",
          "type": "string"
        },
        {
          "internalType": "string",
          "name": "_template",
          "type": "string"
        },
        {
          "internalType": "uint256",
          "name": "user_id",
          "type": "uint256"
        }
      ],
      "name": "create_dao",
      "outputs": [
        {
          "internalType": "uint256",
          "name": "",
          "type": "uint256"
        }
      ],
      "stateMutability": "nonpayable",
      "type": "function"
    },
    {
      "inputs": [
        {
          "internalType": "string",
          "name": "_goal_uri",
          "type": "string"
        },
        {
          "internalType": "string",
          "name": "_dao_id",
          "type": "string"
        },
        {
          "internalType": "uint256",
          "name": "_user_id",
          "type": "uint256"
        },
        {
          "internalType": "string",
          "name": "_feed",
          "type": "string"
        }
      ],
      "name": "create_goal",
      "outputs": [
        {
          "internalType": "uint256",
          "name": "",
          "type": "uint256"
        }
      ],
      "stateMutability": "nonpayable",
      "type": "function"
    },
    {
      "inputs": [
        {
          "internalType": "string",
          "name": "_goal_id",
          "type": "string"
        },
        {
          "internalType": "string",
          "name": "_ideas_id",
          "type": "string"
        },
        {
          "internalType": "uint256",
          "name": "_user_id",
          "type": "uint256"
        },
        {
          "internalType": "string",
          "name": "_feed",
          "type": "string"
        },
        {
          "internalType": "bool",
          "name": "feed_add",
          "type": "bool"
        }
      ],
      "name": "create_goal_ideas_vote",
      "outputs": [
        {
          "internalType": "uint256",
          "name": "",
          "type": "uint256"
        }
      ],
      "stateMutability": "nonpayable",
      "type": "function"
    },
    {
      "inputs": [
        {
          "internalType": "string",
          "name": "_ideas_uri",
          "type": "string"
        },
        {
          "internalType": "string",
          "name": "_goal_id",
          "type": "string"
        },
        {
          "internalType": "string[]",
          "name": "_smart_contracts",
          "type": "string[]"
        },
        {
          "internalType": "uint256",
          "name": "_user_id",
          "type": "uint256"
        },
        {
          "internalType": "string",
          "name": "_feed",
          "type": "string"
        }
      ],
      "name": "create_ideas",
      "outputs": [
        {
          "internalType": "uint256",
          "name": "",
          "type": "uint256"
        }
      ],
      "stateMutability": "nonpayable",
      "type": "function"
    },
    {
      "inputs": [
        {
          "internalType": "uint256",
          "name": "_dao_id",
          "type": "uint256"
        }
      ],
      "name": "dao_uri",
      "outputs": [
        {
          "internalType": "string",
          "name": "",
          "type": "string"
        }
      ],
      "stateMutability": "view",
      "type": "function"
    },
    {
      "inputs": [
        {
          "internalType": "uint256",
          "name": "ideas_id",
          "type": "uint256"
        }
      ],
      "name": "getMsgIDs",
      "outputs": [
        {
          "internalType": "uint256[]",
          "name": "",
          "type": "uint256[]"
        }
      ],
      "stateMutability": "view",
      "type": "function"
    },
    {
      "inputs": [
        {
          "internalType": "uint256",
          "name": "_message_id",
          "type": "uint256"
        },
        {
          "internalType": "string",
          "name": "msg_type",
          "type": "string"
        }
      ],
      "name": "getReadMsg",
      "outputs": [
        {
          "internalType": "bool",
          "name": "",
          "type": "bool"
        }
      ],
      "stateMutability": "view",
      "type": "function"
    },
    {
      "inputs": [
        {
          "internalType": "uint256",
          "name": "message_id",
          "type": "uint256"
        }
      ],
      "name": "getReplyIDs",
      "outputs": [
        {
          "internalType": "uint256[]",
          "name": "",
          "type": "uint256[]"
        }
      ],
      "stateMutability": "view",
      "type": "function"
    },
    {
      "inputs": [],
      "name": "get_all_daos",
      "outputs": [
        {
          "internalType": "string[]",
          "name": "",
          "type": "string[]"
        }
      ],
      "stateMutability": "view",
      "type": "function"
    },
    {
      "inputs": [],
      "name": "get_all_goals",
      "outputs": [
        {
          "internalType": "string[]",
          "name": "",
          "type": "string[]"
        }
      ],
      "stateMutability": "view",
      "type": "function"
    },
    {
      "inputs": [
        {
          "internalType": "string",
          "name": "_dao_id",
          "type": "string"
        }
      ],
      "name": "get_all_goals_by_dao_id",
      "outputs": [
        {
          "internalType": "string[]",
          "name": "",
          "type": "string[]"
        }
      ],
      "stateMutability": "view",
      "type": "function"
    },
    {
      "inputs": [],
      "name": "get_all_ideas",
      "outputs": [
        {
          "internalType": "string[]",
          "name": "",
          "type": "string[]"
        }
      ],
      "stateMutability": "view",
      "type": "function"
    },
    {
      "inputs": [
        {
          "internalType": "string",
          "name": "_goal_id",
          "type": "string"
        }
      ],
      "name": "get_all_ideas_by_goal_id",
      "outputs": [
        {
          "internalType": "string[]",
          "name": "",
          "type": "string[]"
        }
      ],
      "stateMutability": "view",
      "type": "function"
    },
    {
      "inputs": [
        {
          "internalType": "string",
          "name": "_goal_uri",
          "type": "string"
        }
      ],
      "name": "get_goal_id_by_goal_uri",
      "outputs": [
        {
          "internalType": "uint256",
          "name": "",
          "type": "uint256"
        }
      ],
      "stateMutability": "view",
      "type": "function"
    },
    {
      "inputs": [
        {
          "internalType": "string",
          "name": "_ideas_uri",
          "type": "string"
        }
      ],
      "name": "get_goal_id_from_ideas_uri",
      "outputs": [
        {
          "internalType": "string",
          "name": "",
          "type": "string"
        }
      ],
      "stateMutability": "view",
      "type": "function"
    },
    {
      "inputs": [
        {
          "internalType": "string",
          "name": "_ideas_uri",
          "type": "string"
        }
      ],
      "name": "get_ideas_id_by_ideas_uri",
      "outputs": [
        {
          "internalType": "uint256",
          "name": "",
          "type": "uint256"
        }
      ],
      "stateMutability": "view",
      "type": "function"
    },
    {
      "inputs": [
        {
          "internalType": "uint256",
          "name": "dao_id",
          "type": "uint256"
        },
        {
          "internalType": "uint256",
          "name": "person",
          "type": "uint256"
        }
      ],
      "name": "get_person_joinedID",
      "outputs": [
        {
          "internalType": "uint256",
          "name": "",
          "type": "uint256"
        }
      ],
      "stateMutability": "view",
      "type": "function"
    },
    {
      "inputs": [
        {
          "internalType": "uint256",
          "name": "_goal_id",
          "type": "uint256"
        }
      ],
      "name": "goal_uri",
      "outputs": [
        {
          "internalType": "string",
          "name": "",
          "type": "string"
        }
      ],
      "stateMutability": "view",
      "type": "function"
    },
    {
      "inputs": [
        {
          "internalType": "uint256",
          "name": "_ideas_id",
          "type": "uint256"
        }
      ],
      "name": "ideas_uri",
      "outputs": [
        {
          "internalType": "string",
          "name": "",
          "type": "string"
        }
      ],
      "stateMutability": "view",
      "type": "function"
    },
    {
      "inputs": [
        {
          "internalType": "uint256",
          "name": "dao_id",
          "type": "uint256"
        },
        {
          "internalType": "uint256",
          "name": "person",
          "type": "uint256"
        }
      ],
      "name": "is_person_joined",
      "outputs": [
        {
          "internalType": "bool",
          "name": "",
          "type": "bool"
        }
      ],
      "stateMutability": "view",
      "type": "function"
    },
    {
      "inputs": [
        {
          "internalType": "uint256",
          "name": "dao_id",
          "type": "uint256"
        },
        {
          "internalType": "uint256",
          "name": "person",
          "type": "uint256"
        },
        {
          "internalType": "string",
          "name": "joined_date",
          "type": "string"
        },
        {
          "internalType": "string",
          "name": "_feed",
          "type": "string"
        }
      ],
      "name": "join_community",
      "outputs": [],
      "stateMutability": "nonpayable",
      "type": "function"
    },
    {
      "inputs": [
        {
          "internalType": "uint256",
          "name": "join_id",
          "type": "uint256"
        }
      ],
      "name": "leave_community",
      "outputs": [],
      "stateMutability": "nonpayable",
      "type": "function"
    },
    {
      "inputs": [],
      "name": "reset_all",
      "outputs": [],
      "stateMutability": "nonpayable",
      "type": "function"
    },
    {
      "inputs": [
        {
          "internalType": "uint256",
          "name": "_ideas_id",
          "type": "uint256"
        },
        {
          "internalType": "string",
          "name": "_message",
          "type": "string"
        },
        {
          "internalType": "string",
          "name": "_sender",
          "type": "string"
        },
        {
          "internalType": "uint256",
          "name": "_user_id",
          "type": "uint256"
        }
      ],
      "name": "sendMsg",
      "outputs": [
        {
          "internalType": "uint256",
          "name": "",
          "type": "uint256"
        }
      ],
      "stateMutability": "nonpayable",
      "type": "function"
    },
    {
      "inputs": [
        {
          "internalType": "uint256",
          "name": "_message_id",
          "type": "uint256"
        },
        {
          "internalType": "uint256",
          "name": "_ideas_id",
          "type": "uint256"
        },
        {
          "internalType": "uint256",
          "name": "_wallet",
          "type": "uint256"
        },
        {
          "internalType": "string",
          "name": "msg_type",
          "type": "string"
        }
      ],
      "name": "sendReadMsg",
      "outputs": [
        {
          "internalType": "uint256",
          "name": "",
          "type": "uint256"
        }
      ],
      "stateMutability": "nonpayable",
      "type": "function"
    },
    {
      "inputs": [
        {
          "internalType": "uint256",
          "name": "_message_id",
          "type": "uint256"
        },
        {
          "internalType": "string",
          "name": "_reply",
          "type": "string"
        },
        {
          "internalType": "uint256",
          "name": "ideas_id",
          "type": "uint256"
        },
        {
          "internalType": "uint256",
          "name": "_userid",
          "type": "uint256"
        }
      ],
      "name": "sendReply",
      "outputs": [
        {
          "internalType": "uint256",
          "name": "",
          "type": "uint256"
        }
      ],
      "stateMutability": "nonpayable",
      "type": "function"
    },
    {
      "inputs": [
        {
          "internalType": "uint256",
          "name": "_dao_id",
          "type": "uint256"
        },
        {
          "internalType": "string",
          "name": "_dao_wallet",
          "type": "string"
        },
        {
          "internalType": "string",
          "name": "_dao_uri",
          "type": "string"
        }
      ],
      "name": "set_dao",
      "outputs": [],
      "stateMutability": "nonpayable",
      "type": "function"
    },
    {
      "inputs": [
        {
          "internalType": "uint256",
          "name": "_goal_id",
          "type": "uint256"
        },
        {
          "internalType": "string",
          "name": "_goal_uri",
          "type": "string"
        }
      ],
      "name": "set_goal",
      "outputs": [],
      "stateMutability": "nonpayable",
      "type": "function"
    },
    {
      "inputs": [
        {
          "internalType": "uint256",
          "name": "_ideas_id",
          "type": "uint256"
        },
        {
          "internalType": "string",
          "name": "_ideas_uri",
          "type": "string"
        }
      ],
      "name": "set_ideas",
      "outputs": [],
      "stateMutability": "nonpayable",
      "type": "function"
    },
    {
      "inputs": [
        {
          "internalType": "uint256",
          "name": "_dao_id",
          "type": "uint256"
        },
        {
          "internalType": "string",
          "name": "_template",
          "type": "string"
        }
      ],
      "name": "update_template",
      "outputs": [],
      "stateMutability": "nonpayable",
      "type": "function"
    }
  ],
  "transactionHash": "0xec08612f342dc9c35ddd087adf34c39a9901b6ecac79a530f6c27f0a4f30cd44",
  "args": [],
  "numDeployments": 1,
  "solcInputHash": "28f7267683d3b9779b038c8d30bd0ee2",
  "bytecode": "0x608060405234801561001057600080fd5b50614b37806100206000396000f3fe608060405234801561001057600080fd5b50600436106103835760003560e01c806387633eb2116101de578063b527d45e1161010f578063cace8d46116100ad578063dddb6f861161007c578063dddb6f8614610be7578063e32acc1a14610c17578063ec24580214610c47578063ff4a37ef14610c6557610383565b8063cace8d4614610b36578063cd23080914610b69578063d3791b2014610b99578063d9fc52db14610bb757610383565b8063c04e7430116100e9578063c04e743014610ac2578063c04fe97814610ade578063c29595c514610afc578063ca013f1714610b1857610383565b8063b527d45e14610a43578063b604efaa14610a76578063bda0033514610aa657610383565b806397ee76061161017c578063aa2bf5d311610156578063aa2bf5d3146109bb578063aa4cdf2a146109d9578063b16060a614610a09578063b39a38bd14610a1357610383565b806397ee760614610935578063a1ca917814610953578063a428a47f1461098357610383565b80638ac4110c116101b85780638ac4110c146108995780638d3d2595146108b75780639077007d146108e7578063934c5f001461090557610383565b806387633eb214610831578063881de8581461084d57806389e937841461086957610383565b806354a9fb18116102b85780637f2035d411610256578063812fae1f11610230578063812fae1f14610785578063826eeefe146107b5578063829a5d98146107d157806386ffa45b1461080157610383565b80637f2035d4146106f25780637fc543ec14610723578063803f5b9f1461075557610383565b80636ecda4ee116102925780636ecda4ee14610644578063787f19c7146106745780637a82b1d6146106a45780637bbd582d146106d457610383565b806354a9fb18146105c55780635cd844c9146105f85780635d907da11461061457610383565b806320959ed011610325578063330b8f26116102ff578063330b8f26146105105780633f87a2f414610542578063468d0c80146105755780634a797bd7146105a757610383565b806320959ed01461049057806327a568b9146104c057806329b56f60146104f257610383565b80631b592aeb116103615780631b592aeb146103f45780631ba44c4c146104125780631e9ac9f5146104445780631fd4d6641461047457610383565b80630377d44a146103885780631171b621146103b857806313bf4cea146103d6575b600080fd5b6103a2600480360381019061039d9190613770565b610c97565b6040516103af91906138fa565b60405180910390f35b6103c0610e21565b6040516103cd9190613935565b60405180910390f35b6103de610e27565b6040516103eb9190613935565b60405180910390f35b6103fc610e2d565b6040516104099190613935565b60405180910390f35b61042c6004803603810190610427919061397c565b610e33565b60405161043b939291906139f3565b60405180910390f35b61045e60048036038101906104599190613770565b610f6d565b60405161046b9190613935565b60405180910390f35b61048e60048036038101906104899190613a38565b610fde565b005b6104aa60048036038101906104a5919061397c565b611161565b6040516104b79190613935565b60405180910390f35b6104da60048036038101906104d5919061397c565b611179565b6040516104e993929190613b07565b60405180910390f35b6104fa61133b565b60405161050791906138fa565b60405180910390f35b61052a6004803603810190610525919061397c565b611476565b60405161053993929190613b53565b60405180910390f35b61055c6004803603810190610557919061397c565b611528565b60405161056c9493929190613b91565b60405180910390f35b61058f600480360381019061058a919061397c565b6115e0565b60405161059e939291906139f3565b60405180910390f35b6105af61171a565b6040516105bc9190613935565b60405180910390f35b6105df60048036038101906105da919061397c565b611720565b6040516105ef9493929190613bdd565b60405180910390f35b610612600480360381019061060d9190613c30565b611860565b005b61062e6004803603810190610629919061397c565b611949565b60405161063b9190613ccf565b60405180910390f35b61065e6004803603810190610659919061397c565b6119f1565b60405161066b9190613ccf565b60405180910390f35b61068e60048036038101906106899190613cf1565b611a91565b60405161069b9190613935565b60405180910390f35b6106be60048036038101906106b99190613d90565b611b62565b6040516106cb9190613deb565b60405180910390f35b6106dc611bdc565b6040516106e99190613935565b60405180910390f35b61070c6004803603810190610707919061397c565b611be2565b60405161071a929190613e06565b60405180910390f35b61073d6004803603810190610738919061397c565b611d16565b60405161074c93929190613e3d565b60405180910390f35b61076f600480360381019061076a919061397c565b611dc8565b60405161077c9190613f39565b60405180910390f35b61079f600480360381019061079a919061397c565b611eab565b6040516107ac9190613f39565b60405180910390f35b6107cf60048036038101906107ca919061397c565b611f8e565b005b6107eb60048036038101906107e69190613770565b611fff565b6040516107f891906138fa565b60405180910390f35b61081b60048036038101906108169190613f5b565b612189565b6040516108289190613935565b60405180910390f35b61084b60048036038101906108469190614016565b6122a9565b005b61086760048036038101906108629190614072565b6122ce565b005b610883600480360381019061087e9190614129565b61231b565b6040516108909190613935565b60405180910390f35b6108a1612421565b6040516108ae9190613935565b60405180910390f35b6108d160048036038101906108cc919061397c565b612427565b6040516108de9190613ccf565b60405180910390f35b6108ef6124cf565b6040516108fc9190613935565b60405180910390f35b61091f600480360381019061091a91906141f8565b6124d5565b60405161092c9190613935565b60405180910390f35b61093d612569565b60405161094a91906138fa565b60405180910390f35b61096d60048036038101906109689190613770565b6126a4565b60405161097a9190613935565b60405180910390f35b61099d6004803603810190610998919061397c565b612715565b6040516109b29998979695949392919061427b565b60405180910390f35b6109c36127cb565b6040516109d09190613935565b60405180910390f35b6109f360048036038101906109ee9190613770565b6127d1565b604051610a009190613ccf565b60405180910390f35b610a116128eb565b005b610a2d6004803603810190610a289190614308565b612bb5565b604051610a3a9190613935565b60405180910390f35b610a5d6004803603810190610a58919061397c565b612ca3565b604051610a6d9493929190613bdd565b60405180910390f35b610a906004803603810190610a8b9190613d90565b612de3565b604051610a9d9190613935565b60405180910390f35b610ac06004803603810190610abb91906143c3565b612e5d565b005b610adc6004803603810190610ad79190614016565b612ef4565b005b610ae6612f1c565b604051610af391906138fa565b60405180910390f35b610b166004803603810190610b119190614016565b613056565b005b610b2061307e565b604051610b2d9190613935565b60405180910390f35b610b506004803603810190610b4b919061397c565b613084565b604051610b609493929190613b91565b60405180910390f35b610b836004803603810190610b7e9190614016565b61313c565b604051610b909190613deb565b60405180910390f35b610ba16131cd565b604051610bae9190613935565b60405180910390f35b610bd16004803603810190610bcc919061443b565b6131d3565b604051610bde9190613935565b60405180910390f35b610c016004803603810190610bfc91906145a4565b613298565b604051610c0e9190613935565b60405180910390f35b610c316004803603810190610c2c919061397c565b6133f9565b604051610c3e9190613ccf565b60405180910390f35b610c4f6134a1565b604051610c5c9190613935565b60405180910390f35b610c7f6004803603810190610c7a919061397c565b6134a7565b604051610c8e93929190613b53565b60405180910390f35b6060600060025467ffffffffffffffff811115610cb757610cb6613645565b5b604051908082528060200260200182016040528015610cea57816020015b6060815260200190600190039081610cd55790505b509050600080600090505b600254811015610e16578480519060200120600e6000838152602001908152602001600020600001604051610d2a9190614792565b604051809103902003610e0357600e60008281526020019081526020016000206001018054610d58906146be565b80601f0160208091040260200160405190810160405280929190818152602001828054610d84906146be565b8015610dd15780601f10610da657610100808354040283529160200191610dd1565b820191906000526020600020905b815481529060010190602001808311610db457829003601f168201915b5050505050838381518110610de957610de86147a9565b5b60200260200101819052508180610dff90614807565b9250505b8080610e0e90614807565b915050610cf5565b508192505050919050565b60045481565b60025481565b60055481565b6014602052806000526040600020600091509050806000018054610e56906146be565b80601f0160208091040260200160405190810160405280929190818152602001828054610e82906146be565b8015610ecf5780601f10610ea457610100808354040283529160200191610ecf565b820191906000526020600020905b815481529060010190602001808311610eb257829003601f168201915b505050505090806001018054610ee4906146be565b80601f0160208091040260200160405190810160405280929190818152602001828054610f10906146be565b8015610f5d5780601f10610f3257610100808354040283529160200191610f5d565b820191906000526020600020905b815481529060010190602001808311610f4057829003601f168201915b5050505050908060020154905083565b600080600090505b600254811015610fd3578280519060200120600e6000838152602001908152602001600020600101604051610faa9190614792565b604051809103902003610fc05780915050610fd9565b8080610fcb90614807565b915050610f75565b50600090505b919050565b600015156018600085815260200190815260200160002060010160059054906101000a900460ff1615150361104d5761104c826040518060400160405280600581526020017f6261646765000000000000000000000000000000000000000000000000000000815250612e5d565b5b61108c816040518060400160405280600881526020017f646f6e6174696f6e000000000000000000000000000000000000000000000000815250612e5d565b60016018600085815260200190815260200160002060010160056101000a81548160ff021916908315150217905550836010600085815260200190815260200160002060008282546110de919061484f565b92505081905550604051806060016040528086815260200184815260200185815250601260006001548152602001908152602001600020600082015181600001908161112a9190614a2f565b5060208201518160010155604082015181600201559050506001600081548092919061115590614807565b91905055505050505050565b60106020528060005260406000206000915090505481565b600b60205280600052604060002060009150905080600001805461119c906146be565b80601f01602080910402602001604051908101604052809291908181526020018280546111c8906146be565b80156112155780601f106111ea57610100808354040283529160200191611215565b820191906000526020600020905b8154815290600101906020018083116111f857829003601f168201915b50505050509080600101805461122a906146be565b80601f0160208091040260200160405190810160405280929190818152602001828054611256906146be565b80156112a35780601f10611278576101008083540402835291602001916112a3565b820191906000526020600020905b81548152906001019060200180831161128657829003601f168201915b5050505050908060020180546112b8906146be565b80601f01602080910402602001604051908101604052809291908181526020018280546112e4906146be565b80156113315780601f1061130657610100808354040283529160200191611331565b820191906000526020600020905b81548152906001019060200180831161131457829003601f168201915b5050505050905083565b6060600060025467ffffffffffffffff81111561135b5761135a613645565b5b60405190808252806020026020018201604052801561138e57816020015b60608152602001906001900390816113795790505b50905060005b60025481101561146e57600e600082815260200190815260200160002060010180546113bf906146be565b80601f01602080910402602001604051908101604052809291908181526020018280546113eb906146be565b80156114385780601f1061140d57610100808354040283529160200191611438565b820191906000526020600020905b81548152906001019060200180831161141b57829003601f168201915b50505050508282815181106114505761144f6147a9565b5b6020026020010181905250808061146690614807565b915050611394565b508091505090565b600d6020528060005260406000206000915090508060000154908060010154908060020180546114a5906146be565b80601f01602080910402602001604051908101604052809291908181526020018280546114d1906146be565b801561151e5780601f106114f35761010080835404028352916020019161151e565b820191906000526020600020905b81548152906001019060200180831161150157829003601f168201915b5050505050905083565b601760205280600052604060002060009150905080600001549080600101549080600201549080600301805461155d906146be565b80601f0160208091040260200160405190810160405280929190818152602001828054611589906146be565b80156115d65780601f106115ab576101008083540402835291602001916115d6565b820191906000526020600020905b8154815290600101906020018083116115b957829003601f168201915b5050505050905084565b600f602052806000526040600020600091509050806000018054611603906146be565b80601f016020809104026020016040519081016040528092919081815260200182805461162f906146be565b801561167c5780601f106116515761010080835404028352916020019161167c565b820191906000526020600020905b81548152906001019060200180831161165f57829003601f168201915b505050505090806001018054611691906146be565b80601f01602080910402602001604051908101604052809291908181526020018280546116bd906146be565b801561170a5780601f106116df5761010080835404028352916020019161170a565b820191906000526020600020905b8154815290600101906020018083116116ed57829003601f168201915b5050505050908060020154905083565b60065481565b601160205280600052604060002060009150905080600001549080600101549080600201805461174f906146be565b80601f016020809104026020016040519081016040528092919081815260200182805461177b906146be565b80156117c85780601f1061179d576101008083540402835291602001916117c8565b820191906000526020600020905b8154815290600101906020018083116117ab57829003601f168201915b5050505050908060030180546117dd906146be565b80601f0160208091040260200160405190810160405280929190818152602001828054611809906146be565b80156118565780601f1061182b57610100808354040283529160200191611856565b820191906000526020600020905b81548152906001019060200180831161183957829003601f168201915b5050505050905084565b60016018600085815260200190815260200160002060010160016101000a81548160ff021916908315150217905550604051806060016040528085815260200184815260200183815250600d60006004548152602001908152602001600020600082015181600001556020820151816001015560408201518160020190816118e89190614a2f565b50905050600460008154809291906118ff90614807565b9190505550611943816040518060400160405280600481526020017f6a6f696e00000000000000000000000000000000000000000000000000000000815250612e5d565b50505050565b6060600b6000838152602001908152602001600020600101805461196c906146be565b80601f0160208091040260200160405190810160405280929190818152602001828054611998906146be565b80156119e55780601f106119ba576101008083540402835291602001916119e5565b820191906000526020600020905b8154815290600101906020018083116119c857829003601f168201915b50505050509050919050565b600c6020528060005260406000206000915090508054611a10906146be565b80601f0160208091040260200160405190810160405280929190818152602001828054611a3c906146be565b8015611a895780601f10611a5e57610100808354040283529160200191611a89565b820191906000526020600020905b815481529060010190602001808311611a6c57829003601f168201915b505050505081565b600060016018600084815260200190815260200160002060010160066101000a81548160ff021916908315150217905550604051806080016040528060075481526020018681526020018581526020018481525060156000600754815260200190815260200160002060008201518160000155602082015181600101556040820151816002019081611b239190614a2f565b506060820151816003019081611b399190614a2f565b5090505060076000815480929190611b5090614807565b91905055506007549050949350505050565b600080600090505b600454811015611bd05782600d600083815260200190815260200160002060010154148015611bae575083600d600083815260200190815260200160002060000154145b15611bbd576001915050611bd6565b8080611bc890614807565b915050611b6a565b50600090505b92915050565b60005481565b600e602052806000526040600020600091509050806000018054611c05906146be565b80601f0160208091040260200160405190810160405280929190818152602001828054611c31906146be565b8015611c7e5780601f10611c5357610100808354040283529160200191611c7e565b820191906000526020600020905b815481529060010190602001808311611c6157829003601f168201915b505050505090806001018054611c93906146be565b80601f0160208091040260200160405190810160405280929190818152602001828054611cbf906146be565b8015611d0c5780601f10611ce157610100808354040283529160200191611d0c565b820191906000526020600020905b815481529060010190602001808311611cef57829003601f168201915b5050505050905082565b6012602052806000526040600020600091509050806000018054611d39906146be565b80601f0160208091040260200160405190810160405280929190818152602001828054611d65906146be565b8015611db25780601f10611d8757610100808354040283529160200191611db2565b820191906000526020600020905b815481529060010190602001808311611d9557829003601f168201915b5050505050908060010154908060020154905083565b6060600060075467ffffffffffffffff811115611de857611de7613645565b5b604051908082528060200260200182016040528015611e165781602001602082028036833780820191505090505b509050600080600090505b600754811015611ea05784601560008381526020019081526020016000206001015403611e8d576015600082815260200190815260200160002060000154838381518110611e7257611e716147a9565b5b6020026020010181815250508180611e8990614807565b9250505b8080611e9890614807565b915050611e21565b508192505050919050565b6060600060095467ffffffffffffffff811115611ecb57611eca613645565b5b604051908082528060200260200182016040528015611ef95781602001602082028036833780820191505090505b509050600080600090505b600954811015611f835784601760008381526020019081526020016000206001015403611f70576017600082815260200190815260200160002060000154838381518110611f5557611f546147a9565b5b6020026020010181815250508180611f6c90614807565b9250505b8080611f7b90614807565b915050611f04565b508192505050919050565b604051806060016040528061270f815260200161270f815260200160405180602001604052806000815250815250600d600083815260200190815260200160002060008201518160000155602082015181600101556040820151816002019081611ff89190614a2f565b5090505050565b6060600060035467ffffffffffffffff81111561201f5761201e613645565b5b60405190808252806020026020018201604052801561205257816020015b606081526020019060019003908161203d5790505b509050600080600090505b60035481101561217e578480519060200120600f60008381526020019081526020016000206000016040516120929190614792565b60405180910390200361215d57600f600082815260200190815260200160002060010180546120c0906146be565b80601f01602080910402602001604051908101604052809291908181526020018280546120ec906146be565b80156121395780601f1061210e57610100808354040283529160200191612139565b820191906000526020600020905b81548152906001019060200180831161211c57829003601f168201915b5050505050838381518110612151576121506147a9565b5b60200260200101819052505b818061216890614807565b925050808061217690614807565b91505061205d565b508192505050919050565b600060405180606001604052808681526020018581526020016040518060400160405280600581526020017f46616c7365000000000000000000000000000000000000000000000000000000815250815250600b60008054815260200190815260200160002060008201518160000190816122049190614a2f565b50602082015181600101908161221a9190614a2f565b5060408201518160020190816122309190614a2f565b5090505082600c60008054815260200190815260200160002090816122559190614a2f565b5060016018600084815260200190815260200160002060010160006101000a81548160ff02191690831515021790555060008081548092919061229790614807565b91905055506000549050949350505050565b80600c600084815260200190815260200160002090816122c99190614a2f565b505050565b81600b600085815260200190815260200160002060000190816122f19190614a2f565b5080600b600085815260200190815260200160002060010190816123159190614a2f565b50505050565b600060016018600086815260200190815260200160002060010160046101000a81548160ff02191690831515021790555060405180606001604052808781526020018681526020018581525060146000600654815260200190815260200160002060008201518160000190816123919190614a2f565b5060208201518160010190816123a79190614a2f565b5060408201518160020155905050600660008154809291906123c890614807565b9190505550811561241357612412836040518060400160405280600481526020017f766f746500000000000000000000000000000000000000000000000000000000815250612e5d565b5b600654905095945050505050565b600a5481565b6060600f6000838152602001908152602001600020600101805461244a906146be565b80601f0160208091040260200160405190810160405280929190818152602001828054612476906146be565b80156124c35780601f10612498576101008083540402835291602001916124c3565b820191906000526020600020905b8154815290600101906020018083116124a657829003601f168201915b50505050509050919050565b60075481565b600060405180608001604052808681526020018581526020018481526020018381525060166000600854815260200190815260200160002060008201518160000155602082015181600101556040820151816002015560608201518160030190816125409190614a2f565b509050506008600081548092919061255790614807565b91905055506008549050949350505050565b6060600060035467ffffffffffffffff81111561258957612588613645565b5b6040519080825280602002602001820160405280156125bc57816020015b60608152602001906001900390816125a75790505b50905060005b60035481101561269c57600f600082815260200190815260200160002060010180546125ed906146be565b80601f0160208091040260200160405190810160405280929190818152602001828054612619906146be565b80156126665780601f1061263b57610100808354040283529160200191612666565b820191906000526020600020905b81548152906001019060200180831161264957829003601f168201915b505050505082828151811061267e5761267d6147a9565b5b6020026020010181905250808061269490614807565b9150506125c2565b508091505090565b600080600090505b60035481101561270a578280519060200120600f60008381526020019081526020016000206001016040516126e19190614792565b6040518091039020036126f75780915050612710565b808061270290614807565b9150506126ac565b50600090505b919050565b60186020528060005260406000206000915090508060000154908060010160009054906101000a900460ff16908060010160019054906101000a900460ff16908060010160029054906101000a900460ff16908060010160039054906101000a900460ff16908060010160049054906101000a900460ff16908060010160059054906101000a900460ff16908060010160069054906101000a900460ff16908060010160079054906101000a900460ff16905089565b60095481565b606060005b6003548110156128d2578280519060200120600f600083815260200190815260200160002060010160405161280b9190614792565b6040518091039020036128bf57600f60008281526020019081526020016000206000018054612839906146be565b80601f0160208091040260200160405190810160405280929190818152602001828054612865906146be565b80156128b25780601f10612887576101008083540402835291602001916128b2565b820191906000526020600020905b81548152906001019060200180831161289557829003601f168201915b50505050509150506128e6565b80806128ca90614807565b9150506127d6565b506040518060200160405280600081525090505b919050565b60005b60005481101561295157600b60008281526020019081526020016000206000808201600061291c91906135b9565b60018201600061292c91906135b9565b60028201600061293c91906135b9565b5050808061294990614807565b9150506128ee565b5060005b6002548110156129a857600e60008281526020019081526020016000206000808201600061298391906135b9565b60018201600061299391906135b9565b505080806129a090614807565b915050612955565b5060005b600354811015612a0757600f6000828152602001908152602001600020600080820160006129da91906135b9565b6001820160006129ea91906135b9565b6002820160009055505080806129ff90614807565b9150506129ac565b5060005b600254811015612a5e57601360008281526020019081526020016000206000808201600090556001820160009055600282016000612a4991906135b9565b50508080612a5690614807565b915050612a0b565b5060005b600754811015612ac557601560008281526020019081526020016000206000808201600090556001820160009055600282016000612aa091906135b9565b600382016000612ab091906135b9565b50508080612abd90614807565b915050612a62565b5060005b600954811015612b24576017600082815260200190815260200160002060008082016000905560018201600090556002820160009055600382016000612b0f91906135b9565b50508080612b1c90614807565b915050612ac9565b5060005b600654811015612b83576014600082815260200190815260200160002060008082016000612b5691906135b9565b600182016000612b6691906135b9565b600282016000905550508080612b7b90614807565b915050612b28565b506000808190555060006002819055506000600381905550600060078190555060006009819055506000600681905550565b6000604051806040016040528085815260200186815250600e600060025481526020019081526020016000206000820151816000019081612bf69190614a2f565b506020820151816001019081612c0c9190614a2f565b5090505060016018600085815260200190815260200160002060010160026101000a81548160ff02191690831515021790555060026000815480929190612c5290614807565b9190505550612c96826040518060400160405280600481526020017f676f616c00000000000000000000000000000000000000000000000000000000815250612e5d565b6002549050949350505050565b6015602052806000526040600020600091509050806000015490806001015490806002018054612cd2906146be565b80601f0160208091040260200160405190810160405280929190818152602001828054612cfe906146be565b8015612d4b5780601f10612d2057610100808354040283529160200191612d4b565b820191906000526020600020905b815481529060010190602001808311612d2e57829003601f168201915b505050505090806003018054612d60906146be565b80601f0160208091040260200160405190810160405280929190818152602001828054612d8c906146be565b8015612dd95780601f10612dae57610100808354040283529160200191612dd9565b820191906000526020600020905b815481529060010190602001808311612dbc57829003601f168201915b5050505050905084565b600080600090505b600454811015612e505782600d600083815260200190815260200160002060010154148015612e2f575083600d600083815260200190815260200160002060000154145b15612e3d5780915050612e57565b8080612e4890614807565b915050612deb565b5061270f90505b92915050565b6040518060800160405280600a5481526020014281526020018281526020018381525060116000600a54815260200190815260200160002060008201518160000155602082015181600101556040820151816002019081612ebe9190614a2f565b506060820151816003019081612ed49190614a2f565b50905050600a6000815480929190612eeb90614807565b91905055505050565b80600f60008481526020019081526020016000206001019081612f179190614a2f565b505050565b60606000805467ffffffffffffffff811115612f3b57612f3a613645565b5b604051908082528060200260200182016040528015612f6e57816020015b6060815260200190600190039081612f595790505b50905060005b60005481101561304e57600b60008281526020019081526020016000206001018054612f9f906146be565b80601f0160208091040260200160405190810160405280929190818152602001828054612fcb906146be565b80156130185780601f10612fed57610100808354040283529160200191613018565b820191906000526020600020905b815481529060010190602001808311612ffb57829003601f168201915b50505050508282815181106130305761302f6147a9565b5b6020026020010181905250808061304690614807565b915050612f74565b508091505090565b80600e600084815260200190815260200160002060010190816130799190614a2f565b505050565b60085481565b60166020528060005260406000206000915090508060000154908060010154908060020154908060030180546130b9906146be565b80601f01602080910402602001604051908101604052809291908181526020018280546130e5906146be565b80156131325780601f1061310757610100808354040283529160200191613132565b820191906000526020600020905b81548152906001019060200180831161311557829003601f168201915b5050505050905084565b6000806000905060005b6008548110156131c2578460166000838152602001908152602001600020600001541480156131a55750601660008281526020019081526020016000206003016040516131939190614792565b60405180910390208480519060200120145b156131af57600191505b80806131ba90614807565b915050613146565b508091505092915050565b60035481565b600060016018600084815260200190815260200160002060010160076101000a81548160ff0219169083151502179055506040518060800160405280600954815260200186815260200184815260200185815250601760006009548152602001908152602001600020600082015181600001556020820151816001015560408201518160020155606082015181600301908161326f9190614a2f565b509050506009600081548092919061328690614807565b91905055506009549050949350505050565b600060405180606001604052808681526020018781526020016000815250600f6000600354815260200190815260200160002060008201518160000190816132e09190614a2f565b5060208201518160010190816132f69190614a2f565b506040820151816002015590505060016018600085815260200190815260200160002060010160036101000a81548160ff0219169083151502179055506003600081548092919061334690614807565b919050555060005b84518110156133ab57613380600354600554878481518110613373576133726147a9565b5b6020026020010151613559565b6005600081548092919061339390614807565b919050555080806133a390614807565b91505061334e565b506133eb826040518060400160405280600481526020017f6964656100000000000000000000000000000000000000000000000000000000815250612e5d565b600354905095945050505050565b6060600e6000838152602001908152602001600020600101805461341c906146be565b80601f0160208091040260200160405190810160405280929190818152602001828054613448906146be565b80156134955780601f1061346a57610100808354040283529160200191613495565b820191906000526020600020905b81548152906001019060200180831161347857829003601f168201915b50505050509050919050565b60015481565b60136020528060005260406000206000915090508060000154908060010154908060020180546134d6906146be565b80601f0160208091040260200160405190810160405280929190818152602001828054613502906146be565b801561354f5780601f106135245761010080835404028352916020019161354f565b820191906000526020600020905b81548152906001019060200180831161353257829003601f168201915b5050505050905083565b60405180606001604052808481526020018381526020018281525060136000848152602001908152602001600020600082015181600001556020820151816001015560408201518160020190816135b09190614a2f565b50905050505050565b5080546135c5906146be565b6000825580601f106135d757506135f6565b601f0160209004906000526020600020908101906135f591906135f9565b5b50565b5b808211156136125760008160009055506001016135fa565b5090565b6000604051905090565b600080fd5b600080fd5b600080fd5b600080fd5b6000601f19601f8301169050919050565b7f4e487b7100000000000000000000000000000000000000000000000000000000600052604160045260246000fd5b61367d82613634565b810181811067ffffffffffffffff8211171561369c5761369b613645565b5b80604052505050565b60006136af613616565b90506136bb8282613674565b919050565b600067ffffffffffffffff8211156136db576136da613645565b5b6136e482613634565b9050602081019050919050565b82818337600083830152505050565b600061371361370e846136c0565b6136a5565b90508281526020810184848401111561372f5761372e61362f565b5b61373a8482856136f1565b509392505050565b600082601f8301126137575761375661362a565b5b8135613767848260208601613700565b91505092915050565b60006020828403121561378657613785613620565b5b600082013567ffffffffffffffff8111156137a4576137a3613625565b5b6137b084828501613742565b91505092915050565b600081519050919050565b600082825260208201905092915050565b6000819050602082019050919050565b600081519050919050565b600082825260208201905092915050565b60005b8381101561381f578082015181840152602081019050613804565b60008484015250505050565b6000613836826137e5565b61384081856137f0565b9350613850818560208601613801565b61385981613634565b840191505092915050565b6000613870838361382b565b905092915050565b6000602082019050919050565b6000613890826137b9565b61389a81856137c4565b9350836020820285016138ac856137d5565b8060005b858110156138e857848403895281516138c98582613864565b94506138d483613878565b925060208a019950506001810190506138b0565b50829750879550505050505092915050565b600060208201905081810360008301526139148184613885565b905092915050565b6000819050919050565b61392f8161391c565b82525050565b600060208201905061394a6000830184613926565b92915050565b6139598161391c565b811461396457600080fd5b50565b60008135905061397681613950565b92915050565b60006020828403121561399257613991613620565b5b60006139a084828501613967565b91505092915050565b600082825260208201905092915050565b60006139c5826137e5565b6139cf81856139a9565b93506139df818560208601613801565b6139e881613634565b840191505092915050565b60006060820190508181036000830152613a0d81866139ba565b90508181036020830152613a2181856139ba565b9050613a306040830184613926565b949350505050565b600080600080600060a08688031215613a5457613a53613620565b5b600086013567ffffffffffffffff811115613a7257613a71613625565b5b613a7e88828901613742565b9550506020613a8f88828901613967565b9450506040613aa088828901613967565b935050606086013567ffffffffffffffff811115613ac157613ac0613625565b5b613acd88828901613742565b925050608086013567ffffffffffffffff811115613aee57613aed613625565b5b613afa88828901613742565b9150509295509295909350565b60006060820190508181036000830152613b2181866139ba565b90508181036020830152613b3581856139ba565b90508181036040830152613b4981846139ba565b9050949350505050565b6000606082019050613b686000830186613926565b613b756020830185613926565b8181036040830152613b8781846139ba565b9050949350505050565b6000608082019050613ba66000830187613926565b613bb36020830186613926565b613bc06040830185613926565b8181036060830152613bd281846139ba565b905095945050505050565b6000608082019050613bf26000830187613926565b613bff6020830186613926565b8181036040830152613c1181856139ba565b90508181036060830152613c2581846139ba565b905095945050505050565b60008060008060808587031215613c4a57613c49613620565b5b6000613c5887828801613967565b9450506020613c6987828801613967565b935050604085013567ffffffffffffffff811115613c8a57613c89613625565b5b613c9687828801613742565b925050606085013567ffffffffffffffff811115613cb757613cb6613625565b5b613cc387828801613742565b91505092959194509250565b60006020820190508181036000830152613ce981846139ba565b905092915050565b60008060008060808587031215613d0b57613d0a613620565b5b6000613d1987828801613967565b945050602085013567ffffffffffffffff811115613d3a57613d39613625565b5b613d4687828801613742565b935050604085013567ffffffffffffffff811115613d6757613d66613625565b5b613d7387828801613742565b9250506060613d8487828801613967565b91505092959194509250565b60008060408385031215613da757613da6613620565b5b6000613db585828601613967565b9250506020613dc685828601613967565b9150509250929050565b60008115159050919050565b613de581613dd0565b82525050565b6000602082019050613e006000830184613ddc565b92915050565b60006040820190508181036000830152613e2081856139ba565b90508181036020830152613e3481846139ba565b90509392505050565b60006060820190508181036000830152613e5781866139ba565b9050613e666020830185613926565b613e736040830184613926565b949350505050565b600081519050919050565b600082825260208201905092915050565b6000819050602082019050919050565b613eb08161391c565b82525050565b6000613ec28383613ea7565b60208301905092915050565b6000602082019050919050565b6000613ee682613e7b565b613ef08185613e86565b9350613efb83613e97565b8060005b83811015613f2c578151613f138882613eb6565b9750613f1e83613ece565b925050600181019050613eff565b5085935050505092915050565b60006020820190508181036000830152613f538184613edb565b905092915050565b60008060008060808587031215613f7557613f74613620565b5b600085013567ffffffffffffffff811115613f9357613f92613625565b5b613f9f87828801613742565b945050602085013567ffffffffffffffff811115613fc057613fbf613625565b5b613fcc87828801613742565b935050604085013567ffffffffffffffff811115613fed57613fec613625565b5b613ff987828801613742565b925050606061400a87828801613967565b91505092959194509250565b6000806040838503121561402d5761402c613620565b5b600061403b85828601613967565b925050602083013567ffffffffffffffff81111561405c5761405b613625565b5b61406885828601613742565b9150509250929050565b60008060006060848603121561408b5761408a613620565b5b600061409986828701613967565b935050602084013567ffffffffffffffff8111156140ba576140b9613625565b5b6140c686828701613742565b925050604084013567ffffffffffffffff8111156140e7576140e6613625565b5b6140f386828701613742565b9150509250925092565b61410681613dd0565b811461411157600080fd5b50565b600081359050614123816140fd565b92915050565b600080600080600060a0868803121561414557614144613620565b5b600086013567ffffffffffffffff81111561416357614162613625565b5b61416f88828901613742565b955050602086013567ffffffffffffffff8111156141905761418f613625565b5b61419c88828901613742565b94505060406141ad88828901613967565b935050606086013567ffffffffffffffff8111156141ce576141cd613625565b5b6141da88828901613742565b92505060806141eb88828901614114565b9150509295509295909350565b6000806000806080858703121561421257614211613620565b5b600061422087828801613967565b945050602061423187828801613967565b935050604061424287828801613967565b925050606085013567ffffffffffffffff81111561426357614262613625565b5b61426f87828801613742565b91505092959194509250565b600061012082019050614291600083018c613926565b61429e602083018b613ddc565b6142ab604083018a613ddc565b6142b86060830189613ddc565b6142c56080830188613ddc565b6142d260a0830187613ddc565b6142df60c0830186613ddc565b6142ec60e0830185613ddc565b6142fa610100830184613ddc565b9a9950505050505050505050565b6000806000806080858703121561432257614321613620565b5b600085013567ffffffffffffffff8111156143405761433f613625565b5b61434c87828801613742565b945050602085013567ffffffffffffffff81111561436d5761436c613625565b5b61437987828801613742565b935050604061438a87828801613967565b925050606085013567ffffffffffffffff8111156143ab576143aa613625565b5b6143b787828801613742565b91505092959194509250565b600080604083850312156143da576143d9613620565b5b600083013567ffffffffffffffff8111156143f8576143f7613625565b5b61440485828601613742565b925050602083013567ffffffffffffffff81111561442557614424613625565b5b61443185828601613742565b9150509250929050565b6000806000806080858703121561445557614454613620565b5b600061446387828801613967565b945050602085013567ffffffffffffffff81111561448457614483613625565b5b61449087828801613742565b93505060406144a187828801613967565b92505060606144b287828801613967565b91505092959194509250565b600067ffffffffffffffff8211156144d9576144d8613645565b5b602082029050602081019050919050565b600080fd5b60006145026144fd846144be565b6136a5565b90508083825260208201905060208402830185811115614525576145246144ea565b5b835b8181101561456c57803567ffffffffffffffff81111561454a5761454961362a565b5b8086016145578982613742565b85526020850194505050602081019050614527565b5050509392505050565b600082601f83011261458b5761458a61362a565b5b813561459b8482602086016144ef565b91505092915050565b600080600080600060a086880312156145c0576145bf613620565b5b600086013567ffffffffffffffff8111156145de576145dd613625565b5b6145ea88828901613742565b955050602086013567ffffffffffffffff81111561460b5761460a613625565b5b61461788828901613742565b945050604086013567ffffffffffffffff81111561463857614637613625565b5b61464488828901614576565b935050606061465588828901613967565b925050608086013567ffffffffffffffff81111561467657614675613625565b5b61468288828901613742565b9150509295509295909350565b7f4e487b7100000000000000000000000000000000000000000000000000000000600052602260045260246000fd5b600060028204905060018216806146d657607f821691505b6020821081036146e9576146e861468f565b5b50919050565b600081905092915050565b60008190508160005260206000209050919050565b6000815461471c816146be565b61472681866146ef565b94506001821660008114614741576001811461475657614789565b60ff1983168652811515820286019350614789565b61475f856146fa565b60005b8381101561478157815481890152600182019150602081019050614762565b838801955050505b50505092915050565b600061479e828461470f565b915081905092915050565b7f4e487b7100000000000000000000000000000000000000000000000000000000600052603260045260246000fd5b7f4e487b7100000000000000000000000000000000000000000000000000000000600052601160045260246000fd5b60006148128261391c565b91507fffffffffffffffffffffffffffffffffffffffffffffffffffffffffffffffff8203614844576148436147d8565b5b600182019050919050565b600061485a8261391c565b91506148658361391c565b925082820190508082111561487d5761487c6147d8565b5b92915050565b60008190508160005260206000209050919050565b60006020601f8301049050919050565b600082821b905092915050565b6000600883026148e57fffffffffffffffffffffffffffffffffffffffffffffffffffffffffffffffff826148a8565b6148ef86836148a8565b95508019841693508086168417925050509392505050565b6000819050919050565b600061492c6149276149228461391c565b614907565b61391c565b9050919050565b6000819050919050565b61494683614911565b61495a61495282614933565b8484546148b5565b825550505050565b600090565b61496f614962565b61497a81848461493d565b505050565b5b8181101561499e57614993600082614967565b600181019050614980565b5050565b601f8211156149e3576149b481614883565b6149bd84614898565b810160208510156149cc578190505b6149e06149d885614898565b83018261497f565b50505b505050565b600082821c905092915050565b6000614a06600019846008026149e8565b1980831691505092915050565b6000614a1f83836149f5565b9150826002028217905092915050565b614a38826137e5565b67ffffffffffffffff811115614a5157614a50613645565b5b614a5b82546146be565b614a668282856149a2565b600060209050601f831160018114614a995760008415614a87578287015190505b614a918582614a13565b865550614af9565b601f198416614aa786614883565b60005b82811015614acf57848901518255600182019150602085019450602081019050614aaa565b86831015614aec5784890151614ae8601f8916826149f5565b8355505b6001600288020188555050505b50505050505056fea2646970667358221220075f8f63bed8fda52e0221b2d8c225525e25f1cc15215fd781b35db2e5d495ce64736f6c63430008110033",
  "devdoc": {
    "kind": "dev",
    "methods": {},
    "version": 1
  },
  "userdoc": {
    "kind": "user",
    "methods": {},
    "version": 1
  },
  "storageLayout": {
    "storage": [
      {
        "astId": 2433,
        "contract": "contracts/PlanetDAO.sol:PlanetDAO",
        "label": "_dao_ids",
        "offset": 0,
        "slot": "0",
        "type": "t_uint256"
      },
      {
        "astId": 2435,
        "contract": "contracts/PlanetDAO.sol:PlanetDAO",
        "label": "_donations_ids",
        "offset": 0,
        "slot": "1",
        "type": "t_uint256"
      },
      {
        "astId": 2437,
        "contract": "contracts/PlanetDAO.sol:PlanetDAO",
        "label": "_goal_ids",
        "offset": 0,
        "slot": "2",
        "type": "t_uint256"
      },
      {
        "astId": 2439,
        "contract": "contracts/PlanetDAO.sol:PlanetDAO",
        "label": "_ideas_ids",
        "offset": 0,
        "slot": "3",
        "type": "t_uint256"
      },
      {
        "astId": 2441,
        "contract": "contracts/PlanetDAO.sol:PlanetDAO",
        "label": "_join_ids",
        "offset": 0,
        "slot": "4",
        "type": "t_uint256"
      },
      {
        "astId": 2443,
        "contract": "contracts/PlanetDAO.sol:PlanetDAO",
        "label": "_smart_contract_ids",
        "offset": 0,
        "slot": "5",
        "type": "t_uint256"
      },
      {
        "astId": 2445,
        "contract": "contracts/PlanetDAO.sol:PlanetDAO",
        "label": "_ideas_vote_ids",
        "offset": 0,
        "slot": "6",
        "type": "t_uint256"
      },
      {
        "astId": 2447,
        "contract": "contracts/PlanetDAO.sol:PlanetDAO",
        "label": "_message_ids",
        "offset": 0,
        "slot": "7",
        "type": "t_uint256"
      },
      {
        "astId": 2449,
        "contract": "contracts/PlanetDAO.sol:PlanetDAO",
        "label": "_message_read_ids",
        "offset": 0,
        "slot": "8",
        "type": "t_uint256"
      },
      {
        "astId": 2451,
        "contract": "contracts/PlanetDAO.sol:PlanetDAO",
        "label": "_reply_ids",
        "offset": 0,
        "slot": "9",
        "type": "t_uint256"
      },
      {
        "astId": 2453,
        "contract": "contracts/PlanetDAO.sol:PlanetDAO",
        "label": "_feed_ids",
        "offset": 0,
        "slot": "10",
        "type": "t_uint256"
      },
      {
        "astId": 2458,
        "contract": "contracts/PlanetDAO.sol:PlanetDAO",
        "label": "_dao_uris",
        "offset": 0,
        "slot": "11",
        "type": "t_mapping(t_uint256,t_struct(dao_uri_struct)2331_storage)"
      },
      {
        "astId": 2462,
        "contract": "contracts/PlanetDAO.sol:PlanetDAO",
        "label": "_template_uris",
        "offset": 0,
        "slot": "12",
        "type": "t_mapping(t_uint256,t_string_storage)"
      },
      {
        "astId": 2467,
        "contract": "contracts/PlanetDAO.sol:PlanetDAO",
        "label": "_joined_person",
        "offset": 0,
        "slot": "13",
        "type": "t_mapping(t_uint256,t_struct(join_struct)2403_storage)"
      },
      {
        "astId": 2472,
        "contract": "contracts/PlanetDAO.sol:PlanetDAO",
        "label": "_goal_uris",
        "offset": 0,
        "slot": "14",
        "type": "t_mapping(t_uint256,t_struct(goal_uri_struct)2336_storage)"
      },
      {
        "astId": 2477,
        "contract": "contracts/PlanetDAO.sol:PlanetDAO",
        "label": "_ideas_uris",
        "offset": 0,
        "slot": "15",
        "type": "t_mapping(t_uint256,t_struct(ideas_uri_struct)2343_storage)"
      },
      {
        "astId": 2481,
        "contract": "contracts/PlanetDAO.sol:PlanetDAO",
        "label": "_donated",
        "offset": 0,
        "slot": "16",
        "type": "t_mapping(t_uint256,t_uint256)"
      },
      {
        "astId": 2486,
        "contract": "contracts/PlanetDAO.sol:PlanetDAO",
        "label": "_feeds",
        "offset": 0,
        "slot": "17",
        "type": "t_mapping(t_uint256,t_struct(feed_struct)2431_storage)"
      },
      {
        "astId": 2491,
        "contract": "contracts/PlanetDAO.sol:PlanetDAO",
        "label": "_donations",
        "offset": 0,
        "slot": "18",
        "type": "t_mapping(t_uint256,t_struct(donation_struct)2350_storage)"
      },
      {
        "astId": 2496,
        "contract": "contracts/PlanetDAO.sol:PlanetDAO",
        "label": "_smart_contracts_uris",
        "offset": 0,
        "slot": "19",
        "type": "t_mapping(t_uint256,t_struct(smart_contract_uri_struct)2357_storage)"
      },
      {
        "astId": 2501,
        "contract": "contracts/PlanetDAO.sol:PlanetDAO",
        "label": "all_goal_ideas_votes",
        "offset": 0,
        "slot": "20",
        "type": "t_mapping(t_uint256,t_struct(goal_ideas_votes_struct)2364_storage)"
      },
      {
        "astId": 2506,
        "contract": "contracts/PlanetDAO.sol:PlanetDAO",
        "label": "all_messages",
        "offset": 0,
        "slot": "21",
        "type": "t_mapping(t_uint256,t_struct(message_struct)2373_storage)"
      },
      {
        "astId": 2511,
        "contract": "contracts/PlanetDAO.sol:PlanetDAO",
        "label": "all_read_messages",
        "offset": 0,
        "slot": "22",
        "type": "t_mapping(t_uint256,t_struct(message_read_struct)2382_storage)"
      },
      {
        "astId": 2516,
        "contract": "contracts/PlanetDAO.sol:PlanetDAO",
        "label": "all_replies",
        "offset": 0,
        "slot": "23",
        "type": "t_mapping(t_uint256,t_struct(reply_struct)2391_storage)"
      },
      {
        "astId": 2521,
        "contract": "contracts/PlanetDAO.sol:PlanetDAO",
        "label": "_user_badges",
        "offset": 0,
        "slot": "24",
        "type": "t_mapping(t_uint256,t_struct(user_badge_struct)2422_storage)"
      }
    ],
    "types": {
      "t_bool": {
        "encoding": "inplace",
        "label": "bool",
        "numberOfBytes": "1"
      },
      "t_mapping(t_uint256,t_string_storage)": {
        "encoding": "mapping",
        "key": "t_uint256",
        "label": "mapping(uint256 => string)",
        "numberOfBytes": "32",
        "value": "t_string_storage"
      },
      "t_mapping(t_uint256,t_struct(dao_uri_struct)2331_storage)": {
        "encoding": "mapping",
        "key": "t_uint256",
        "label": "mapping(uint256 => struct PlanetDAO.dao_uri_struct)",
        "numberOfBytes": "32",
        "value": "t_struct(dao_uri_struct)2331_storage"
      },
      "t_mapping(t_uint256,t_struct(donation_struct)2350_storage)": {
        "encoding": "mapping",
        "key": "t_uint256",
        "label": "mapping(uint256 => struct PlanetDAO.donation_struct)",
        "numberOfBytes": "32",
        "value": "t_struct(donation_struct)2350_storage"
      },
      "t_mapping(t_uint256,t_struct(feed_struct)2431_storage)": {
        "encoding": "mapping",
        "key": "t_uint256",
        "label": "mapping(uint256 => struct PlanetDAO.feed_struct)",
        "numberOfBytes": "32",
        "value": "t_struct(feed_struct)2431_storage"
      },
      "t_mapping(t_uint256,t_struct(goal_ideas_votes_struct)2364_storage)": {
        "encoding": "mapping",
        "key": "t_uint256",
        "label": "mapping(uint256 => struct PlanetDAO.goal_ideas_votes_struct)",
        "numberOfBytes": "32",
        "value": "t_struct(goal_ideas_votes_struct)2364_storage"
      },
      "t_mapping(t_uint256,t_struct(goal_uri_struct)2336_storage)": {
        "encoding": "mapping",
        "key": "t_uint256",
        "label": "mapping(uint256 => struct PlanetDAO.goal_uri_struct)",
        "numberOfBytes": "32",
        "value": "t_struct(goal_uri_struct)2336_storage"
      },
      "t_mapping(t_uint256,t_struct(ideas_uri_struct)2343_storage)": {
        "encoding": "mapping",
        "key": "t_uint256",
        "label": "mapping(uint256 => struct PlanetDAO.ideas_uri_struct)",
        "numberOfBytes": "32",
        "value": "t_struct(ideas_uri_struct)2343_storage"
      },
      "t_mapping(t_uint256,t_struct(join_struct)2403_storage)": {
        "encoding": "mapping",
        "key": "t_uint256",
        "label": "mapping(uint256 => struct PlanetDAO.join_struct)",
        "numberOfBytes": "32",
        "value": "t_struct(join_struct)2403_storage"
      },
      "t_mapping(t_uint256,t_struct(message_read_struct)2382_storage)": {
        "encoding": "mapping",
        "key": "t_uint256",
        "label": "mapping(uint256 => struct PlanetDAO.message_read_struct)",
        "numberOfBytes": "32",
        "value": "t_struct(message_read_struct)2382_storage"
      },
      "t_mapping(t_uint256,t_struct(message_struct)2373_storage)": {
        "encoding": "mapping",
        "key": "t_uint256",
        "label": "mapping(uint256 => struct PlanetDAO.message_struct)",
        "numberOfBytes": "32",
        "value": "t_struct(message_struct)2373_storage"
      },
      "t_mapping(t_uint256,t_struct(reply_struct)2391_storage)": {
        "encoding": "mapping",
        "key": "t_uint256",
        "label": "mapping(uint256 => struct PlanetDAO.reply_struct)",
        "numberOfBytes": "32",
        "value": "t_struct(reply_struct)2391_storage"
      },
      "t_mapping(t_uint256,t_struct(smart_contract_uri_struct)2357_storage)": {
        "encoding": "mapping",
        "key": "t_uint256",
        "label": "mapping(uint256 => struct PlanetDAO.smart_contract_uri_struct)",
        "numberOfBytes": "32",
        "value": "t_struct(smart_contract_uri_struct)2357_storage"
      },
      "t_mapping(t_uint256,t_struct(user_badge_struct)2422_storage)": {
        "encoding": "mapping",
        "key": "t_uint256",
        "label": "mapping(uint256 => struct PlanetDAO.user_badge_struct)",
        "numberOfBytes": "32",
        "value": "t_struct(user_badge_struct)2422_storage"
      },
      "t_mapping(t_uint256,t_uint256)": {
        "encoding": "mapping",
        "key": "t_uint256",
        "label": "mapping(uint256 => uint256)",
        "numberOfBytes": "32",
        "value": "t_uint256"
      },
      "t_string_storage": {
        "encoding": "bytes",
        "label": "string",
        "numberOfBytes": "32"
      },
      "t_struct(dao_uri_struct)2331_storage": {
        "encoding": "inplace",
        "label": "struct PlanetDAO.dao_uri_struct",
        "members": [
          {
            "astId": 2326,
            "contract": "contracts/PlanetDAO.sol:PlanetDAO",
            "label": "dao_wallet",
            "offset": 0,
            "slot": "0",
            "type": "t_string_storage"
          },
          {
            "astId": 2328,
            "contract": "contracts/PlanetDAO.sol:PlanetDAO",
            "label": "dao_uri",
            "offset": 0,
            "slot": "1",
            "type": "t_string_storage"
          },
          {
            "astId": 2330,
            "contract": "contracts/PlanetDAO.sol:PlanetDAO",
            "label": "finished",
            "offset": 0,
            "slot": "2",
            "type": "t_string_storage"
          }
        ],
        "numberOfBytes": "96"
      },
      "t_struct(donation_struct)2350_storage": {
        "encoding": "inplace",
        "label": "struct PlanetDAO.donation_struct",
        "members": [
          {
            "astId": 2345,
            "contract": "contracts/PlanetDAO.sol:PlanetDAO",
            "label": "ideas_id",
            "offset": 0,
            "slot": "0",
            "type": "t_string_storage"
          },
          {
            "astId": 2347,
            "contract": "contracts/PlanetDAO.sol:PlanetDAO",
            "label": "userid",
            "offset": 0,
            "slot": "1",
            "type": "t_uint256"
          },
          {
            "astId": 2349,
            "contract": "contracts/PlanetDAO.sol:PlanetDAO",
            "label": "donation",
            "offset": 0,
            "slot": "2",
            "type": "t_uint256"
          }
        ],
        "numberOfBytes": "96"
      },
      "t_struct(feed_struct)2431_storage": {
        "encoding": "inplace",
        "label": "struct PlanetDAO.feed_struct",
        "members": [
          {
            "astId": 2424,
            "contract": "contracts/PlanetDAO.sol:PlanetDAO",
            "label": "feed_id",
            "offset": 0,
            "slot": "0",
            "type": "t_uint256"
          },
          {
            "astId": 2426,
            "contract": "contracts/PlanetDAO.sol:PlanetDAO",
            "label": "date",
            "offset": 0,
            "slot": "1",
            "type": "t_uint256"
          },
          {
            "astId": 2428,
            "contract": "contracts/PlanetDAO.sol:PlanetDAO",
            "label": "Type",
            "offset": 0,
            "slot": "2",
            "type": "t_string_storage"
          },
          {
            "astId": 2430,
            "contract": "contracts/PlanetDAO.sol:PlanetDAO",
            "label": "data",
            "offset": 0,
            "slot": "3",
            "type": "t_string_storage"
          }
        ],
        "numberOfBytes": "128"
      },
      "t_struct(goal_ideas_votes_struct)2364_storage": {
        "encoding": "inplace",
        "label": "struct PlanetDAO.goal_ideas_votes_struct",
        "members": [
          {
            "astId": 2359,
            "contract": "contracts/PlanetDAO.sol:PlanetDAO",
            "label": "goal_id",
            "offset": 0,
            "slot": "0",
            "type": "t_string_storage"
          },
          {
            "astId": 2361,
            "contract": "contracts/PlanetDAO.sol:PlanetDAO",
            "label": "ideas_id",
            "offset": 0,
            "slot": "1",
            "type": "t_string_storage"
          },
          {
            "astId": 2363,
            "contract": "contracts/PlanetDAO.sol:PlanetDAO",
            "label": "user_id",
            "offset": 0,
            "slot": "2",
            "type": "t_uint256"
          }
        ],
        "numberOfBytes": "96"
      },
      "t_struct(goal_uri_struct)2336_storage": {
        "encoding": "inplace",
        "label": "struct PlanetDAO.goal_uri_struct",
        "members": [
          {
            "astId": 2333,
            "contract": "contracts/PlanetDAO.sol:PlanetDAO",
            "label": "dao_id",
            "offset": 0,
            "slot": "0",
            "type": "t_string_storage"
          },
          {
            "astId": 2335,
            "contract": "contracts/PlanetDAO.sol:PlanetDAO",
            "label": "goal_uri",
            "offset": 0,
            "slot": "1",
            "type": "t_string_storage"
          }
        ],
        "numberOfBytes": "64"
      },
      "t_struct(ideas_uri_struct)2343_storage": {
        "encoding": "inplace",
        "label": "struct PlanetDAO.ideas_uri_struct",
        "members": [
          {
            "astId": 2338,
            "contract": "contracts/PlanetDAO.sol:PlanetDAO",
            "label": "goal_id",
            "offset": 0,
            "slot": "0",
            "type": "t_string_storage"
          },
          {
            "astId": 2340,
            "contract": "contracts/PlanetDAO.sol:PlanetDAO",
            "label": "ideas_uri",
            "offset": 0,
            "slot": "1",
            "type": "t_string_storage"
          },
          {
            "astId": 2342,
            "contract": "contracts/PlanetDAO.sol:PlanetDAO",
            "label": "donation",
            "offset": 0,
            "slot": "2",
            "type": "t_uint256"
          }
        ],
        "numberOfBytes": "96"
      },
      "t_struct(join_struct)2403_storage": {
        "encoding": "inplace",
        "label": "struct PlanetDAO.join_struct",
        "members": [
          {
            "astId": 2398,
            "contract": "contracts/PlanetDAO.sol:PlanetDAO",
            "label": "daoid",
            "offset": 0,
            "slot": "0",
            "type": "t_uint256"
          },
          {
            "astId": 2400,
            "contract": "contracts/PlanetDAO.sol:PlanetDAO",
            "label": "user_id",
            "offset": 0,
            "slot": "1",
            "type": "t_uint256"
          },
          {
            "astId": 2402,
            "contract": "contracts/PlanetDAO.sol:PlanetDAO",
            "label": "joined_date",
            "offset": 0,
            "slot": "2",
            "type": "t_string_storage"
          }
        ],
        "numberOfBytes": "96"
      },
      "t_struct(message_read_struct)2382_storage": {
        "encoding": "inplace",
        "label": "struct PlanetDAO.message_read_struct",
        "members": [
          {
            "astId": 2375,
            "contract": "contracts/PlanetDAO.sol:PlanetDAO",
            "label": "message_id",
            "offset": 0,
            "slot": "0",
            "type": "t_uint256"
          },
          {
            "astId": 2377,
            "contract": "contracts/PlanetDAO.sol:PlanetDAO",
            "label": "ideas_id",
            "offset": 0,
            "slot": "1",
            "type": "t_uint256"
          },
          {
            "astId": 2379,
            "contract": "contracts/PlanetDAO.sol:PlanetDAO",
            "label": "user_id",
            "offset": 0,
            "slot": "2",
            "type": "t_uint256"
          },
          {
            "astId": 2381,
            "contract": "contracts/PlanetDAO.sol:PlanetDAO",
            "label": "msg_type",
            "offset": 0,
            "slot": "3",
            "type": "t_string_storage"
          }
        ],
        "numberOfBytes": "128"
      },
      "t_struct(message_struct)2373_storage": {
        "encoding": "inplace",
        "label": "struct PlanetDAO.message_struct",
        "members": [
          {
            "astId": 2366,
            "contract": "contracts/PlanetDAO.sol:PlanetDAO",
            "label": "message_id",
            "offset": 0,
            "slot": "0",
            "type": "t_uint256"
          },
          {
            "astId": 2368,
            "contract": "contracts/PlanetDAO.sol:PlanetDAO",
            "label": "ideas_id",
            "offset": 0,
            "slot": "1",
            "type": "t_uint256"
          },
          {
            "astId": 2370,
            "contract": "contracts/PlanetDAO.sol:PlanetDAO",
            "label": "message",
            "offset": 0,
            "slot": "2",
            "type": "t_string_storage"
          },
          {
            "astId": 2372,
            "contract": "contracts/PlanetDAO.sol:PlanetDAO",
            "label": "sender",
            "offset": 0,
            "slot": "3",
            "type": "t_string_storage"
          }
        ],
        "numberOfBytes": "128"
      },
      "t_struct(reply_struct)2391_storage": {
        "encoding": "inplace",
        "label": "struct PlanetDAO.reply_struct",
        "members": [
          {
            "astId": 2384,
            "contract": "contracts/PlanetDAO.sol:PlanetDAO",
            "label": "reply_id",
            "offset": 0,
            "slot": "0",
            "type": "t_uint256"
          },
          {
            "astId": 2386,
            "contract": "contracts/PlanetDAO.sol:PlanetDAO",
            "label": "message_id",
            "offset": 0,
            "slot": "1",
            "type": "t_uint256"
          },
          {
            "astId": 2388,
            "contract": "contracts/PlanetDAO.sol:PlanetDAO",
            "label": "ideas_id",
            "offset": 0,
            "slot": "2",
            "type": "t_uint256"
          },
          {
            "astId": 2390,
            "contract": "contracts/PlanetDAO.sol:PlanetDAO",
            "label": "message",
            "offset": 0,
            "slot": "3",
            "type": "t_string_storage"
          }
        ],
        "numberOfBytes": "128"
      },
      "t_struct(smart_contract_uri_struct)2357_storage": {
        "encoding": "inplace",
        "label": "struct PlanetDAO.smart_contract_uri_struct",
        "members": [
          {
            "astId": 2352,
            "contract": "contracts/PlanetDAO.sol:PlanetDAO",
            "label": "smart_contract_id",
            "offset": 0,
            "slot": "0",
            "type": "t_uint256"
          },
          {
            "astId": 2354,
            "contract": "contracts/PlanetDAO.sol:PlanetDAO",
            "label": "ideas_id",
            "offset": 0,
            "slot": "1",
            "type": "t_uint256"
          },
          {
            "astId": 2356,
            "contract": "contracts/PlanetDAO.sol:PlanetDAO",
            "label": "smart_contract_uri",
            "offset": 0,
            "slot": "2",
            "type": "t_string_storage"
          }
        ],
        "numberOfBytes": "96"
      },
      "t_struct(user_badge_struct)2422_storage": {
        "encoding": "inplace",
        "label": "struct PlanetDAO.user_badge_struct",
        "members": [
          {
            "astId": 2405,
            "contract": "contracts/PlanetDAO.sol:PlanetDAO",
            "label": "user_id",
            "offset": 0,
            "slot": "0",
            "type": "t_uint256"
          },
          {
            "astId": 2407,
            "contract": "contracts/PlanetDAO.sol:PlanetDAO",
            "label": "dao",
            "offset": 0,
            "slot": "1",
            "type": "t_bool"
          },
          {
            "astId": 2409,
            "contract": "contracts/PlanetDAO.sol:PlanetDAO",
            "label": "joined",
            "offset": 1,
            "slot": "1",
            "type": "t_bool"
          },
          {
            "astId": 2411,
            "contract": "contracts/PlanetDAO.sol:PlanetDAO",
            "label": "goal",
            "offset": 2,
            "slot": "1",
            "type": "t_bool"
          },
          {
            "astId": 2413,
            "contract": "contracts/PlanetDAO.sol:PlanetDAO",
            "label": "ideas",
            "offset": 3,
            "slot": "1",
            "type": "t_bool"
          },
          {
            "astId": 2415,
            "contract": "contracts/PlanetDAO.sol:PlanetDAO",
            "label": "vote",
            "offset": 4,
            "slot": "1",
            "type": "t_bool"
          },
          {
            "astId": 2417,
            "contract": "contracts/PlanetDAO.sol:PlanetDAO",
            "label": "donation",
            "offset": 5,
            "slot": "1",
            "type": "t_bool"
          },
          {
            "astId": 2419,
            "contract": "contracts/PlanetDAO.sol:PlanetDAO",
            "label": "comment",
            "offset": 6,
            "slot": "1",
            "type": "t_bool"
          },
          {
            "astId": 2421,
            "contract": "contracts/PlanetDAO.sol:PlanetDAO",
            "label": "reply",
            "offset": 7,
            "slot": "1",
            "type": "t_bool"
          }
        ],
        "numberOfBytes": "64"
      },
      "t_uint256": {
        "encoding": "inplace",
        "label": "uint256",
        "numberOfBytes": "32"
      }
    }
  }
}