{"contracts/PlanetDAO.sol":{"PlanetDAO":{"abi":[{"inputs":[],"name":"_dao_ids","outputs":[{"internalType":"uint256","name":"","type":"uint256"}],"stateMutability":"view","type":"function"},{"inputs":[{"internalType":"uint256","name":"","type":"uint256"}],"name":"_dao_uris","outputs":[{"internalType":"string","name":"dao_wallet","type":"string"},{"internalType":"string","name":"dao_uri","type":"string"},{"internalType":"string","name":"finished","type":"string"}],"stateMutability":"view","type":"function"},{"inputs":[{"internalType":"uint256","name":"","type":"uint256"}],"name":"_donated","outputs":[{"internalType":"uint256","name":"","type":"uint256"}],"stateMutability":"view","type":"function"},{"inputs":[{"internalType":"uint256","name":"","type":"uint256"}],"name":"_donations","outputs":[{"internalType":"uint256","name":"ideas_id","type":"uint256"},{"internalType":"uint256","name":"userid","type":"uint256"},{"internalType":"uint256","name":"donation","type":"uint256"}],"stateMutability":"view","type":"function"},{"inputs":[],"name":"_donations_ids","outputs":[{"internalType":"uint256","name":"","type":"uint256"}],"stateMutability":"view","type":"function"},{"inputs":[],"name":"_feed_ids","outputs":[{"internalType":"uint256","name":"","type":"uint256"}],"stateMutability":"view","type":"function"},{"inputs":[{"internalType":"uint256","name":"","type":"uint256"}],"name":"_feeds","outputs":[{"internalType":"uint256","name":"feed_id","type":"uint256"},{"internalType":"uint256","name":"date","type":"uint256"},{"internalType":"string","name":"Type","type":"string"},{"internalType":"string","name":"data","type":"string"}],"stateMutability":"view","type":"function"},{"inputs":[],"name":"_goal_ids","outputs":[{"internalType":"uint256","name":"","type":"uint256"}],"stateMutability":"view","type":"function"},{"inputs":[{"internalType":"uint256","name":"","type":"uint256"}],"name":"_goal_uris","outputs":[{"internalType":"string","name":"dao_id","type":"string"},{"internalType":"string","name":"goal_uri","type":"string"}],"stateMutability":"view","type":"function"},{"inputs":[],"name":"_ideas_ids","outputs":[{"internalType":"uint256","name":"","type":"uint256"}],"stateMutability":"view","type":"function"},{"inputs":[{"internalType":"uint256","name":"","type":"uint256"}],"name":"_ideas_uris","outputs":[{"internalType":"uint256","name":"goal_id","type":"uint256"},{"internalType":"string","name":"ideas_uri","type":"string"},{"internalType":"uint256","name":"donation","type":"uint256"}],"stateMutability":"view","type":"function"},{"inputs":[],"name":"_ideas_vote_ids","outputs":[{"internalType":"uint256","name":"","type":"uint256"}],"stateMutability":"view","type":"function"},{"inputs":[],"name":"_join_ids","outputs":[{"internalType":"uint256","name":"","type":"uint256"}],"stateMutability":"view","type":"function"},{"inputs":[{"internalType":"uint256","name":"","type":"uint256"}],"name":"_joined_person","outputs":[{"internalType":"uint256","name":"daoid","type":"uint256"},{"internalType":"uint256","name":"user_id","type":"uint256"},{"internalType":"string","name":"joined_date","type":"string"}],"stateMutability":"view","type":"function"},{"inputs":[],"name":"_message_ids","outputs":[{"internalType":"uint256","name":"","type":"uint256"}],"stateMutability":"view","type":"function"},{"inputs":[],"name":"_message_read_ids","outputs":[{"internalType":"uint256","name":"","type":"uint256"}],"stateMutability":"view","type":"function"},{"inputs":[],"name":"_reply_ids","outputs":[{"internalType":"uint256","name":"","type":"uint256"}],"stateMutability":"view","type":"function"},{"inputs":[],"name":"_smart_contract_ids","outputs":[{"internalType":"uint256","name":"","type":"uint256"}],"stateMutability":"view","type":"function"},{"inputs":[{"internalType":"uint256","name":"","type":"uint256"}],"name":"_smart_contracts_uris","outputs":[{"internalType":"uint256","name":"smart_contract_id","type":"uint256"},{"internalType":"uint256","name":"ideas_id","type":"uint256"},{"internalType":"string","name":"smart_contract_uri","type":"string"}],"stateMutability":"view","type":"function"},{"inputs":[{"internalType":"uint256","name":"","type":"uint256"}],"name":"_template_uris","outputs":[{"internalType":"string","name":"","type":"string"}],"stateMutability":"view","type":"function"},{"inputs":[{"internalType":"uint256","name":"","type":"uint256"}],"name":"_user_badges","outputs":[{"internalType":"uint256","name":"user_id","type":"uint256"},{"internalType":"bool","name":"dao","type":"bool"},{"internalType":"bool","name":"joined","type":"bool"},{"internalType":"bool","name":"goal","type":"bool"},{"internalType":"bool","name":"ideas","type":"bool"},{"internalType":"bool","name":"vote","type":"bool"},{"internalType":"bool","name":"donation","type":"bool"},{"internalType":"bool","name":"comment","type":"bool"},{"internalType":"bool","name":"reply","type":"bool"}],"stateMutability":"view","type":"function"},{"inputs":[{"internalType":"string","name":"feed_text","type":"string"},{"internalType":"string","name":"_type","type":"string"}],"name":"add_Feed","outputs":[],"stateMutability":"nonpayable","type":"function"},{"inputs":[{"internalType":"uint256","name":"_ideas_id","type":"uint256"},{"internalType":"uint256","name":"_doantion","type":"uint256"},{"internalType":"uint256","name":"_userid","type":"uint256"},{"internalType":"string","name":"_feed1","type":"string"},{"internalType":"string","name":"_feed2","type":"string"}],"name":"add_donation","outputs":[],"stateMutability":"nonpayable","type":"function"},{"inputs":[{"internalType":"uint256","name":"","type":"uint256"}],"name":"all_goal_ideas_votes","outputs":[{"internalType":"uint256","name":"goal_id","type":"uint256"},{"internalType":"uint256","name":"ideas_id","type":"uint256"},{"internalType":"uint256","name":"user_id","type":"uint256"}],"stateMutability":"view","type":"function"},{"inputs":[{"internalType":"uint256","name":"","type":"uint256"}],"name":"all_messages","outputs":[{"internalType":"uint256","name":"message_id","type":"uint256"},{"internalType":"uint256","name":"ideas_id","type":"uint256"},{"internalType":"string","name":"message","type":"string"},{"internalType":"string","name":"sender","type":"string"}],"stateMutability":"view","type":"function"},{"inputs":[{"internalType":"uint256","name":"","type":"uint256"}],"name":"all_read_messages","outputs":[{"internalType":"uint256","name":"message_id","type":"uint256"},{"internalType":"uint256","name":"ideas_id","type":"uint256"},{"internalType":"uint256","name":"user_id","type":"uint256"},{"internalType":"string","name":"msg_type","type":"string"}],"stateMutability":"view","type":"function"},{"inputs":[{"internalType":"uint256","name":"","type":"uint256"}],"name":"all_replies","outputs":[{"internalType":"uint256","name":"reply_id","type":"uint256"},{"internalType":"uint256","name":"message_id","type":"uint256"},{"internalType":"uint256","name":"ideas_id","type":"uint256"},{"internalType":"string","name":"message","type":"string"}],"stateMutability":"view","type":"function"},{"inputs":[{"internalType":"string","name":"_dao_wallet","type":"string"},{"internalType":"string","name":"_dao_uri","type":"string"},{"internalType":"string","name":"_template","type":"string"},{"internalType":"uint256","name":"user_id","type":"uint256"}],"name":"create_dao","outputs":[{"internalType":"uint256","name":"","type":"uint256"}],"stateMutability":"nonpayable","type":"function"},{"inputs":[{"internalType":"string","name":"_goal_uri","type":"string"},{"internalType":"string","name":"_dao_id","type":"string"},{"internalType":"uint256","name":"_user_id","type":"uint256"},{"internalType":"string","name":"_feed","type":"string"}],"name":"create_goal","outputs":[{"internalType":"uint256","name":"","type":"uint256"}],"stateMutability":"nonpayable","type":"function"},{"inputs":[{"internalType":"uint256","name":"_goal_id","type":"uint256"},{"internalType":"uint256","name":"_ideas_id","type":"uint256"},{"internalType":"uint256","name":"_user_id","type":"uint256"},{"internalType":"string","name":"_feed","type":"string"},{"internalType":"bool","name":"feed_add","type":"bool"}],"name":"create_goal_ideas_vote","outputs":[{"internalType":"uint256","name":"","type":"uint256"}],"stateMutability":"nonpayable","type":"function"},{"inputs":[{"internalType":"string","name":"_ideas_uri","type":"string"},{"internalType":"uint256","name":"_goal_id","type":"uint256"},{"internalType":"string[]","name":"_smart_contracts","type":"string[]"},{"internalType":"uint256","name":"_user_id","type":"uint256"},{"internalType":"string","name":"_feed","type":"string"}],"name":"create_ideas","outputs":[{"internalType":"uint256","name":"","type":"uint256"}],"stateMutability":"nonpayable","type":"function"},{"inputs":[{"internalType":"uint256","name":"_dao_id","type":"uint256"}],"name":"dao_uri","outputs":[{"internalType":"string","name":"","type":"string"}],"stateMutability":"view","type":"function"},{"inputs":[{"internalType":"uint256","name":"ideas_id","type":"uint256"}],"name":"getMsgIDs","outputs":[{"internalType":"uint256[]","name":"","type":"uint256[]"}],"stateMutability":"view","type":"function"},{"inputs":[{"internalType":"uint256","name":"_message_id","type":"uint256"},{"internalType":"string","name":"msg_type","type":"string"}],"name":"getReadMsg","outputs":[{"internalType":"bool","name":"","type":"bool"}],"stateMutability":"view","type":"function"},{"inputs":[{"internalType":"uint256","name":"message_id","type":"uint256"}],"name":"getReplyIDs","outputs":[{"internalType":"uint256[]","name":"","type":"uint256[]"}],"stateMutability":"view","type":"function"},{"inputs":[],"name":"get_all_daos","outputs":[{"internalType":"string[]","name":"","type":"string[]"}],"stateMutability":"view","type":"function"},{"inputs":[],"name":"get_all_goals","outputs":[{"internalType":"string[]","name":"","type":"string[]"}],"stateMutability":"view","type":"function"},{"inputs":[{"internalType":"string","name":"_dao_id","type":"string"}],"name":"get_all_goals_by_dao_id","outputs":[{"internalType":"string[]","name":"","type":"string[]"}],"stateMutability":"view","type":"function"},{"inputs":[],"name":"get_all_ideas","outputs":[{"internalType":"string[]","name":"","type":"string[]"}],"stateMutability":"view","type":"function"},{"inputs":[{"internalType":"uint256","name":"_goal_id","type":"uint256"}],"name":"get_all_ideas_by_goal_id","outputs":[{"internalType":"string[]","name":"","type":"string[]"}],"stateMutability":"view","type":"function"},{"inputs":[{"internalType":"uint256","name":"ideas_id","type":"uint256"}],"name":"get_dao_id_by_ideas_id","outputs":[{"internalType":"string","name":"","type":"string"}],"stateMutability":"view","type":"function"},{"inputs":[{"internalType":"string","name":"_goal_uri","type":"string"}],"name":"get_goal_id_by_goal_uri","outputs":[{"internalType":"uint256","name":"","type":"uint256"}],"stateMutability":"view","type":"function"},{"inputs":[{"internalType":"string","name":"_ideas_uri","type":"string"}],"name":"get_goal_id_from_ideas_uri","outputs":[{"internalType":"uint256","name":"","type":"uint256"}],"stateMutability":"view","type":"function"},{"inputs":[{"internalType":"string","name":"_ideas_uri","type":"string"}],"name":"get_ideas_id_by_ideas_uri","outputs":[{"internalType":"uint256","name":"","type":"uint256"}],"stateMutability":"view","type":"function"},{"inputs":[{"internalType":"uint256","name":"_goal_id","type":"uint256"},{"internalType":"uint256","name":"_ideas_id","type":"uint256"}],"name":"get_ideas_votes_from_goal","outputs":[{"internalType":"string[]","name":"","type":"string[]"}],"stateMutability":"view","type":"function"},{"inputs":[{"internalType":"uint256","name":"dao_id","type":"uint256"},{"internalType":"uint256","name":"person","type":"uint256"}],"name":"get_person_joinedID","outputs":[{"internalType":"uint256","name":"","type":"uint256"}],"stateMutability":"view","type":"function"},{"inputs":[{"internalType":"uint256","name":"_goal_id","type":"uint256"}],"name":"goal_uri","outputs":[{"internalType":"string","name":"","type":"string"}],"stateMutability":"view","type":"function"},{"inputs":[{"internalType":"uint256","name":"_ideas_id","type":"uint256"}],"name":"ideas_uri","outputs":[{"internalType":"string","name":"","type":"string"}],"stateMutability":"view","type":"function"},{"inputs":[{"internalType":"uint256","name":"dao_id","type":"uint256"},{"internalType":"uint256","name":"person","type":"uint256"}],"name":"is_person_joined","outputs":[{"internalType":"bool","name":"","type":"bool"}],"stateMutability":"view","type":"function"},{"inputs":[{"internalType":"uint256","name":"dao_id","type":"uint256"},{"internalType":"uint256","name":"person","type":"uint256"},{"internalType":"string","name":"joined_date","type":"string"},{"internalType":"string","name":"_feed","type":"string"}],"name":"join_community","outputs":[],"stateMutability":"nonpayable","type":"function"},{"inputs":[{"internalType":"uint256","name":"join_id","type":"uint256"}],"name":"leave_community","outputs":[],"stateMutability":"nonpayable","type":"function"},{"inputs":[],"name":"reset_all","outputs":[],"stateMutability":"nonpayable","type":"function"},{"inputs":[{"internalType":"uint256","name":"_ideas_id","type":"uint256"},{"internalType":"string","name":"_message","type":"string"},{"internalType":"string","name":"_sender","type":"string"},{"internalType":"uint256","name":"_user_id","type":"uint256"}],"name":"sendMsg","outputs":[{"internalType":"uint256","name":"","type":"uint256"}],"stateMutability":"nonpayable","type":"function"},{"inputs":[{"internalType":"uint256","name":"_message_id","type":"uint256"},{"internalType":"uint256","name":"_ideas_id","type":"uint256"},{"internalType":"uint256","name":"_wallet","type":"uint256"},{"internalType":"string","name":"msg_type","type":"string"}],"name":"sendReadMsg","outputs":[{"internalType":"uint256","name":"","type":"uint256"}],"stateMutability":"nonpayable","type":"function"},{"inputs":[{"internalType":"uint256","name":"_message_id","type":"uint256"},{"internalType":"string","name":"_reply","type":"string"},{"internalType":"uint256","name":"ideas_id","type":"uint256"},{"internalType":"uint256","name":"_userid","type":"uint256"}],"name":"sendReply","outputs":[{"internalType":"uint256","name":"","type":"uint256"}],"stateMutability":"nonpayable","type":"function"},{"inputs":[{"internalType":"uint256","name":"_dao_id","type":"uint256"},{"internalType":"string","name":"_dao_wallet","type":"string"},{"internalType":"string","name":"_dao_uri","type":"string"}],"name":"set_dao","outputs":[],"stateMutability":"nonpayable","type":"function"},{"inputs":[{"internalType":"uint256","name":"_goal_id","type":"uint256"},{"internalType":"string","name":"_goal_uri","type":"string"}],"name":"set_goal","outputs":[],"stateMutability":"nonpayable","type":"function"},{"inputs":[{"internalType":"uint256","name":"_ideas_id","type":"uint256"},{"internalType":"string","name":"_ideas_uri","type":"string"}],"name":"set_ideas","outputs":[],"stateMutability":"nonpayable","type":"function"},{"inputs":[{"internalType":"uint256","name":"_dao_id","type":"uint256"},{"internalType":"string","name":"_template","type":"string"}],"name":"update_template","outputs":[],"stateMutability":"nonpayable","type":"function"}],"devdoc":{"kind":"dev","methods":{},"version":1},"evm":{"bytecode":{"linkReferences":{},"object":"608060405234801561001057600080fd5b50614c72806100206000396000f3fe608060405234801561001057600080fd5b50600436106103995760003560e01c806386ffa45b116101e9578063b604efaa1161010f578063cd230809116100ad578063e32acc1a1161007c578063e32acc1a14610c5d578063ec24580214610c8d578063ecde324314610cab578063ff4a37ef14610cdb57610399565b8063cd23080914610baf578063d3791b2014610bdf578063d9fc52db14610bfd578063e1b011a014610c2d57610399565b8063c04fe978116100e9578063c04fe97814610b24578063c29595c514610b42578063ca013f1714610b5e578063cace8d4614610b7c57610399565b8063b604efaa14610abc578063bda0033514610aec578063c04e743014610b0857610399565b806397ee760611610187578063aa4cdf2a11610156578063aa4cdf2a14610a1f578063b16060a614610a4f578063b39a38bd14610a59578063b527d45e14610a8957610399565b806397ee76061461097b578063a1ca917814610999578063a428a47f146109c9578063aa2bf5d314610a0157610399565b80638ac4110c116101c35780638ac4110c146108df5780638d3d2595146108fd5780639077007d1461092d578063934c5f001461094b57610399565b806386ffa45b1461087757806387633eb2146108a7578063881de858146108c357610399565b80634a797bd7116102ce578063787f19c71161026c5780637fc543ec1161023b5780637fc543ec146107c9578063803f5b9f146107fb578063812fae1f1461082b578063826eeefe1461085b57610399565b8063787f19c71461071a5780637a82b1d61461074a5780637bbd582d1461077a5780637f2035d41461079857610399565b80635996278f116102a85780635996278f146106825780635cd844c91461069e5780635d907da1146106ba5780636ecda4ee146106ea57610399565b80634a797bd7146106015780634be7adb51461061f57806354a9fb181461064f57610399565b806320959ed01161033b578063330b8f2611610315578063330b8f261461053a57806338a512d91461056c5780633f87a2f41461059c578063468d0c80146105cf57610399565b806320959ed0146104ba57806327a568b9146104ea57806329b56f601461051c57610399565b806313bf4cea1161037757806313bf4cea1461041c5780631b592aeb1461043a5780631ba44c4c146104585780631e9ac9f51461048a57610399565b80630377d44a1461039e5780631171b621146103ce578063131d44f2146103ec575b600080fd5b6103b860048036038101906103b391906138fa565b610d0d565b6040516103c59190613a84565b60405180910390f35b6103d6610e97565b6040516103e39190613abf565b60405180910390f35b61040660048036038101906104019190613b06565b610e9d565b6040516104139190613a84565b60405180910390f35b61042461100c565b6040516104319190613abf565b60405180910390f35b610442611012565b60405161044f9190613abf565b60405180910390f35b610472600480360381019061046d9190613b06565b611018565b60405161048193929190613b33565b60405180910390f35b6104a4600480360381019061049f91906138fa565b611042565b6040516104b19190613abf565b60405180910390f35b6104d460048036038101906104cf9190613b06565b6110b3565b6040516104e19190613abf565b60405180910390f35b61050460048036038101906104ff9190613b06565b6110cb565b60405161051393929190613bb4565b60405180910390f35b61052461128d565b6040516105319190613a84565b60405180910390f35b610554600480360381019061054f9190613b06565b6113c8565b60405161056393929190613c00565b60405180910390f35b61058660048036038101906105819190613b06565b61147a565b6040516105939190613c3e565b60405180910390f35b6105b660048036038101906105b19190613b06565b611544565b6040516105c69493929190613c60565b60405180910390f35b6105e960048036038101906105e49190613b06565b6115fc565b6040516105f893929190613cac565b60405180910390f35b6106096116ae565b6040516106169190613abf565b60405180910390f35b61063960048036038101906106349190613cea565b6116b4565b6040516106469190613a84565b60405180910390f35b61066960048036038101906106649190613b06565b6117c6565b6040516106799493929190613d2a565b60405180910390f35b61069c60048036038101906106979190613d7d565b611906565b005b6106b860048036038101906106b39190613e30565b611aaa565b005b6106d460048036038101906106cf9190613b06565b611b93565b6040516106e19190613c3e565b60405180910390f35b61070460048036038101906106ff9190613b06565b611c3b565b6040516107119190613c3e565b60405180910390f35b610734600480360381019061072f9190613ecf565b611cdb565b6040516107419190613abf565b60405180910390f35b610764600480360381019061075f9190613cea565b611dac565b6040516107719190613f89565b60405180910390f35b610782611e26565b60405161078f9190613abf565b60405180910390f35b6107b260048036038101906107ad9190613b06565b611e2c565b6040516107c0929190613fa4565b60405180910390f35b6107e360048036038101906107de9190613b06565b611f60565b6040516107f293929190613b33565b60405180910390f35b61081560048036038101906108109190613b06565b611f8a565b6040516108229190614099565b60405180910390f35b61084560048036038101906108409190613b06565b61206d565b6040516108529190614099565b60405180910390f35b61087560048036038101906108709190613b06565b612150565b005b610891600480360381019061088c91906140bb565b6121c1565b60405161089e9190613abf565b60405180910390f35b6108c160048036038101906108bc9190614176565b6122e1565b005b6108dd60048036038101906108d891906141d2565b612306565b005b6108e7612353565b6040516108f49190613abf565b60405180910390f35b61091760048036038101906109129190613b06565b612359565b6040516109249190613c3e565b60405180910390f35b610935612401565b6040516109429190613abf565b60405180910390f35b6109656004803603810190610960919061425d565b612407565b6040516109729190613abf565b60405180910390f35b61098361249b565b6040516109909190613a84565b60405180910390f35b6109b360048036038101906109ae91906138fa565b6125d6565b6040516109c09190613abf565b60405180910390f35b6109e360048036038101906109de9190613b06565b612647565b6040516109f8999897969594939291906142e0565b60405180910390f35b610a096126fd565b604051610a169190613abf565b60405180910390f35b610a396004803603810190610a3491906138fa565b612703565b604051610a469190613abf565b60405180910390f35b610a5761278a565b005b610a736004803603810190610a6e919061436d565b612a3c565b604051610a809190613abf565b60405180910390f35b610aa36004803603810190610a9e9190613b06565b612b2a565b604051610ab39493929190613d2a565b60405180910390f35b610ad66004803603810190610ad19190613cea565b612c6a565b604051610ae39190613abf565b60405180910390f35b610b066004803603810190610b019190614428565b612ce4565b005b610b226004803603810190610b1d9190614176565b612d7b565b005b610b2c612da3565b604051610b399190613a84565b60405180910390f35b610b5c6004803603810190610b579190614176565b612edd565b005b610b66612f05565b604051610b739190613abf565b60405180910390f35b610b966004803603810190610b919190613b06565b612f0b565b604051610ba69493929190613c60565b60405180910390f35b610bc96004803603810190610bc49190614176565b612fc3565b604051610bd69190613f89565b60405180910390f35b610be7613054565b604051610bf49190613abf565b60405180910390f35b610c176004803603810190610c1291906144a0565b61305a565b604051610c249190613abf565b60405180910390f35b610c476004803603810190610c429190614609565b61311f565b604051610c549190613abf565b60405180910390f35b610c776004803603810190610c729190613b06565b613274565b604051610c849190613c3e565b60405180910390f35b610c9561331c565b604051610ca29190613abf565b60405180910390f35b610cc56004803603810190610cc09190614704565b613322565b604051610cd29190613abf565b60405180910390f35b610cf56004803603810190610cf09190613b06565b613410565b604051610d0493929190613c00565b60405180910390f35b6060600060025467ffffffffffffffff811115610d2d57610d2c6137cf565b5b604051908082528060200260200182016040528015610d6057816020015b6060815260200190600190039081610d4b5790505b509050600080600090505b600254811015610e8c578480519060200120600e6000838152602001908152602001600020600001604051610da0919061489e565b604051809103902003610e7957600e60008281526020019081526020016000206001018054610dce906147ca565b80601f0160208091040260200160405190810160405280929190818152602001828054610dfa906147ca565b8015610e475780601f10610e1c57610100808354040283529160200191610e47565b820191906000526020600020905b815481529060010190602001808311610e2a57829003601f168201915b5050505050838381518110610e5f57610e5e6148b5565b5b60200260200101819052508180610e7590614913565b9250505b8080610e8490614913565b915050610d6b565b508192505050919050565b60045481565b6060600060035467ffffffffffffffff811115610ebd57610ebc6137cf565b5b604051908082528060200260200182016040528015610ef057816020015b6060815260200190600190039081610edb5790505b509050600080600090505b6003548110156110015784600f60008381526020019081526020016000206000015403610fe057600f60008281526020019081526020016000206001018054610f43906147ca565b80601f0160208091040260200160405190810160405280929190818152602001828054610f6f906147ca565b8015610fbc5780601f10610f9157610100808354040283529160200191610fbc565b820191906000526020600020905b815481529060010190602001808311610f9f57829003601f168201915b5050505050838381518110610fd457610fd36148b5565b5b60200260200101819052505b8180610feb90614913565b9250508080610ff990614913565b915050610efb565b508192505050919050565b60025481565b60055481565b60146020528060005260406000206000915090508060000154908060010154908060020154905083565b600080600090505b6002548110156110a8578280519060200120600e600083815260200190815260200160002060010160405161107f919061489e565b60405180910390200361109557809150506110ae565b80806110a090614913565b91505061104a565b50600090505b919050565b60106020528060005260406000206000915090505481565b600b6020528060005260406000206000915090508060000180546110ee906147ca565b80601f016020809104026020016040519081016040528092919081815260200182805461111a906147ca565b80156111675780601f1061113c57610100808354040283529160200191611167565b820191906000526020600020905b81548152906001019060200180831161114a57829003601f168201915b50505050509080600101805461117c906147ca565b80601f01602080910402602001604051908101604052809291908181526020018280546111a8906147ca565b80156111f55780601f106111ca576101008083540402835291602001916111f5565b820191906000526020600020905b8154815290600101906020018083116111d857829003601f168201915b50505050509080600201805461120a906147ca565b80601f0160208091040260200160405190810160405280929190818152602001828054611236906147ca565b80156112835780601f1061125857610100808354040283529160200191611283565b820191906000526020600020905b81548152906001019060200180831161126657829003601f168201915b5050505050905083565b6060600060025467ffffffffffffffff8111156112ad576112ac6137cf565b5b6040519080825280602002602001820160405280156112e057816020015b60608152602001906001900390816112cb5790505b50905060005b6002548110156113c057600e60008281526020019081526020016000206001018054611311906147ca565b80601f016020809104026020016040519081016040528092919081815260200182805461133d906147ca565b801561138a5780601f1061135f5761010080835404028352916020019161138a565b820191906000526020600020905b81548152906001019060200180831161136d57829003601f168201915b50505050508282815181106113a2576113a16148b5565b5b602002602001018190525080806113b890614913565b9150506112e6565b508091505090565b600d6020528060005260406000206000915090508060000154908060010154908060020180546113f7906147ca565b80601f0160208091040260200160405190810160405280929190818152602001828054611423906147ca565b80156114705780601f1061144557610100808354040283529160200191611470565b820191906000526020600020905b81548152906001019060200180831161145357829003601f168201915b5050505050905083565b60606000600f60008481526020019081526020016000206000015490506000600e600083815260200190815260200160002060000180546114ba906147ca565b80601f01602080910402602001604051908101604052809291908181526020018280546114e6906147ca565b80156115335780601f1061150857610100808354040283529160200191611533565b820191906000526020600020905b81548152906001019060200180831161151657829003601f168201915b505050505090508092505050919050565b6017602052806000526040600020600091509050806000015490806001015490806002015490806003018054611579906147ca565b80601f01602080910402602001604051908101604052809291908181526020018280546115a5906147ca565b80156115f25780601f106115c7576101008083540402835291602001916115f2565b820191906000526020600020905b8154815290600101906020018083116115d557829003601f168201915b5050505050905084565b600f602052806000526040600020600091509050806000015490806001018054611625906147ca565b80601f0160208091040260200160405190810160405280929190818152602001828054611651906147ca565b801561169e5780601f106116735761010080835404028352916020019161169e565b820191906000526020600020905b81548152906001019060200180831161168157829003601f168201915b5050505050908060020154905083565b60065481565b6060600060065467ffffffffffffffff8111156116d4576116d36137cf565b5b60405190808252806020026020018201604052801561170757816020015b60608152602001906001900390816116f25790505b509050600080600090505b6006548110156117ba578560146000838152602001908152602001600020600001541480156117565750846014600083815260200190815260200160002060010154145b156117995761177a60146000838152602001908152602001600020600201546134c2565b83838151811061178d5761178c6148b5565b5b60200260200101819052505b81806117a490614913565b92505080806117b290614913565b915050611712565b50819250505092915050565b60116020528060005260406000206000915090508060000154908060010154908060020180546117f5906147ca565b80601f0160208091040260200160405190810160405280929190818152602001828054611821906147ca565b801561186e5780601f106118435761010080835404028352916020019161186e565b820191906000526020600020905b81548152906001019060200180831161185157829003601f168201915b505050505090806003018054611883906147ca565b80601f01602080910402602001604051908101604052809291908181526020018280546118af906147ca565b80156118fc5780601f106118d1576101008083540402835291602001916118fc565b820191906000526020600020905b8154815290600101906020018083116118df57829003601f168201915b5050505050905084565b600015156018600085815260200190815260200160002060010160059054906101000a900460ff1615150361197557611974826040518060400160405280600581526020017f6261646765000000000000000000000000000000000000000000000000000000815250612ce4565b5b6119b4816040518060400160405280600881526020017f646f6e6174696f6e000000000000000000000000000000000000000000000000815250612ce4565b60016018600085815260200190815260200160002060010160056101000a81548160ff02191690831515021790555083600f60008781526020019081526020016000206002016000828254611a09919061495b565b9250508190555083601060008581526020019081526020016000206000828254611a33919061495b565b9250508190555060405180606001604052808681526020018481526020018581525060126000600154815260200190815260200160002060008201518160000155602082015181600101556040820151816002015590505060016000815480929190611a9e90614913565b91905055505050505050565b60016018600085815260200190815260200160002060010160016101000a81548160ff021916908315150217905550604051806060016040528085815260200184815260200183815250600d6000600454815260200190815260200160002060008201518160000155602082015181600101556040820151816002019081611b329190614b3b565b5090505060046000815480929190611b4990614913565b9190505550611b8d816040518060400160405280600481526020017f6a6f696e00000000000000000000000000000000000000000000000000000000815250612ce4565b50505050565b6060600b60008381526020019081526020016000206001018054611bb6906147ca565b80601f0160208091040260200160405190810160405280929190818152602001828054611be2906147ca565b8015611c2f5780601f10611c0457610100808354040283529160200191611c2f565b820191906000526020600020905b815481529060010190602001808311611c1257829003601f168201915b50505050509050919050565b600c6020528060005260406000206000915090508054611c5a906147ca565b80601f0160208091040260200160405190810160405280929190818152602001828054611c86906147ca565b8015611cd35780601f10611ca857610100808354040283529160200191611cd3565b820191906000526020600020905b815481529060010190602001808311611cb657829003601f168201915b505050505081565b600060016018600084815260200190815260200160002060010160066101000a81548160ff021916908315150217905550604051806080016040528060075481526020018681526020018581526020018481525060156000600754815260200190815260200160002060008201518160000155602082015181600101556040820151816002019081611d6d9190614b3b565b506060820151816003019081611d839190614b3b565b5090505060076000815480929190611d9a90614913565b91905055506007549050949350505050565b600080600090505b600454811015611e1a5782600d600083815260200190815260200160002060010154148015611df8575083600d600083815260200190815260200160002060000154145b15611e07576001915050611e20565b8080611e1290614913565b915050611db4565b50600090505b92915050565b60005481565b600e602052806000526040600020600091509050806000018054611e4f906147ca565b80601f0160208091040260200160405190810160405280929190818152602001828054611e7b906147ca565b8015611ec85780601f10611e9d57610100808354040283529160200191611ec8565b820191906000526020600020905b815481529060010190602001808311611eab57829003601f168201915b505050505090806001018054611edd906147ca565b80601f0160208091040260200160405190810160405280929190818152602001828054611f09906147ca565b8015611f565780601f10611f2b57610100808354040283529160200191611f56565b820191906000526020600020905b815481529060010190602001808311611f3957829003601f168201915b5050505050905082565b60126020528060005260406000206000915090508060000154908060010154908060020154905083565b6060600060075467ffffffffffffffff811115611faa57611fa96137cf565b5b604051908082528060200260200182016040528015611fd85781602001602082028036833780820191505090505b509050600080600090505b600754811015612062578460156000838152602001908152602001600020600101540361204f576015600082815260200190815260200160002060000154838381518110612034576120336148b5565b5b602002602001018181525050818061204b90614913565b9250505b808061205a90614913565b915050611fe3565b508192505050919050565b6060600060095467ffffffffffffffff81111561208d5761208c6137cf565b5b6040519080825280602002602001820160405280156120bb5781602001602082028036833780820191505090505b509050600080600090505b6009548110156121455784601760008381526020019081526020016000206001015403612132576017600082815260200190815260200160002060000154838381518110612117576121166148b5565b5b602002602001018181525050818061212e90614913565b9250505b808061213d90614913565b9150506120c6565b508192505050919050565b604051806060016040528061270f815260200161270f815260200160405180602001604052806000815250815250600d6000838152602001908152602001600020600082015181600001556020820151816001015560408201518160020190816121ba9190614b3b565b5090505050565b600060405180606001604052808681526020018581526020016040518060400160405280600581526020017f46616c7365000000000000000000000000000000000000000000000000000000815250815250600b600080548152602001908152602001600020600082015181600001908161223c9190614b3b565b5060208201518160010190816122529190614b3b565b5060408201518160020190816122689190614b3b565b5090505082600c600080548152602001908152602001600020908161228d9190614b3b565b5060016018600084815260200190815260200160002060010160006101000a81548160ff0219169083151502179055506000808154809291906122cf90614913565b91905055506000549050949350505050565b80600c600084815260200190815260200160002090816123019190614b3b565b505050565b81600b600085815260200190815260200160002060000190816123299190614b3b565b5080600b6000858152602001908152602001600020600101908161234d9190614b3b565b50505050565b600a5481565b6060600f6000838152602001908152602001600020600101805461237c906147ca565b80601f01602080910402602001604051908101604052809291908181526020018280546123a8906147ca565b80156123f55780601f106123ca576101008083540402835291602001916123f5565b820191906000526020600020905b8154815290600101906020018083116123d857829003601f168201915b50505050509050919050565b60075481565b600060405180608001604052808681526020018581526020018481526020018381525060166000600854815260200190815260200160002060008201518160000155602082015181600101556040820151816002015560608201518160030190816124729190614b3b565b509050506008600081548092919061248990614913565b91905055506008549050949350505050565b6060600060035467ffffffffffffffff8111156124bb576124ba6137cf565b5b6040519080825280602002602001820160405280156124ee57816020015b60608152602001906001900390816124d95790505b50905060005b6003548110156125ce57600f6000828152602001908152602001600020600101805461251f906147ca565b80601f016020809104026020016040519081016040528092919081815260200182805461254b906147ca565b80156125985780601f1061256d57610100808354040283529160200191612598565b820191906000526020600020905b81548152906001019060200180831161257b57829003601f168201915b50505050508282815181106125b0576125af6148b5565b5b602002602001018190525080806125c690614913565b9150506124f4565b508091505090565b600080600090505b60035481101561263c578280519060200120600f6000838152602001908152602001600020600101604051612613919061489e565b6040518091039020036126295780915050612642565b808061263490614913565b9150506125de565b50600090505b919050565b60186020528060005260406000206000915090508060000154908060010160009054906101000a900460ff16908060010160019054906101000a900460ff16908060010160029054906101000a900460ff16908060010160039054906101000a900460ff16908060010160049054906101000a900460ff16908060010160059054906101000a900460ff16908060010160069054906101000a900460ff16908060010160079054906101000a900460ff16905089565b60095481565b600080600090505b60035481101561277f578280519060200120600f6000838152602001908152602001600020600101604051612740919061489e565b60405180910390200361276c57600f600082815260200190815260200160002060000154915050612785565b808061277790614913565b91505061270b565b50600090505b919050565b60005b6000548110156127f057600b6000828152602001908152602001600020600080820160006127bb9190613743565b6001820160006127cb9190613743565b6002820160006127db9190613743565b505080806127e890614913565b91505061278d565b5060005b60025481101561284757600e6000828152602001908152602001600020600080820160006128229190613743565b6001820160006128329190613743565b5050808061283f90614913565b9150506127f4565b5060005b60035481101561289e57600f60008281526020019081526020016000206000808201600090556001820160006128819190613743565b60028201600090555050808061289690614913565b91505061284b565b5060005b6002548110156128f5576013600082815260200190815260200160002060008082016000905560018201600090556002820160006128e09190613743565b505080806128ed90614913565b9150506128a2565b5060005b60075481101561295c576015600082815260200190815260200160002060008082016000905560018201600090556002820160006129379190613743565b6003820160006129479190613743565b5050808061295490614913565b9150506128f9565b5060005b6009548110156129bb5760176000828152602001908152602001600020600080820160009055600182016000905560028201600090556003820160006129a69190613743565b505080806129b390614913565b915050612960565b5060005b600654811015612a0a57601460008281526020019081526020016000206000808201600090556001820160009055600282016000905550508080612a0290614913565b9150506129bf565b506000808190555060006002819055506000600381905550600060078190555060006009819055506000600681905550565b6000604051806040016040528085815260200186815250600e600060025481526020019081526020016000206000820151816000019081612a7d9190614b3b565b506020820151816001019081612a939190614b3b565b5090505060016018600085815260200190815260200160002060010160026101000a81548160ff02191690831515021790555060026000815480929190612ad990614913565b9190505550612b1d826040518060400160405280600481526020017f676f616c00000000000000000000000000000000000000000000000000000000815250612ce4565b6002549050949350505050565b6015602052806000526040600020600091509050806000015490806001015490806002018054612b59906147ca565b80601f0160208091040260200160405190810160405280929190818152602001828054612b85906147ca565b8015612bd25780601f10612ba757610100808354040283529160200191612bd2565b820191906000526020600020905b815481529060010190602001808311612bb557829003601f168201915b505050505090806003018054612be7906147ca565b80601f0160208091040260200160405190810160405280929190818152602001828054612c13906147ca565b8015612c605780601f10612c3557610100808354040283529160200191612c60565b820191906000526020600020905b815481529060010190602001808311612c4357829003601f168201915b5050505050905084565b600080600090505b600454811015612cd75782600d600083815260200190815260200160002060010154148015612cb6575083600d600083815260200190815260200160002060000154145b15612cc45780915050612cde565b8080612ccf90614913565b915050612c72565b5061270f90505b92915050565b6040518060800160405280600a5481526020014281526020018281526020018381525060116000600a54815260200190815260200160002060008201518160000155602082015181600101556040820151816002019081612d459190614b3b565b506060820151816003019081612d5b9190614b3b565b50905050600a6000815480929190612d7290614913565b91905055505050565b80600f60008481526020019081526020016000206001019081612d9e9190614b3b565b505050565b60606000805467ffffffffffffffff811115612dc257612dc16137cf565b5b604051908082528060200260200182016040528015612df557816020015b6060815260200190600190039081612de05790505b50905060005b600054811015612ed557600b60008281526020019081526020016000206001018054612e26906147ca565b80601f0160208091040260200160405190810160405280929190818152602001828054612e52906147ca565b8015612e9f5780601f10612e7457610100808354040283529160200191612e9f565b820191906000526020600020905b815481529060010190602001808311612e8257829003601f168201915b5050505050828281518110612eb757612eb66148b5565b5b60200260200101819052508080612ecd90614913565b915050612dfb565b508091505090565b80600e60008481526020019081526020016000206001019081612f009190614b3b565b505050565b60085481565b6016602052806000526040600020600091509050806000015490806001015490806002015490806003018054612f40906147ca565b80601f0160208091040260200160405190810160405280929190818152602001828054612f6c906147ca565b8015612fb95780601f10612f8e57610100808354040283529160200191612fb9565b820191906000526020600020905b815481529060010190602001808311612f9c57829003601f168201915b5050505050905084565b6000806000905060005b6008548110156130495784601660008381526020019081526020016000206000015414801561302c57506016600082815260200190815260200160002060030160405161301a919061489e565b60405180910390208480519060200120145b1561303657600191505b808061304190614913565b915050612fcd565b508091505092915050565b60035481565b600060016018600084815260200190815260200160002060010160076101000a81548160ff021916908315150217905550604051806080016040528060095481526020018681526020018481526020018581525060176000600954815260200190815260200160002060008201518160000155602082015181600101556040820151816002015560608201518160030190816130f69190614b3b565b509050506009600081548092919061310d90614913565b91905055506009549050949350505050565b600060405180606001604052808681526020018781526020016000815250600f600060035481526020019081526020016000206000820151816000015560208201518160010190816131719190614b3b565b506040820151816002015590505060016018600085815260200190815260200160002060010160036101000a81548160ff021916908315150217905550600360008154809291906131c190614913565b919050555060005b8451811015613226576131fb6003546005548784815181106131ee576131ed6148b5565b5b6020026020010151613590565b6005600081548092919061320e90614913565b9190505550808061321e90614913565b9150506131c9565b50613266826040518060400160405280600481526020017f6964656100000000000000000000000000000000000000000000000000000000815250612ce4565b600354905095945050505050565b6060600e60008381526020019081526020016000206001018054613297906147ca565b80601f01602080910402602001604051908101604052809291908181526020018280546132c3906147ca565b80156133105780601f106132e557610100808354040283529160200191613310565b820191906000526020600020905b8154815290600101906020018083116132f357829003601f168201915b50505050509050919050565b60015481565b600060016018600086815260200190815260200160002060010160046101000a81548160ff021916908315150217905550604051806060016040528087815260200186815260200185815250601460006006548152602001908152602001600020600082015181600001556020820151816001015560408201518160020155905050600660008154809291906133b790614913565b9190505550811561340257613401836040518060400160405280600481526020017f766f746500000000000000000000000000000000000000000000000000000000815250612ce4565b5b600654905095945050505050565b601360205280600052604060002060009150905080600001549080600101549080600201805461343f906147ca565b80601f016020809104026020016040519081016040528092919081815260200182805461346b906147ca565b80156134b85780601f1061348d576101008083540402835291602001916134b8565b820191906000526020600020905b81548152906001019060200180831161349b57829003601f168201915b5050505050905083565b6060600060016134d1846135f0565b01905060008167ffffffffffffffff8111156134f0576134ef6137cf565b5b6040519080825280601f01601f1916602001820160405280156135225781602001600182028036833780820191505090505b509050600082602001820190505b600115613585578080600190039150507f3031323334353637383961626364656600000000000000000000000000000000600a86061a8153600a858161357957613578614c0d565b5b04945060008503613530575b819350505050919050565b60405180606001604052808481526020018381526020018281525060136000848152602001908152602001600020600082015181600001556020820151816001015560408201518160020190816135e79190614b3b565b50905050505050565b600080600090507a184f03e93ff9f4daa797ed6e38ed64bf6a1f010000000000000000831061364e577a184f03e93ff9f4daa797ed6e38ed64bf6a1f010000000000000000838161364457613643614c0d565b5b0492506040810190505b6d04ee2d6d415b85acef8100000000831061368b576d04ee2d6d415b85acef8100000000838161368157613680614c0d565b5b0492506020810190505b662386f26fc1000083106136ba57662386f26fc1000083816136b0576136af614c0d565b5b0492506010810190505b6305f5e10083106136e3576305f5e10083816136d9576136d8614c0d565b5b0492506008810190505b61271083106137085761271083816136fe576136fd614c0d565b5b0492506004810190505b6064831061372b576064838161372157613720614c0d565b5b0492506002810190505b600a831061373a576001810190505b80915050919050565b50805461374f906147ca565b6000825580601f106137615750613780565b601f01602090049060005260206000209081019061377f9190613783565b5b50565b5b8082111561379c576000816000905550600101613784565b5090565b6000604051905090565b600080fd5b600080fd5b600080fd5b600080fd5b6000601f19601f8301169050919050565b7f4e487b7100000000000000000000000000000000000000000000000000000000600052604160045260246000fd5b613807826137be565b810181811067ffffffffffffffff82111715613826576138256137cf565b5b80604052505050565b60006138396137a0565b905061384582826137fe565b919050565b600067ffffffffffffffff821115613865576138646137cf565b5b61386e826137be565b9050602081019050919050565b82818337600083830152505050565b600061389d6138988461384a565b61382f565b9050828152602081018484840111156138b9576138b86137b9565b5b6138c484828561387b565b509392505050565b600082601f8301126138e1576138e06137b4565b5b81356138f184826020860161388a565b91505092915050565b6000602082840312156139105761390f6137aa565b5b600082013567ffffffffffffffff81111561392e5761392d6137af565b5b61393a848285016138cc565b91505092915050565b600081519050919050565b600082825260208201905092915050565b6000819050602082019050919050565b600081519050919050565b600082825260208201905092915050565b60005b838110156139a957808201518184015260208101905061398e565b60008484015250505050565b60006139c08261396f565b6139ca818561397a565b93506139da81856020860161398b565b6139e3816137be565b840191505092915050565b60006139fa83836139b5565b905092915050565b6000602082019050919050565b6000613a1a82613943565b613a24818561394e565b935083602082028501613a368561395f565b8060005b85811015613a725784840389528151613a5385826139ee565b9450613a5e83613a02565b925060208a01995050600181019050613a3a565b50829750879550505050505092915050565b60006020820190508181036000830152613a9e8184613a0f565b905092915050565b6000819050919050565b613ab981613aa6565b82525050565b6000602082019050613ad46000830184613ab0565b92915050565b613ae381613aa6565b8114613aee57600080fd5b50565b600081359050613b0081613ada565b92915050565b600060208284031215613b1c57613b1b6137aa565b5b6000613b2a84828501613af1565b91505092915050565b6000606082019050613b486000830186613ab0565b613b556020830185613ab0565b613b626040830184613ab0565b949350505050565b600082825260208201905092915050565b6000613b868261396f565b613b908185613b6a565b9350613ba081856020860161398b565b613ba9816137be565b840191505092915050565b60006060820190508181036000830152613bce8186613b7b565b90508181036020830152613be28185613b7b565b90508181036040830152613bf68184613b7b565b9050949350505050565b6000606082019050613c156000830186613ab0565b613c226020830185613ab0565b8181036040830152613c348184613b7b565b9050949350505050565b60006020820190508181036000830152613c588184613b7b565b905092915050565b6000608082019050613c756000830187613ab0565b613c826020830186613ab0565b613c8f6040830185613ab0565b8181036060830152613ca18184613b7b565b905095945050505050565b6000606082019050613cc16000830186613ab0565b8181036020830152613cd38185613b7b565b9050613ce26040830184613ab0565b949350505050565b60008060408385031215613d0157613d006137aa565b5b6000613d0f85828601613af1565b9250506020613d2085828601613af1565b9150509250929050565b6000608082019050613d3f6000830187613ab0565b613d4c6020830186613ab0565b8181036040830152613d5e8185613b7b565b90508181036060830152613d728184613b7b565b905095945050505050565b600080600080600060a08688031215613d9957613d986137aa565b5b6000613da788828901613af1565b9550506020613db888828901613af1565b9450506040613dc988828901613af1565b935050606086013567ffffffffffffffff811115613dea57613de96137af565b5b613df6888289016138cc565b925050608086013567ffffffffffffffff811115613e1757613e166137af565b5b613e23888289016138cc565b9150509295509295909350565b60008060008060808587031215613e4a57613e496137aa565b5b6000613e5887828801613af1565b9450506020613e6987828801613af1565b935050604085013567ffffffffffffffff811115613e8a57613e896137af565b5b613e96878288016138cc565b925050606085013567ffffffffffffffff811115613eb757613eb66137af565b5b613ec3878288016138cc565b91505092959194509250565b60008060008060808587031215613ee957613ee86137aa565b5b6000613ef787828801613af1565b945050602085013567ffffffffffffffff811115613f1857613f176137af565b5b613f24878288016138cc565b935050604085013567ffffffffffffffff811115613f4557613f446137af565b5b613f51878288016138cc565b9250506060613f6287828801613af1565b91505092959194509250565b60008115159050919050565b613f8381613f6e565b82525050565b6000602082019050613f9e6000830184613f7a565b92915050565b60006040820190508181036000830152613fbe8185613b7b565b90508181036020830152613fd28184613b7b565b90509392505050565b600081519050919050565b600082825260208201905092915050565b6000819050602082019050919050565b61401081613aa6565b82525050565b60006140228383614007565b60208301905092915050565b6000602082019050919050565b600061404682613fdb565b6140508185613fe6565b935061405b83613ff7565b8060005b8381101561408c5781516140738882614016565b975061407e8361402e565b92505060018101905061405f565b5085935050505092915050565b600060208201905081810360008301526140b3818461403b565b905092915050565b600080600080608085870312156140d5576140d46137aa565b5b600085013567ffffffffffffffff8111156140f3576140f26137af565b5b6140ff878288016138cc565b945050602085013567ffffffffffffffff8111156141205761411f6137af565b5b61412c878288016138cc565b935050604085013567ffffffffffffffff81111561414d5761414c6137af565b5b614159878288016138cc565b925050606061416a87828801613af1565b91505092959194509250565b6000806040838503121561418d5761418c6137aa565b5b600061419b85828601613af1565b925050602083013567ffffffffffffffff8111156141bc576141bb6137af565b5b6141c8858286016138cc565b9150509250929050565b6000806000606084860312156141eb576141ea6137aa565b5b60006141f986828701613af1565b935050602084013567ffffffffffffffff81111561421a576142196137af565b5b614226868287016138cc565b925050604084013567ffffffffffffffff811115614247576142466137af565b5b614253868287016138cc565b9150509250925092565b60008060008060808587031215614277576142766137aa565b5b600061428587828801613af1565b945050602061429687828801613af1565b93505060406142a787828801613af1565b925050606085013567ffffffffffffffff8111156142c8576142c76137af565b5b6142d4878288016138cc565b91505092959194509250565b6000610120820190506142f6600083018c613ab0565b614303602083018b613f7a565b614310604083018a613f7a565b61431d6060830189613f7a565b61432a6080830188613f7a565b61433760a0830187613f7a565b61434460c0830186613f7a565b61435160e0830185613f7a565b61435f610100830184613f7a565b9a9950505050505050505050565b60008060008060808587031215614387576143866137aa565b5b600085013567ffffffffffffffff8111156143a5576143a46137af565b5b6143b1878288016138cc565b945050602085013567ffffffffffffffff8111156143d2576143d16137af565b5b6143de878288016138cc565b93505060406143ef87828801613af1565b925050606085013567ffffffffffffffff8111156144105761440f6137af565b5b61441c878288016138cc565b91505092959194509250565b6000806040838503121561443f5761443e6137aa565b5b600083013567ffffffffffffffff81111561445d5761445c6137af565b5b614469858286016138cc565b925050602083013567ffffffffffffffff81111561448a576144896137af565b5b614496858286016138cc565b9150509250929050565b600080600080608085870312156144ba576144b96137aa565b5b60006144c887828801613af1565b945050602085013567ffffffffffffffff8111156144e9576144e86137af565b5b6144f5878288016138cc565b935050604061450687828801613af1565b925050606061451787828801613af1565b91505092959194509250565b600067ffffffffffffffff82111561453e5761453d6137cf565b5b602082029050602081019050919050565b600080fd5b600061456761456284614523565b61382f565b9050808382526020820190506020840283018581111561458a5761458961454f565b5b835b818110156145d157803567ffffffffffffffff8111156145af576145ae6137b4565b5b8086016145bc89826138cc565b8552602085019450505060208101905061458c565b5050509392505050565b600082601f8301126145f0576145ef6137b4565b5b8135614600848260208601614554565b91505092915050565b600080600080600060a08688031215614625576146246137aa565b5b600086013567ffffffffffffffff811115614643576146426137af565b5b61464f888289016138cc565b955050602061466088828901613af1565b945050604086013567ffffffffffffffff811115614681576146806137af565b5b61468d888289016145db565b935050606061469e88828901613af1565b925050608086013567ffffffffffffffff8111156146bf576146be6137af565b5b6146cb888289016138cc565b9150509295509295909350565b6146e181613f6e565b81146146ec57600080fd5b50565b6000813590506146fe816146d8565b92915050565b600080600080600060a086880312156147205761471f6137aa565b5b600061472e88828901613af1565b955050602061473f88828901613af1565b945050604061475088828901613af1565b935050606086013567ffffffffffffffff811115614771576147706137af565b5b61477d888289016138cc565b925050608061478e888289016146ef565b9150509295509295909350565b7f4e487b7100000000000000000000000000000000000000000000000000000000600052602260045260246000fd5b600060028204905060018216806147e257607f821691505b6020821081036147f5576147f461479b565b5b50919050565b600081905092915050565b60008190508160005260206000209050919050565b60008154614828816147ca565b61483281866147fb565b9450600182166000811461484d576001811461486257614895565b60ff1983168652811515820286019350614895565b61486b85614806565b60005b8381101561488d5781548189015260018201915060208101905061486e565b838801955050505b50505092915050565b60006148aa828461481b565b915081905092915050565b7f4e487b7100000000000000000000000000000000000000000000000000000000600052603260045260246000fd5b7f4e487b7100000000000000000000000000000000000000000000000000000000600052601160045260246000fd5b600061491e82613aa6565b91507fffffffffffffffffffffffffffffffffffffffffffffffffffffffffffffffff82036149505761494f6148e4565b5b600182019050919050565b600061496682613aa6565b915061497183613aa6565b9250828201905080821115614989576149886148e4565b5b92915050565b60008190508160005260206000209050919050565b60006020601f8301049050919050565b600082821b905092915050565b6000600883026149f17fffffffffffffffffffffffffffffffffffffffffffffffffffffffffffffffff826149b4565b6149fb86836149b4565b95508019841693508086168417925050509392505050565b6000819050919050565b6000614a38614a33614a2e84613aa6565b614a13565b613aa6565b9050919050565b6000819050919050565b614a5283614a1d565b614a66614a5e82614a3f565b8484546149c1565b825550505050565b600090565b614a7b614a6e565b614a86818484614a49565b505050565b5b81811015614aaa57614a9f600082614a73565b600181019050614a8c565b5050565b601f821115614aef57614ac08161498f565b614ac9846149a4565b81016020851015614ad8578190505b614aec614ae4856149a4565b830182614a8b565b50505b505050565b600082821c905092915050565b6000614b1260001984600802614af4565b1980831691505092915050565b6000614b2b8383614b01565b9150826002028217905092915050565b614b448261396f565b67ffffffffffffffff811115614b5d57614b5c6137cf565b5b614b6782546147ca565b614b72828285614aae565b600060209050601f831160018114614ba55760008415614b93578287015190505b614b9d8582614b1f565b865550614c05565b601f198416614bb38661498f565b60005b82811015614bdb57848901518255600182019150602085019450602081019050614bb6565b86831015614bf85784890151614bf4601f891682614b01565b8355505b6001600288020188555050505b505050505050565b7f4e487b7100000000000000000000000000000000000000000000000000000000600052601260045260246000fdfea264697066735822122068eff59d305b134decf08611f5e1fd53ad858f15627e8abefa8f262f3395e5ff64736f6c63430008110033","opcodes":"PUSH1 0x80 PUSH1 0x40 MSTORE CALLVALUE DUP1 ISZERO PUSH2 0x10 JUMPI PUSH1 0x0 DUP1 REVERT JUMPDEST POP PUSH2 0x4C72 DUP1 PUSH2 0x20 PUSH1 0x0 CODECOPY PUSH1 0x0 RETURN INVALID PUSH1 0x80 PUSH1 0x40 MSTORE CALLVALUE DUP1 ISZERO PUSH2 0x10 JUMPI PUSH1 0x0 DUP1 REVERT JUMPDEST POP PUSH1 0x4 CALLDATASIZE LT PUSH2 0x399 JUMPI PUSH1 0x0 CALLDATALOAD PUSH1 0xE0 SHR DUP1 PUSH4 0x86FFA45B GT PUSH2 0x1E9 JUMPI DUP1 PUSH4 0xB604EFAA GT PUSH2 0x10F JUMPI DUP1 PUSH4 0xCD230809 GT PUSH2 0xAD JUMPI DUP1 PUSH4 0xE32ACC1A GT PUSH2 0x7C JUMPI DUP1 PUSH4 0xE32ACC1A EQ PUSH2 0xC5D JUMPI DUP1 PUSH4 0xEC245802 EQ PUSH2 0xC8D JUMPI DUP1 PUSH4 0xECDE3243 EQ PUSH2 0xCAB JUMPI DUP1 PUSH4 0xFF4A37EF EQ PUSH2 0xCDB JUMPI PUSH2 0x399 JUMP JUMPDEST DUP1 PUSH4 0xCD230809 EQ PUSH2 0xBAF JUMPI DUP1 PUSH4 0xD3791B20 EQ PUSH2 0xBDF JUMPI DUP1 PUSH4 0xD9FC52DB EQ PUSH2 0xBFD JUMPI DUP1 PUSH4 0xE1B011A0 EQ PUSH2 0xC2D JUMPI PUSH2 0x399 JUMP JUMPDEST DUP1 PUSH4 0xC04FE978 GT PUSH2 0xE9 JUMPI DUP1 PUSH4 0xC04FE978 EQ PUSH2 0xB24 JUMPI DUP1 PUSH4 0xC29595C5 EQ PUSH2 0xB42 JUMPI DUP1 PUSH4 0xCA013F17 EQ PUSH2 0xB5E JUMPI DUP1 PUSH4 0xCACE8D46 EQ PUSH2 0xB7C JUMPI PUSH2 0x399 JUMP JUMPDEST DUP1 PUSH4 0xB604EFAA EQ PUSH2 0xABC JUMPI DUP1 PUSH4 0xBDA00335 EQ PUSH2 0xAEC JUMPI DUP1 PUSH4 0xC04E7430 EQ PUSH2 0xB08 JUMPI PUSH2 0x399 JUMP JUMPDEST DUP1 PUSH4 0x97EE7606 GT PUSH2 0x187 JUMPI DUP1 PUSH4 0xAA4CDF2A GT PUSH2 0x156 JUMPI DUP1 PUSH4 0xAA4CDF2A EQ PUSH2 0xA1F JUMPI DUP1 PUSH4 0xB16060A6 EQ PUSH2 0xA4F JUMPI DUP1 PUSH4 0xB39A38BD EQ PUSH2 0xA59 JUMPI DUP1 PUSH4 0xB527D45E EQ PUSH2 0xA89 JUMPI PUSH2 0x399 JUMP JUMPDEST DUP1 PUSH4 0x97EE7606 EQ PUSH2 0x97B JUMPI DUP1 PUSH4 0xA1CA9178 EQ PUSH2 0x999 JUMPI DUP1 PUSH4 0xA428A47F EQ PUSH2 0x9C9 JUMPI DUP1 PUSH4 0xAA2BF5D3 EQ PUSH2 0xA01 JUMPI PUSH2 0x399 JUMP JUMPDEST DUP1 PUSH4 0x8AC4110C GT PUSH2 0x1C3 JUMPI DUP1 PUSH4 0x8AC4110C EQ PUSH2 0x8DF JUMPI DUP1 PUSH4 0x8D3D2595 EQ PUSH2 0x8FD JUMPI DUP1 PUSH4 0x9077007D EQ PUSH2 0x92D JUMPI DUP1 PUSH4 0x934C5F00 EQ PUSH2 0x94B JUMPI PUSH2 0x399 JUMP JUMPDEST DUP1 PUSH4 0x86FFA45B EQ PUSH2 0x877 JUMPI DUP1 PUSH4 0x87633EB2 EQ PUSH2 0x8A7 JUMPI DUP1 PUSH4 0x881DE858 EQ PUSH2 0x8C3 JUMPI PUSH2 0x399 JUMP JUMPDEST DUP1 PUSH4 0x4A797BD7 GT PUSH2 0x2CE JUMPI DUP1 PUSH4 0x787F19C7 GT PUSH2 0x26C JUMPI DUP1 PUSH4 0x7FC543EC GT PUSH2 0x23B JUMPI DUP1 PUSH4 0x7FC543EC EQ PUSH2 0x7C9 JUMPI DUP1 PUSH4 0x803F5B9F EQ PUSH2 0x7FB JUMPI DUP1 PUSH4 0x812FAE1F EQ PUSH2 0x82B JUMPI DUP1 PUSH4 0x826EEEFE EQ PUSH2 0x85B JUMPI PUSH2 0x399 JUMP JUMPDEST DUP1 PUSH4 0x787F19C7 EQ PUSH2 0x71A JUMPI DUP1 PUSH4 0x7A82B1D6 EQ PUSH2 0x74A JUMPI DUP1 PUSH4 0x7BBD582D EQ PUSH2 0x77A JUMPI DUP1 PUSH4 0x7F2035D4 EQ PUSH2 0x798 JUMPI PUSH2 0x399 JUMP JUMPDEST DUP1 PUSH4 0x5996278F GT PUSH2 0x2A8 JUMPI DUP1 PUSH4 0x5996278F EQ PUSH2 0x682 JUMPI DUP1 PUSH4 0x5CD844C9 EQ PUSH2 0x69E JUMPI DUP1 PUSH4 0x5D907DA1 EQ PUSH2 0x6BA JUMPI DUP1 PUSH4 0x6ECDA4EE EQ PUSH2 0x6EA JUMPI PUSH2 0x399 JUMP JUMPDEST DUP1 PUSH4 0x4A797BD7 EQ PUSH2 0x601 JUMPI DUP1 PUSH4 0x4BE7ADB5 EQ PUSH2 0x61F JUMPI DUP1 PUSH4 0x54A9FB18 EQ PUSH2 0x64F JUMPI PUSH2 0x399 JUMP JUMPDEST DUP1 PUSH4 0x20959ED0 GT PUSH2 0x33B JUMPI DUP1 PUSH4 0x330B8F26 GT PUSH2 0x315 JUMPI DUP1 PUSH4 0x330B8F26 EQ PUSH2 0x53A JUMPI DUP1 PUSH4 0x38A512D9 EQ PUSH2 0x56C JUMPI DUP1 PUSH4 0x3F87A2F4 EQ PUSH2 0x59C JUMPI DUP1 PUSH4 0x468D0C80 EQ PUSH2 0x5CF JUMPI PUSH2 0x399 JUMP JUMPDEST DUP1 PUSH4 0x20959ED0 EQ PUSH2 0x4BA JUMPI DUP1 PUSH4 0x27A568B9 EQ PUSH2 0x4EA JUMPI DUP1 PUSH4 0x29B56F60 EQ PUSH2 0x51C JUMPI PUSH2 0x399 JUMP JUMPDEST DUP1 PUSH4 0x13BF4CEA GT PUSH2 0x377 JUMPI DUP1 PUSH4 0x13BF4CEA EQ PUSH2 0x41C JUMPI DUP1 PUSH4 0x1B592AEB EQ PUSH2 0x43A JUMPI DUP1 PUSH4 0x1BA44C4C EQ PUSH2 0x458 JUMPI DUP1 PUSH4 0x1E9AC9F5 EQ PUSH2 0x48A JUMPI PUSH2 0x399 JUMP JUMPDEST DUP1 PUSH4 0x377D44A EQ PUSH2 0x39E JUMPI DUP1 PUSH4 0x1171B621 EQ PUSH2 0x3CE JUMPI DUP1 PUSH4 0x131D44F2 EQ PUSH2 0x3EC JUMPI JUMPDEST PUSH1 0x0 DUP1 REVERT JUMPDEST PUSH2 0x3B8 PUSH1 0x4 DUP1 CALLDATASIZE SUB DUP2 ADD SWAP1 PUSH2 0x3B3 SWAP2 SWAP1 PUSH2 0x38FA JUMP JUMPDEST PUSH2 0xD0D JUMP JUMPDEST PUSH1 0x40 MLOAD PUSH2 0x3C5 SWAP2 SWAP1 PUSH2 0x3A84 JUMP JUMPDEST PUSH1 0x40 MLOAD DUP1 SWAP2 SUB SWAP1 RETURN JUMPDEST PUSH2 0x3D6 PUSH2 0xE97 JUMP JUMPDEST PUSH1 0x40 MLOAD PUSH2 0x3E3 SWAP2 SWAP1 PUSH2 0x3ABF JUMP JUMPDEST PUSH1 0x40 MLOAD DUP1 SWAP2 SUB SWAP1 RETURN JUMPDEST PUSH2 0x406 PUSH1 0x4 DUP1 CALLDATASIZE SUB DUP2 ADD SWAP1 PUSH2 0x401 SWAP2 SWAP1 PUSH2 0x3B06 JUMP JUMPDEST PUSH2 0xE9D JUMP JUMPDEST PUSH1 0x40 MLOAD PUSH2 0x413 SWAP2 SWAP1 PUSH2 0x3A84 JUMP JUMPDEST PUSH1 0x40 MLOAD DUP1 SWAP2 SUB SWAP1 RETURN JUMPDEST PUSH2 0x424 PUSH2 0x100C JUMP JUMPDEST PUSH1 0x40 MLOAD PUSH2 0x431 SWAP2 SWAP1 PUSH2 0x3ABF JUMP JUMPDEST PUSH1 0x40 MLOAD DUP1 SWAP2 SUB SWAP1 RETURN JUMPDEST PUSH2 0x442 PUSH2 0x1012 JUMP JUMPDEST PUSH1 0x40 MLOAD PUSH2 0x44F SWAP2 SWAP1 PUSH2 0x3ABF JUMP JUMPDEST PUSH1 0x40 MLOAD DUP1 SWAP2 SUB SWAP1 RETURN JUMPDEST PUSH2 0x472 PUSH1 0x4 DUP1 CALLDATASIZE SUB DUP2 ADD SWAP1 PUSH2 0x46D SWAP2 SWAP1 PUSH2 0x3B06 JUMP JUMPDEST PUSH2 0x1018 JUMP JUMPDEST PUSH1 0x40 MLOAD PUSH2 0x481 SWAP4 SWAP3 SWAP2 SWAP1 PUSH2 0x3B33 JUMP JUMPDEST PUSH1 0x40 MLOAD DUP1 SWAP2 SUB SWAP1 RETURN JUMPDEST PUSH2 0x4A4 PUSH1 0x4 DUP1 CALLDATASIZE SUB DUP2 ADD SWAP1 PUSH2 0x49F SWAP2 SWAP1 PUSH2 0x38FA JUMP JUMPDEST PUSH2 0x1042 JUMP JUMPDEST PUSH1 0x40 MLOAD PUSH2 0x4B1 SWAP2 SWAP1 PUSH2 0x3ABF JUMP JUMPDEST PUSH1 0x40 MLOAD DUP1 SWAP2 SUB SWAP1 RETURN JUMPDEST PUSH2 0x4D4 PUSH1 0x4 DUP1 CALLDATASIZE SUB DUP2 ADD SWAP1 PUSH2 0x4CF SWAP2 SWAP1 PUSH2 0x3B06 JUMP JUMPDEST PUSH2 0x10B3 JUMP JUMPDEST PUSH1 0x40 MLOAD PUSH2 0x4E1 SWAP2 SWAP1 PUSH2 0x3ABF JUMP JUMPDEST PUSH1 0x40 MLOAD DUP1 SWAP2 SUB SWAP1 RETURN JUMPDEST PUSH2 0x504 PUSH1 0x4 DUP1 CALLDATASIZE SUB DUP2 ADD SWAP1 PUSH2 0x4FF SWAP2 SWAP1 PUSH2 0x3B06 JUMP JUMPDEST PUSH2 0x10CB JUMP JUMPDEST PUSH1 0x40 MLOAD PUSH2 0x513 SWAP4 SWAP3 SWAP2 SWAP1 PUSH2 0x3BB4 JUMP JUMPDEST PUSH1 0x40 MLOAD DUP1 SWAP2 SUB SWAP1 RETURN JUMPDEST PUSH2 0x524 PUSH2 0x128D JUMP JUMPDEST PUSH1 0x40 MLOAD PUSH2 0x531 SWAP2 SWAP1 PUSH2 0x3A84 JUMP JUMPDEST PUSH1 0x40 MLOAD DUP1 SWAP2 SUB SWAP1 RETURN JUMPDEST PUSH2 0x554 PUSH1 0x4 DUP1 CALLDATASIZE SUB DUP2 ADD SWAP1 PUSH2 0x54F SWAP2 SWAP1 PUSH2 0x3B06 JUMP JUMPDEST PUSH2 0x13C8 JUMP JUMPDEST PUSH1 0x40 MLOAD PUSH2 0x563 SWAP4 SWAP3 SWAP2 SWAP1 PUSH2 0x3C00 JUMP JUMPDEST PUSH1 0x40 MLOAD DUP1 SWAP2 SUB SWAP1 RETURN JUMPDEST PUSH2 0x586 PUSH1 0x4 DUP1 CALLDATASIZE SUB DUP2 ADD SWAP1 PUSH2 0x581 SWAP2 SWAP1 PUSH2 0x3B06 JUMP JUMPDEST PUSH2 0x147A JUMP JUMPDEST PUSH1 0x40 MLOAD PUSH2 0x593 SWAP2 SWAP1 PUSH2 0x3C3E JUMP JUMPDEST PUSH1 0x40 MLOAD DUP1 SWAP2 SUB SWAP1 RETURN JUMPDEST PUSH2 0x5B6 PUSH1 0x4 DUP1 CALLDATASIZE SUB DUP2 ADD SWAP1 PUSH2 0x5B1 SWAP2 SWAP1 PUSH2 0x3B06 JUMP JUMPDEST PUSH2 0x1544 JUMP JUMPDEST PUSH1 0x40 MLOAD PUSH2 0x5C6 SWAP5 SWAP4 SWAP3 SWAP2 SWAP1 PUSH2 0x3C60 JUMP JUMPDEST PUSH1 0x40 MLOAD DUP1 SWAP2 SUB SWAP1 RETURN JUMPDEST PUSH2 0x5E9 PUSH1 0x4 DUP1 CALLDATASIZE SUB DUP2 ADD SWAP1 PUSH2 0x5E4 SWAP2 SWAP1 PUSH2 0x3B06 JUMP JUMPDEST PUSH2 0x15FC JUMP JUMPDEST PUSH1 0x40 MLOAD PUSH2 0x5F8 SWAP4 SWAP3 SWAP2 SWAP1 PUSH2 0x3CAC JUMP JUMPDEST PUSH1 0x40 MLOAD DUP1 SWAP2 SUB SWAP1 RETURN JUMPDEST PUSH2 0x609 PUSH2 0x16AE JUMP JUMPDEST PUSH1 0x40 MLOAD PUSH2 0x616 SWAP2 SWAP1 PUSH2 0x3ABF JUMP JUMPDEST PUSH1 0x40 MLOAD DUP1 SWAP2 SUB SWAP1 RETURN JUMPDEST PUSH2 0x639 PUSH1 0x4 DUP1 CALLDATASIZE SUB DUP2 ADD SWAP1 PUSH2 0x634 SWAP2 SWAP1 PUSH2 0x3CEA JUMP JUMPDEST PUSH2 0x16B4 JUMP JUMPDEST PUSH1 0x40 MLOAD PUSH2 0x646 SWAP2 SWAP1 PUSH2 0x3A84 JUMP JUMPDEST PUSH1 0x40 MLOAD DUP1 SWAP2 SUB SWAP1 RETURN JUMPDEST PUSH2 0x669 PUSH1 0x4 DUP1 CALLDATASIZE SUB DUP2 ADD SWAP1 PUSH2 0x664 SWAP2 SWAP1 PUSH2 0x3B06 JUMP JUMPDEST PUSH2 0x17C6 JUMP JUMPDEST PUSH1 0x40 MLOAD PUSH2 0x679 SWAP5 SWAP4 SWAP3 SWAP2 SWAP1 PUSH2 0x3D2A JUMP JUMPDEST PUSH1 0x40 MLOAD DUP1 SWAP2 SUB SWAP1 RETURN JUMPDEST PUSH2 0x69C PUSH1 0x4 DUP1 CALLDATASIZE SUB DUP2 ADD SWAP1 PUSH2 0x697 SWAP2 SWAP1 PUSH2 0x3D7D JUMP JUMPDEST PUSH2 0x1906 JUMP JUMPDEST STOP JUMPDEST PUSH2 0x6B8 PUSH1 0x4 DUP1 CALLDATASIZE SUB DUP2 ADD SWAP1 PUSH2 0x6B3 SWAP2 SWAP1 PUSH2 0x3E30 JUMP JUMPDEST PUSH2 0x1AAA JUMP JUMPDEST STOP JUMPDEST PUSH2 0x6D4 PUSH1 0x4 DUP1 CALLDATASIZE SUB DUP2 ADD SWAP1 PUSH2 0x6CF SWAP2 SWAP1 PUSH2 0x3B06 JUMP JUMPDEST PUSH2 0x1B93 JUMP JUMPDEST PUSH1 0x40 MLOAD PUSH2 0x6E1 SWAP2 SWAP1 PUSH2 0x3C3E JUMP JUMPDEST PUSH1 0x40 MLOAD DUP1 SWAP2 SUB SWAP1 RETURN JUMPDEST PUSH2 0x704 PUSH1 0x4 DUP1 CALLDATASIZE SUB DUP2 ADD SWAP1 PUSH2 0x6FF SWAP2 SWAP1 PUSH2 0x3B06 JUMP JUMPDEST PUSH2 0x1C3B JUMP JUMPDEST PUSH1 0x40 MLOAD PUSH2 0x711 SWAP2 SWAP1 PUSH2 0x3C3E JUMP JUMPDEST PUSH1 0x40 MLOAD DUP1 SWAP2 SUB SWAP1 RETURN JUMPDEST PUSH2 0x734 PUSH1 0x4 DUP1 CALLDATASIZE SUB DUP2 ADD SWAP1 PUSH2 0x72F SWAP2 SWAP1 PUSH2 0x3ECF JUMP JUMPDEST PUSH2 0x1CDB JUMP JUMPDEST PUSH1 0x40 MLOAD PUSH2 0x741 SWAP2 SWAP1 PUSH2 0x3ABF JUMP JUMPDEST PUSH1 0x40 MLOAD DUP1 SWAP2 SUB SWAP1 RETURN JUMPDEST PUSH2 0x764 PUSH1 0x4 DUP1 CALLDATASIZE SUB DUP2 ADD SWAP1 PUSH2 0x75F SWAP2 SWAP1 PUSH2 0x3CEA JUMP JUMPDEST PUSH2 0x1DAC JUMP JUMPDEST PUSH1 0x40 MLOAD PUSH2 0x771 SWAP2 SWAP1 PUSH2 0x3F89 JUMP JUMPDEST PUSH1 0x40 MLOAD DUP1 SWAP2 SUB SWAP1 RETURN JUMPDEST PUSH2 0x782 PUSH2 0x1E26 JUMP JUMPDEST PUSH1 0x40 MLOAD PUSH2 0x78F SWAP2 SWAP1 PUSH2 0x3ABF JUMP JUMPDEST PUSH1 0x40 MLOAD DUP1 SWAP2 SUB SWAP1 RETURN JUMPDEST PUSH2 0x7B2 PUSH1 0x4 DUP1 CALLDATASIZE SUB DUP2 ADD SWAP1 PUSH2 0x7AD SWAP2 SWAP1 PUSH2 0x3B06 JUMP JUMPDEST PUSH2 0x1E2C JUMP JUMPDEST PUSH1 0x40 MLOAD PUSH2 0x7C0 SWAP3 SWAP2 SWAP1 PUSH2 0x3FA4 JUMP JUMPDEST PUSH1 0x40 MLOAD DUP1 SWAP2 SUB SWAP1 RETURN JUMPDEST PUSH2 0x7E3 PUSH1 0x4 DUP1 CALLDATASIZE SUB DUP2 ADD SWAP1 PUSH2 0x7DE SWAP2 SWAP1 PUSH2 0x3B06 JUMP JUMPDEST PUSH2 0x1F60 JUMP JUMPDEST PUSH1 0x40 MLOAD PUSH2 0x7F2 SWAP4 SWAP3 SWAP2 SWAP1 PUSH2 0x3B33 JUMP JUMPDEST PUSH1 0x40 MLOAD DUP1 SWAP2 SUB SWAP1 RETURN JUMPDEST PUSH2 0x815 PUSH1 0x4 DUP1 CALLDATASIZE SUB DUP2 ADD SWAP1 PUSH2 0x810 SWAP2 SWAP1 PUSH2 0x3B06 JUMP JUMPDEST PUSH2 0x1F8A JUMP JUMPDEST PUSH1 0x40 MLOAD PUSH2 0x822 SWAP2 SWAP1 PUSH2 0x4099 JUMP JUMPDEST PUSH1 0x40 MLOAD DUP1 SWAP2 SUB SWAP1 RETURN JUMPDEST PUSH2 0x845 PUSH1 0x4 DUP1 CALLDATASIZE SUB DUP2 ADD SWAP1 PUSH2 0x840 SWAP2 SWAP1 PUSH2 0x3B06 JUMP JUMPDEST PUSH2 0x206D JUMP JUMPDEST PUSH1 0x40 MLOAD PUSH2 0x852 SWAP2 SWAP1 PUSH2 0x4099 JUMP JUMPDEST PUSH1 0x40 MLOAD DUP1 SWAP2 SUB SWAP1 RETURN JUMPDEST PUSH2 0x875 PUSH1 0x4 DUP1 CALLDATASIZE SUB DUP2 ADD SWAP1 PUSH2 0x870 SWAP2 SWAP1 PUSH2 0x3B06 JUMP JUMPDEST PUSH2 0x2150 JUMP JUMPDEST STOP JUMPDEST PUSH2 0x891 PUSH1 0x4 DUP1 CALLDATASIZE SUB DUP2 ADD SWAP1 PUSH2 0x88C SWAP2 SWAP1 PUSH2 0x40BB JUMP JUMPDEST PUSH2 0x21C1 JUMP JUMPDEST PUSH1 0x40 MLOAD PUSH2 0x89E SWAP2 SWAP1 PUSH2 0x3ABF JUMP JUMPDEST PUSH1 0x40 MLOAD DUP1 SWAP2 SUB SWAP1 RETURN JUMPDEST PUSH2 0x8C1 PUSH1 0x4 DUP1 CALLDATASIZE SUB DUP2 ADD SWAP1 PUSH2 0x8BC SWAP2 SWAP1 PUSH2 0x4176 JUMP JUMPDEST PUSH2 0x22E1 JUMP JUMPDEST STOP JUMPDEST PUSH2 0x8DD PUSH1 0x4 DUP1 CALLDATASIZE SUB DUP2 ADD SWAP1 PUSH2 0x8D8 SWAP2 SWAP1 PUSH2 0x41D2 JUMP JUMPDEST PUSH2 0x2306 JUMP JUMPDEST STOP JUMPDEST PUSH2 0x8E7 PUSH2 0x2353 JUMP JUMPDEST PUSH1 0x40 MLOAD PUSH2 0x8F4 SWAP2 SWAP1 PUSH2 0x3ABF JUMP JUMPDEST PUSH1 0x40 MLOAD DUP1 SWAP2 SUB SWAP1 RETURN JUMPDEST PUSH2 0x917 PUSH1 0x4 DUP1 CALLDATASIZE SUB DUP2 ADD SWAP1 PUSH2 0x912 SWAP2 SWAP1 PUSH2 0x3B06 JUMP JUMPDEST PUSH2 0x2359 JUMP JUMPDEST PUSH1 0x40 MLOAD PUSH2 0x924 SWAP2 SWAP1 PUSH2 0x3C3E JUMP JUMPDEST PUSH1 0x40 MLOAD DUP1 SWAP2 SUB SWAP1 RETURN JUMPDEST PUSH2 0x935 PUSH2 0x2401 JUMP JUMPDEST PUSH1 0x40 MLOAD PUSH2 0x942 SWAP2 SWAP1 PUSH2 0x3ABF JUMP JUMPDEST PUSH1 0x40 MLOAD DUP1 SWAP2 SUB SWAP1 RETURN JUMPDEST PUSH2 0x965 PUSH1 0x4 DUP1 CALLDATASIZE SUB DUP2 ADD SWAP1 PUSH2 0x960 SWAP2 SWAP1 PUSH2 0x425D JUMP JUMPDEST PUSH2 0x2407 JUMP JUMPDEST PUSH1 0x40 MLOAD PUSH2 0x972 SWAP2 SWAP1 PUSH2 0x3ABF JUMP JUMPDEST PUSH1 0x40 MLOAD DUP1 SWAP2 SUB SWAP1 RETURN JUMPDEST PUSH2 0x983 PUSH2 0x249B JUMP JUMPDEST PUSH1 0x40 MLOAD PUSH2 0x990 SWAP2 SWAP1 PUSH2 0x3A84 JUMP JUMPDEST PUSH1 0x40 MLOAD DUP1 SWAP2 SUB SWAP1 RETURN JUMPDEST PUSH2 0x9B3 PUSH1 0x4 DUP1 CALLDATASIZE SUB DUP2 ADD SWAP1 PUSH2 0x9AE SWAP2 SWAP1 PUSH2 0x38FA JUMP JUMPDEST PUSH2 0x25D6 JUMP JUMPDEST PUSH1 0x40 MLOAD PUSH2 0x9C0 SWAP2 SWAP1 PUSH2 0x3ABF JUMP JUMPDEST PUSH1 0x40 MLOAD DUP1 SWAP2 SUB SWAP1 RETURN JUMPDEST PUSH2 0x9E3 PUSH1 0x4 DUP1 CALLDATASIZE SUB DUP2 ADD SWAP1 PUSH2 0x9DE SWAP2 SWAP1 PUSH2 0x3B06 JUMP JUMPDEST PUSH2 0x2647 JUMP JUMPDEST PUSH1 0x40 MLOAD PUSH2 0x9F8 SWAP10 SWAP9 SWAP8 SWAP7 SWAP6 SWAP5 SWAP4 SWAP3 SWAP2 SWAP1 PUSH2 0x42E0 JUMP JUMPDEST PUSH1 0x40 MLOAD DUP1 SWAP2 SUB SWAP1 RETURN JUMPDEST PUSH2 0xA09 PUSH2 0x26FD JUMP JUMPDEST PUSH1 0x40 MLOAD PUSH2 0xA16 SWAP2 SWAP1 PUSH2 0x3ABF JUMP JUMPDEST PUSH1 0x40 MLOAD DUP1 SWAP2 SUB SWAP1 RETURN JUMPDEST PUSH2 0xA39 PUSH1 0x4 DUP1 CALLDATASIZE SUB DUP2 ADD SWAP1 PUSH2 0xA34 SWAP2 SWAP1 PUSH2 0x38FA JUMP JUMPDEST PUSH2 0x2703 JUMP JUMPDEST PUSH1 0x40 MLOAD PUSH2 0xA46 SWAP2 SWAP1 PUSH2 0x3ABF JUMP JUMPDEST PUSH1 0x40 MLOAD DUP1 SWAP2 SUB SWAP1 RETURN JUMPDEST PUSH2 0xA57 PUSH2 0x278A JUMP JUMPDEST STOP JUMPDEST PUSH2 0xA73 PUSH1 0x4 DUP1 CALLDATASIZE SUB DUP2 ADD SWAP1 PUSH2 0xA6E SWAP2 SWAP1 PUSH2 0x436D JUMP JUMPDEST PUSH2 0x2A3C JUMP JUMPDEST PUSH1 0x40 MLOAD PUSH2 0xA80 SWAP2 SWAP1 PUSH2 0x3ABF JUMP JUMPDEST PUSH1 0x40 MLOAD DUP1 SWAP2 SUB SWAP1 RETURN JUMPDEST PUSH2 0xAA3 PUSH1 0x4 DUP1 CALLDATASIZE SUB DUP2 ADD SWAP1 PUSH2 0xA9E SWAP2 SWAP1 PUSH2 0x3B06 JUMP JUMPDEST PUSH2 0x2B2A JUMP JUMPDEST PUSH1 0x40 MLOAD PUSH2 0xAB3 SWAP5 SWAP4 SWAP3 SWAP2 SWAP1 PUSH2 0x3D2A JUMP JUMPDEST PUSH1 0x40 MLOAD DUP1 SWAP2 SUB SWAP1 RETURN JUMPDEST PUSH2 0xAD6 PUSH1 0x4 DUP1 CALLDATASIZE SUB DUP2 ADD SWAP1 PUSH2 0xAD1 SWAP2 SWAP1 PUSH2 0x3CEA JUMP JUMPDEST PUSH2 0x2C6A JUMP JUMPDEST PUSH1 0x40 MLOAD PUSH2 0xAE3 SWAP2 SWAP1 PUSH2 0x3ABF JUMP JUMPDEST PUSH1 0x40 MLOAD DUP1 SWAP2 SUB SWAP1 RETURN JUMPDEST PUSH2 0xB06 PUSH1 0x4 DUP1 CALLDATASIZE SUB DUP2 ADD SWAP1 PUSH2 0xB01 SWAP2 SWAP1 PUSH2 0x4428 JUMP JUMPDEST PUSH2 0x2CE4 JUMP JUMPDEST STOP JUMPDEST PUSH2 0xB22 PUSH1 0x4 DUP1 CALLDATASIZE SUB DUP2 ADD SWAP1 PUSH2 0xB1D SWAP2 SWAP1 PUSH2 0x4176 JUMP JUMPDEST PUSH2 0x2D7B JUMP JUMPDEST STOP JUMPDEST PUSH2 0xB2C PUSH2 0x2DA3 JUMP JUMPDEST PUSH1 0x40 MLOAD PUSH2 0xB39 SWAP2 SWAP1 PUSH2 0x3A84 JUMP JUMPDEST PUSH1 0x40 MLOAD DUP1 SWAP2 SUB SWAP1 RETURN JUMPDEST PUSH2 0xB5C PUSH1 0x4 DUP1 CALLDATASIZE SUB DUP2 ADD SWAP1 PUSH2 0xB57 SWAP2 SWAP1 PUSH2 0x4176 JUMP JUMPDEST PUSH2 0x2EDD JUMP JUMPDEST STOP JUMPDEST PUSH2 0xB66 PUSH2 0x2F05 JUMP JUMPDEST PUSH1 0x40 MLOAD PUSH2 0xB73 SWAP2 SWAP1 PUSH2 0x3ABF JUMP JUMPDEST PUSH1 0x40 MLOAD DUP1 SWAP2 SUB SWAP1 RETURN JUMPDEST PUSH2 0xB96 PUSH1 0x4 DUP1 CALLDATASIZE SUB DUP2 ADD SWAP1 PUSH2 0xB91 SWAP2 SWAP1 PUSH2 0x3B06 JUMP JUMPDEST PUSH2 0x2F0B JUMP JUMPDEST PUSH1 0x40 MLOAD PUSH2 0xBA6 SWAP5 SWAP4 SWAP3 SWAP2 SWAP1 PUSH2 0x3C60 JUMP JUMPDEST PUSH1 0x40 MLOAD DUP1 SWAP2 SUB SWAP1 RETURN JUMPDEST PUSH2 0xBC9 PUSH1 0x4 DUP1 CALLDATASIZE SUB DUP2 ADD SWAP1 PUSH2 0xBC4 SWAP2 SWAP1 PUSH2 0x4176 JUMP JUMPDEST PUSH2 0x2FC3 JUMP JUMPDEST PUSH1 0x40 MLOAD PUSH2 0xBD6 SWAP2 SWAP1 PUSH2 0x3F89 JUMP JUMPDEST PUSH1 0x40 MLOAD DUP1 SWAP2 SUB SWAP1 RETURN JUMPDEST PUSH2 0xBE7 PUSH2 0x3054 JUMP JUMPDEST PUSH1 0x40 MLOAD PUSH2 0xBF4 SWAP2 SWAP1 PUSH2 0x3ABF JUMP JUMPDEST PUSH1 0x40 MLOAD DUP1 SWAP2 SUB SWAP1 RETURN JUMPDEST PUSH2 0xC17 PUSH1 0x4 DUP1 CALLDATASIZE SUB DUP2 ADD SWAP1 PUSH2 0xC12 SWAP2 SWAP1 PUSH2 0x44A0 JUMP JUMPDEST PUSH2 0x305A JUMP JUMPDEST PUSH1 0x40 MLOAD PUSH2 0xC24 SWAP2 SWAP1 PUSH2 0x3ABF JUMP JUMPDEST PUSH1 0x40 MLOAD DUP1 SWAP2 SUB SWAP1 RETURN JUMPDEST PUSH2 0xC47 PUSH1 0x4 DUP1 CALLDATASIZE SUB DUP2 ADD SWAP1 PUSH2 0xC42 SWAP2 SWAP1 PUSH2 0x4609 JUMP JUMPDEST PUSH2 0x311F JUMP JUMPDEST PUSH1 0x40 MLOAD PUSH2 0xC54 SWAP2 SWAP1 PUSH2 0x3ABF JUMP JUMPDEST PUSH1 0x40 MLOAD DUP1 SWAP2 SUB SWAP1 RETURN JUMPDEST PUSH2 0xC77 PUSH1 0x4 DUP1 CALLDATASIZE SUB DUP2 ADD SWAP1 PUSH2 0xC72 SWAP2 SWAP1 PUSH2 0x3B06 JUMP JUMPDEST PUSH2 0x3274 JUMP JUMPDEST PUSH1 0x40 MLOAD PUSH2 0xC84 SWAP2 SWAP1 PUSH2 0x3C3E JUMP JUMPDEST PUSH1 0x40 MLOAD DUP1 SWAP2 SUB SWAP1 RETURN JUMPDEST PUSH2 0xC95 PUSH2 0x331C JUMP JUMPDEST PUSH1 0x40 MLOAD PUSH2 0xCA2 SWAP2 SWAP1 PUSH2 0x3ABF JUMP JUMPDEST PUSH1 0x40 MLOAD DUP1 SWAP2 SUB SWAP1 RETURN JUMPDEST PUSH2 0xCC5 PUSH1 0x4 DUP1 CALLDATASIZE SUB DUP2 ADD SWAP1 PUSH2 0xCC0 SWAP2 SWAP1 PUSH2 0x4704 JUMP JUMPDEST PUSH2 0x3322 JUMP JUMPDEST PUSH1 0x40 MLOAD PUSH2 0xCD2 SWAP2 SWAP1 PUSH2 0x3ABF JUMP JUMPDEST PUSH1 0x40 MLOAD DUP1 SWAP2 SUB SWAP1 RETURN JUMPDEST PUSH2 0xCF5 PUSH1 0x4 DUP1 CALLDATASIZE SUB DUP2 ADD SWAP1 PUSH2 0xCF0 SWAP2 SWAP1 PUSH2 0x3B06 JUMP JUMPDEST PUSH2 0x3410 JUMP JUMPDEST PUSH1 0x40 MLOAD PUSH2 0xD04 SWAP4 SWAP3 SWAP2 SWAP1 PUSH2 0x3C00 JUMP JUMPDEST PUSH1 0x40 MLOAD DUP1 SWAP2 SUB SWAP1 RETURN JUMPDEST PUSH1 0x60 PUSH1 0x0 PUSH1 0x2 SLOAD PUSH8 0xFFFFFFFFFFFFFFFF DUP2 GT ISZERO PUSH2 0xD2D JUMPI PUSH2 0xD2C PUSH2 0x37CF JUMP JUMPDEST JUMPDEST PUSH1 0x40 MLOAD SWAP1 DUP1 DUP3 MSTORE DUP1 PUSH1 0x20 MUL PUSH1 0x20 ADD DUP3 ADD PUSH1 0x40 MSTORE DUP1 ISZERO PUSH2 0xD60 JUMPI DUP2 PUSH1 0x20 ADD JUMPDEST PUSH1 0x60 DUP2 MSTORE PUSH1 0x20 ADD SWAP1 PUSH1 0x1 SWAP1 SUB SWAP1 DUP2 PUSH2 0xD4B JUMPI SWAP1 POP JUMPDEST POP SWAP1 POP PUSH1 0x0 DUP1 PUSH1 0x0 SWAP1 POP JUMPDEST PUSH1 0x2 SLOAD DUP2 LT ISZERO PUSH2 0xE8C JUMPI DUP5 DUP1 MLOAD SWAP1 PUSH1 0x20 ADD KECCAK256 PUSH1 0xE PUSH1 0x0 DUP4 DUP2 MSTORE PUSH1 0x20 ADD SWAP1 DUP2 MSTORE PUSH1 0x20 ADD PUSH1 0x0 KECCAK256 PUSH1 0x0 ADD PUSH1 0x40 MLOAD PUSH2 0xDA0 SWAP2 SWAP1 PUSH2 0x489E JUMP JUMPDEST PUSH1 0x40 MLOAD DUP1 SWAP2 SUB SWAP1 KECCAK256 SUB PUSH2 0xE79 JUMPI PUSH1 0xE PUSH1 0x0 DUP3 DUP2 MSTORE PUSH1 0x20 ADD SWAP1 DUP2 MSTORE PUSH1 0x20 ADD PUSH1 0x0 KECCAK256 PUSH1 0x1 ADD DUP1 SLOAD PUSH2 0xDCE SWAP1 PUSH2 0x47CA JUMP JUMPDEST DUP1 PUSH1 0x1F ADD PUSH1 0x20 DUP1 SWAP2 DIV MUL PUSH1 0x20 ADD PUSH1 0x40 MLOAD SWAP1 DUP2 ADD PUSH1 0x40 MSTORE DUP1 SWAP3 SWAP2 SWAP1 DUP2 DUP2 MSTORE PUSH1 0x20 ADD DUP3 DUP1 SLOAD PUSH2 0xDFA SWAP1 PUSH2 0x47CA JUMP JUMPDEST DUP1 ISZERO PUSH2 0xE47 JUMPI DUP1 PUSH1 0x1F LT PUSH2 0xE1C JUMPI PUSH2 0x100 DUP1 DUP4 SLOAD DIV MUL DUP4 MSTORE SWAP2 PUSH1 0x20 ADD SWAP2 PUSH2 0xE47 JUMP JUMPDEST DUP3 ADD SWAP2 SWAP1 PUSH1 0x0 MSTORE PUSH1 0x20 PUSH1 0x0 KECCAK256 SWAP1 JUMPDEST DUP2 SLOAD DUP2 MSTORE SWAP1 PUSH1 0x1 ADD SWAP1 PUSH1 0x20 ADD DUP1 DUP4 GT PUSH2 0xE2A JUMPI DUP3 SWAP1 SUB PUSH1 0x1F AND DUP3 ADD SWAP2 JUMPDEST POP POP POP POP POP DUP4 DUP4 DUP2 MLOAD DUP2 LT PUSH2 0xE5F JUMPI PUSH2 0xE5E PUSH2 0x48B5 JUMP JUMPDEST JUMPDEST PUSH1 0x20 MUL PUSH1 0x20 ADD ADD DUP2 SWAP1 MSTORE POP DUP2 DUP1 PUSH2 0xE75 SWAP1 PUSH2 0x4913 JUMP JUMPDEST SWAP3 POP POP JUMPDEST DUP1 DUP1 PUSH2 0xE84 SWAP1 PUSH2 0x4913 JUMP JUMPDEST SWAP2 POP POP PUSH2 0xD6B JUMP JUMPDEST POP DUP2 SWAP3 POP POP POP SWAP2 SWAP1 POP JUMP JUMPDEST PUSH1 0x4 SLOAD DUP2 JUMP JUMPDEST PUSH1 0x60 PUSH1 0x0 PUSH1 0x3 SLOAD PUSH8 0xFFFFFFFFFFFFFFFF DUP2 GT ISZERO PUSH2 0xEBD JUMPI PUSH2 0xEBC PUSH2 0x37CF JUMP JUMPDEST JUMPDEST PUSH1 0x40 MLOAD SWAP1 DUP1 DUP3 MSTORE DUP1 PUSH1 0x20 MUL PUSH1 0x20 ADD DUP3 ADD PUSH1 0x40 MSTORE DUP1 ISZERO PUSH2 0xEF0 JUMPI DUP2 PUSH1 0x20 ADD JUMPDEST PUSH1 0x60 DUP2 MSTORE PUSH1 0x20 ADD SWAP1 PUSH1 0x1 SWAP1 SUB SWAP1 DUP2 PUSH2 0xEDB JUMPI SWAP1 POP JUMPDEST POP SWAP1 POP PUSH1 0x0 DUP1 PUSH1 0x0 SWAP1 POP JUMPDEST PUSH1 0x3 SLOAD DUP2 LT ISZERO PUSH2 0x1001 JUMPI DUP5 PUSH1 0xF PUSH1 0x0 DUP4 DUP2 MSTORE PUSH1 0x20 ADD SWAP1 DUP2 MSTORE PUSH1 0x20 ADD PUSH1 0x0 KECCAK256 PUSH1 0x0 ADD SLOAD SUB PUSH2 0xFE0 JUMPI PUSH1 0xF PUSH1 0x0 DUP3 DUP2 MSTORE PUSH1 0x20 ADD SWAP1 DUP2 MSTORE PUSH1 0x20 ADD PUSH1 0x0 KECCAK256 PUSH1 0x1 ADD DUP1 SLOAD PUSH2 0xF43 SWAP1 PUSH2 0x47CA JUMP JUMPDEST DUP1 PUSH1 0x1F ADD PUSH1 0x20 DUP1 SWAP2 DIV MUL PUSH1 0x20 ADD PUSH1 0x40 MLOAD SWAP1 DUP2 ADD PUSH1 0x40 MSTORE DUP1 SWAP3 SWAP2 SWAP1 DUP2 DUP2 MSTORE PUSH1 0x20 ADD DUP3 DUP1 SLOAD PUSH2 0xF6F SWAP1 PUSH2 0x47CA JUMP JUMPDEST DUP1 ISZERO PUSH2 0xFBC JUMPI DUP1 PUSH1 0x1F LT PUSH2 0xF91 JUMPI PUSH2 0x100 DUP1 DUP4 SLOAD DIV MUL DUP4 MSTORE SWAP2 PUSH1 0x20 ADD SWAP2 PUSH2 0xFBC JUMP JUMPDEST DUP3 ADD SWAP2 SWAP1 PUSH1 0x0 MSTORE PUSH1 0x20 PUSH1 0x0 KECCAK256 SWAP1 JUMPDEST DUP2 SLOAD DUP2 MSTORE SWAP1 PUSH1 0x1 ADD SWAP1 PUSH1 0x20 ADD DUP1 DUP4 GT PUSH2 0xF9F JUMPI DUP3 SWAP1 SUB PUSH1 0x1F AND DUP3 ADD SWAP2 JUMPDEST POP POP POP POP POP DUP4 DUP4 DUP2 MLOAD DUP2 LT PUSH2 0xFD4 JUMPI PUSH2 0xFD3 PUSH2 0x48B5 JUMP JUMPDEST JUMPDEST PUSH1 0x20 MUL PUSH1 0x20 ADD ADD DUP2 SWAP1 MSTORE POP JUMPDEST DUP2 DUP1 PUSH2 0xFEB SWAP1 PUSH2 0x4913 JUMP JUMPDEST SWAP3 POP POP DUP1 DUP1 PUSH2 0xFF9 SWAP1 PUSH2 0x4913 JUMP JUMPDEST SWAP2 POP POP PUSH2 0xEFB JUMP JUMPDEST POP DUP2 SWAP3 POP POP POP SWAP2 SWAP1 POP JUMP JUMPDEST PUSH1 0x2 SLOAD DUP2 JUMP JUMPDEST PUSH1 0x5 SLOAD DUP2 JUMP JUMPDEST PUSH1 0x14 PUSH1 0x20 MSTORE DUP1 PUSH1 0x0 MSTORE PUSH1 0x40 PUSH1 0x0 KECCAK256 PUSH1 0x0 SWAP2 POP SWAP1 POP DUP1 PUSH1 0x0 ADD SLOAD SWAP1 DUP1 PUSH1 0x1 ADD SLOAD SWAP1 DUP1 PUSH1 0x2 ADD SLOAD SWAP1 POP DUP4 JUMP JUMPDEST PUSH1 0x0 DUP1 PUSH1 0x0 SWAP1 POP JUMPDEST PUSH1 0x2 SLOAD DUP2 LT ISZERO PUSH2 0x10A8 JUMPI DUP3 DUP1 MLOAD SWAP1 PUSH1 0x20 ADD KECCAK256 PUSH1 0xE PUSH1 0x0 DUP4 DUP2 MSTORE PUSH1 0x20 ADD SWAP1 DUP2 MSTORE PUSH1 0x20 ADD PUSH1 0x0 KECCAK256 PUSH1 0x1 ADD PUSH1 0x40 MLOAD PUSH2 0x107F SWAP2 SWAP1 PUSH2 0x489E JUMP JUMPDEST PUSH1 0x40 MLOAD DUP1 SWAP2 SUB SWAP1 KECCAK256 SUB PUSH2 0x1095 JUMPI DUP1 SWAP2 POP POP PUSH2 0x10AE JUMP JUMPDEST DUP1 DUP1 PUSH2 0x10A0 SWAP1 PUSH2 0x4913 JUMP JUMPDEST SWAP2 POP POP PUSH2 0x104A JUMP JUMPDEST POP PUSH1 0x0 SWAP1 POP JUMPDEST SWAP2 SWAP1 POP JUMP JUMPDEST PUSH1 0x10 PUSH1 0x20 MSTORE DUP1 PUSH1 0x0 MSTORE PUSH1 0x40 PUSH1 0x0 KECCAK256 PUSH1 0x0 SWAP2 POP SWAP1 POP SLOAD DUP2 JUMP JUMPDEST PUSH1 0xB PUSH1 0x20 MSTORE DUP1 PUSH1 0x0 MSTORE PUSH1 0x40 PUSH1 0x0 KECCAK256 PUSH1 0x0 SWAP2 POP SWAP1 POP DUP1 PUSH1 0x0 ADD DUP1 SLOAD PUSH2 0x10EE SWAP1 PUSH2 0x47CA JUMP JUMPDEST DUP1 PUSH1 0x1F ADD PUSH1 0x20 DUP1 SWAP2 DIV MUL PUSH1 0x20 ADD PUSH1 0x40 MLOAD SWAP1 DUP2 ADD PUSH1 0x40 MSTORE DUP1 SWAP3 SWAP2 SWAP1 DUP2 DUP2 MSTORE PUSH1 0x20 ADD DUP3 DUP1 SLOAD PUSH2 0x111A SWAP1 PUSH2 0x47CA JUMP JUMPDEST DUP1 ISZERO PUSH2 0x1167 JUMPI DUP1 PUSH1 0x1F LT PUSH2 0x113C JUMPI PUSH2 0x100 DUP1 DUP4 SLOAD DIV MUL DUP4 MSTORE SWAP2 PUSH1 0x20 ADD SWAP2 PUSH2 0x1167 JUMP JUMPDEST DUP3 ADD SWAP2 SWAP1 PUSH1 0x0 MSTORE PUSH1 0x20 PUSH1 0x0 KECCAK256 SWAP1 JUMPDEST DUP2 SLOAD DUP2 MSTORE SWAP1 PUSH1 0x1 ADD SWAP1 PUSH1 0x20 ADD DUP1 DUP4 GT PUSH2 0x114A JUMPI DUP3 SWAP1 SUB PUSH1 0x1F AND DUP3 ADD SWAP2 JUMPDEST POP POP POP POP POP SWAP1 DUP1 PUSH1 0x1 ADD DUP1 SLOAD PUSH2 0x117C SWAP1 PUSH2 0x47CA JUMP JUMPDEST DUP1 PUSH1 0x1F ADD PUSH1 0x20 DUP1 SWAP2 DIV MUL PUSH1 0x20 ADD PUSH1 0x40 MLOAD SWAP1 DUP2 ADD PUSH1 0x40 MSTORE DUP1 SWAP3 SWAP2 SWAP1 DUP2 DUP2 MSTORE PUSH1 0x20 ADD DUP3 DUP1 SLOAD PUSH2 0x11A8 SWAP1 PUSH2 0x47CA JUMP JUMPDEST DUP1 ISZERO PUSH2 0x11F5 JUMPI DUP1 PUSH1 0x1F LT PUSH2 0x11CA JUMPI PUSH2 0x100 DUP1 DUP4 SLOAD DIV MUL DUP4 MSTORE SWAP2 PUSH1 0x20 ADD SWAP2 PUSH2 0x11F5 JUMP JUMPDEST DUP3 ADD SWAP2 SWAP1 PUSH1 0x0 MSTORE PUSH1 0x20 PUSH1 0x0 KECCAK256 SWAP1 JUMPDEST DUP2 SLOAD DUP2 MSTORE SWAP1 PUSH1 0x1 ADD SWAP1 PUSH1 0x20 ADD DUP1 DUP4 GT PUSH2 0x11D8 JUMPI DUP3 SWAP1 SUB PUSH1 0x1F AND DUP3 ADD SWAP2 JUMPDEST POP POP POP POP POP SWAP1 DUP1 PUSH1 0x2 ADD DUP1 SLOAD PUSH2 0x120A SWAP1 PUSH2 0x47CA JUMP JUMPDEST DUP1 PUSH1 0x1F ADD PUSH1 0x20 DUP1 SWAP2 DIV MUL PUSH1 0x20 ADD PUSH1 0x40 MLOAD SWAP1 DUP2 ADD PUSH1 0x40 MSTORE DUP1 SWAP3 SWAP2 SWAP1 DUP2 DUP2 MSTORE PUSH1 0x20 ADD DUP3 DUP1 SLOAD PUSH2 0x1236 SWAP1 PUSH2 0x47CA JUMP JUMPDEST DUP1 ISZERO PUSH2 0x1283 JUMPI DUP1 PUSH1 0x1F LT PUSH2 0x1258 JUMPI PUSH2 0x100 DUP1 DUP4 SLOAD DIV MUL DUP4 MSTORE SWAP2 PUSH1 0x20 ADD SWAP2 PUSH2 0x1283 JUMP JUMPDEST DUP3 ADD SWAP2 SWAP1 PUSH1 0x0 MSTORE PUSH1 0x20 PUSH1 0x0 KECCAK256 SWAP1 JUMPDEST DUP2 SLOAD DUP2 MSTORE SWAP1 PUSH1 0x1 ADD SWAP1 PUSH1 0x20 ADD DUP1 DUP4 GT PUSH2 0x1266 JUMPI DUP3 SWAP1 SUB PUSH1 0x1F AND DUP3 ADD SWAP2 JUMPDEST POP POP POP POP POP SWAP1 POP DUP4 JUMP JUMPDEST PUSH1 0x60 PUSH1 0x0 PUSH1 0x2 SLOAD PUSH8 0xFFFFFFFFFFFFFFFF DUP2 GT ISZERO PUSH2 0x12AD JUMPI PUSH2 0x12AC PUSH2 0x37CF JUMP JUMPDEST JUMPDEST PUSH1 0x40 MLOAD SWAP1 DUP1 DUP3 MSTORE DUP1 PUSH1 0x20 MUL PUSH1 0x20 ADD DUP3 ADD PUSH1 0x40 MSTORE DUP1 ISZERO PUSH2 0x12E0 JUMPI DUP2 PUSH1 0x20 ADD JUMPDEST PUSH1 0x60 DUP2 MSTORE PUSH1 0x20 ADD SWAP1 PUSH1 0x1 SWAP1 SUB SWAP1 DUP2 PUSH2 0x12CB JUMPI SWAP1 POP JUMPDEST POP SWAP1 POP PUSH1 0x0 JUMPDEST PUSH1 0x2 SLOAD DUP2 LT ISZERO PUSH2 0x13C0 JUMPI PUSH1 0xE PUSH1 0x0 DUP3 DUP2 MSTORE PUSH1 0x20 ADD SWAP1 DUP2 MSTORE PUSH1 0x20 ADD PUSH1 0x0 KECCAK256 PUSH1 0x1 ADD DUP1 SLOAD PUSH2 0x1311 SWAP1 PUSH2 0x47CA JUMP JUMPDEST DUP1 PUSH1 0x1F ADD PUSH1 0x20 DUP1 SWAP2 DIV MUL PUSH1 0x20 ADD PUSH1 0x40 MLOAD SWAP1 DUP2 ADD PUSH1 0x40 MSTORE DUP1 SWAP3 SWAP2 SWAP1 DUP2 DUP2 MSTORE PUSH1 0x20 ADD DUP3 DUP1 SLOAD PUSH2 0x133D SWAP1 PUSH2 0x47CA JUMP JUMPDEST DUP1 ISZERO PUSH2 0x138A JUMPI DUP1 PUSH1 0x1F LT PUSH2 0x135F JUMPI PUSH2 0x100 DUP1 DUP4 SLOAD DIV MUL DUP4 MSTORE SWAP2 PUSH1 0x20 ADD SWAP2 PUSH2 0x138A JUMP JUMPDEST DUP3 ADD SWAP2 SWAP1 PUSH1 0x0 MSTORE PUSH1 0x20 PUSH1 0x0 KECCAK256 SWAP1 JUMPDEST DUP2 SLOAD DUP2 MSTORE SWAP1 PUSH1 0x1 ADD SWAP1 PUSH1 0x20 ADD DUP1 DUP4 GT PUSH2 0x136D JUMPI DUP3 SWAP1 SUB PUSH1 0x1F AND DUP3 ADD SWAP2 JUMPDEST POP POP POP POP POP DUP3 DUP3 DUP2 MLOAD DUP2 LT PUSH2 0x13A2 JUMPI PUSH2 0x13A1 PUSH2 0x48B5 JUMP JUMPDEST JUMPDEST PUSH1 0x20 MUL PUSH1 0x20 ADD ADD DUP2 SWAP1 MSTORE POP DUP1 DUP1 PUSH2 0x13B8 SWAP1 PUSH2 0x4913 JUMP JUMPDEST SWAP2 POP POP PUSH2 0x12E6 JUMP JUMPDEST POP DUP1 SWAP2 POP POP SWAP1 JUMP JUMPDEST PUSH1 0xD PUSH1 0x20 MSTORE DUP1 PUSH1 0x0 MSTORE PUSH1 0x40 PUSH1 0x0 KECCAK256 PUSH1 0x0 SWAP2 POP SWAP1 POP DUP1 PUSH1 0x0 ADD SLOAD SWAP1 DUP1 PUSH1 0x1 ADD SLOAD SWAP1 DUP1 PUSH1 0x2 ADD DUP1 SLOAD PUSH2 0x13F7 SWAP1 PUSH2 0x47CA JUMP JUMPDEST DUP1 PUSH1 0x1F ADD PUSH1 0x20 DUP1 SWAP2 DIV MUL PUSH1 0x20 ADD PUSH1 0x40 MLOAD SWAP1 DUP2 ADD PUSH1 0x40 MSTORE DUP1 SWAP3 SWAP2 SWAP1 DUP2 DUP2 MSTORE PUSH1 0x20 ADD DUP3 DUP1 SLOAD PUSH2 0x1423 SWAP1 PUSH2 0x47CA JUMP JUMPDEST DUP1 ISZERO PUSH2 0x1470 JUMPI DUP1 PUSH1 0x1F LT PUSH2 0x1445 JUMPI PUSH2 0x100 DUP1 DUP4 SLOAD DIV MUL DUP4 MSTORE SWAP2 PUSH1 0x20 ADD SWAP2 PUSH2 0x1470 JUMP JUMPDEST DUP3 ADD SWAP2 SWAP1 PUSH1 0x0 MSTORE PUSH1 0x20 PUSH1 0x0 KECCAK256 SWAP1 JUMPDEST DUP2 SLOAD DUP2 MSTORE SWAP1 PUSH1 0x1 ADD SWAP1 PUSH1 0x20 ADD DUP1 DUP4 GT PUSH2 0x1453 JUMPI DUP3 SWAP1 SUB PUSH1 0x1F AND DUP3 ADD SWAP2 JUMPDEST POP POP POP POP POP SWAP1 POP DUP4 JUMP JUMPDEST PUSH1 0x60 PUSH1 0x0 PUSH1 0xF PUSH1 0x0 DUP5 DUP2 MSTORE PUSH1 0x20 ADD SWAP1 DUP2 MSTORE PUSH1 0x20 ADD PUSH1 0x0 KECCAK256 PUSH1 0x0 ADD SLOAD SWAP1 POP PUSH1 0x0 PUSH1 0xE PUSH1 0x0 DUP4 DUP2 MSTORE PUSH1 0x20 ADD SWAP1 DUP2 MSTORE PUSH1 0x20 ADD PUSH1 0x0 KECCAK256 PUSH1 0x0 ADD DUP1 SLOAD PUSH2 0x14BA SWAP1 PUSH2 0x47CA JUMP JUMPDEST DUP1 PUSH1 0x1F ADD PUSH1 0x20 DUP1 SWAP2 DIV MUL PUSH1 0x20 ADD PUSH1 0x40 MLOAD SWAP1 DUP2 ADD PUSH1 0x40 MSTORE DUP1 SWAP3 SWAP2 SWAP1 DUP2 DUP2 MSTORE PUSH1 0x20 ADD DUP3 DUP1 SLOAD PUSH2 0x14E6 SWAP1 PUSH2 0x47CA JUMP JUMPDEST DUP1 ISZERO PUSH2 0x1533 JUMPI DUP1 PUSH1 0x1F LT PUSH2 0x1508 JUMPI PUSH2 0x100 DUP1 DUP4 SLOAD DIV MUL DUP4 MSTORE SWAP2 PUSH1 0x20 ADD SWAP2 PUSH2 0x1533 JUMP JUMPDEST DUP3 ADD SWAP2 SWAP1 PUSH1 0x0 MSTORE PUSH1 0x20 PUSH1 0x0 KECCAK256 SWAP1 JUMPDEST DUP2 SLOAD DUP2 MSTORE SWAP1 PUSH1 0x1 ADD SWAP1 PUSH1 0x20 ADD DUP1 DUP4 GT PUSH2 0x1516 JUMPI DUP3 SWAP1 SUB PUSH1 0x1F AND DUP3 ADD SWAP2 JUMPDEST POP POP POP POP POP SWAP1 POP DUP1 SWAP3 POP POP POP SWAP2 SWAP1 POP JUMP JUMPDEST PUSH1 0x17 PUSH1 0x20 MSTORE DUP1 PUSH1 0x0 MSTORE PUSH1 0x40 PUSH1 0x0 KECCAK256 PUSH1 0x0 SWAP2 POP SWAP1 POP DUP1 PUSH1 0x0 ADD SLOAD SWAP1 DUP1 PUSH1 0x1 ADD SLOAD SWAP1 DUP1 PUSH1 0x2 ADD SLOAD SWAP1 DUP1 PUSH1 0x3 ADD DUP1 SLOAD PUSH2 0x1579 SWAP1 PUSH2 0x47CA JUMP JUMPDEST DUP1 PUSH1 0x1F ADD PUSH1 0x20 DUP1 SWAP2 DIV MUL PUSH1 0x20 ADD PUSH1 0x40 MLOAD SWAP1 DUP2 ADD PUSH1 0x40 MSTORE DUP1 SWAP3 SWAP2 SWAP1 DUP2 DUP2 MSTORE PUSH1 0x20 ADD DUP3 DUP1 SLOAD PUSH2 0x15A5 SWAP1 PUSH2 0x47CA JUMP JUMPDEST DUP1 ISZERO PUSH2 0x15F2 JUMPI DUP1 PUSH1 0x1F LT PUSH2 0x15C7 JUMPI PUSH2 0x100 DUP1 DUP4 SLOAD DIV MUL DUP4 MSTORE SWAP2 PUSH1 0x20 ADD SWAP2 PUSH2 0x15F2 JUMP JUMPDEST DUP3 ADD SWAP2 SWAP1 PUSH1 0x0 MSTORE PUSH1 0x20 PUSH1 0x0 KECCAK256 SWAP1 JUMPDEST DUP2 SLOAD DUP2 MSTORE SWAP1 PUSH1 0x1 ADD SWAP1 PUSH1 0x20 ADD DUP1 DUP4 GT PUSH2 0x15D5 JUMPI DUP3 SWAP1 SUB PUSH1 0x1F AND DUP3 ADD SWAP2 JUMPDEST POP POP POP POP POP SWAP1 POP DUP5 JUMP JUMPDEST PUSH1 0xF PUSH1 0x20 MSTORE DUP1 PUSH1 0x0 MSTORE PUSH1 0x40 PUSH1 0x0 KECCAK256 PUSH1 0x0 SWAP2 POP SWAP1 POP DUP1 PUSH1 0x0 ADD SLOAD SWAP1 DUP1 PUSH1 0x1 ADD DUP1 SLOAD PUSH2 0x1625 SWAP1 PUSH2 0x47CA JUMP JUMPDEST DUP1 PUSH1 0x1F ADD PUSH1 0x20 DUP1 SWAP2 DIV MUL PUSH1 0x20 ADD PUSH1 0x40 MLOAD SWAP1 DUP2 ADD PUSH1 0x40 MSTORE DUP1 SWAP3 SWAP2 SWAP1 DUP2 DUP2 MSTORE PUSH1 0x20 ADD DUP3 DUP1 SLOAD PUSH2 0x1651 SWAP1 PUSH2 0x47CA JUMP JUMPDEST DUP1 ISZERO PUSH2 0x169E JUMPI DUP1 PUSH1 0x1F LT PUSH2 0x1673 JUMPI PUSH2 0x100 DUP1 DUP4 SLOAD DIV MUL DUP4 MSTORE SWAP2 PUSH1 0x20 ADD SWAP2 PUSH2 0x169E JUMP JUMPDEST DUP3 ADD SWAP2 SWAP1 PUSH1 0x0 MSTORE PUSH1 0x20 PUSH1 0x0 KECCAK256 SWAP1 JUMPDEST DUP2 SLOAD DUP2 MSTORE SWAP1 PUSH1 0x1 ADD SWAP1 PUSH1 0x20 ADD DUP1 DUP4 GT PUSH2 0x1681 JUMPI DUP3 SWAP1 SUB PUSH1 0x1F AND DUP3 ADD SWAP2 JUMPDEST POP POP POP POP POP SWAP1 DUP1 PUSH1 0x2 ADD SLOAD SWAP1 POP DUP4 JUMP JUMPDEST PUSH1 0x6 SLOAD DUP2 JUMP JUMPDEST PUSH1 0x60 PUSH1 0x0 PUSH1 0x6 SLOAD PUSH8 0xFFFFFFFFFFFFFFFF DUP2 GT ISZERO PUSH2 0x16D4 JUMPI PUSH2 0x16D3 PUSH2 0x37CF JUMP JUMPDEST JUMPDEST PUSH1 0x40 MLOAD SWAP1 DUP1 DUP3 MSTORE DUP1 PUSH1 0x20 MUL PUSH1 0x20 ADD DUP3 ADD PUSH1 0x40 MSTORE DUP1 ISZERO PUSH2 0x1707 JUMPI DUP2 PUSH1 0x20 ADD JUMPDEST PUSH1 0x60 DUP2 MSTORE PUSH1 0x20 ADD SWAP1 PUSH1 0x1 SWAP1 SUB SWAP1 DUP2 PUSH2 0x16F2 JUMPI SWAP1 POP JUMPDEST POP SWAP1 POP PUSH1 0x0 DUP1 PUSH1 0x0 SWAP1 POP JUMPDEST PUSH1 0x6 SLOAD DUP2 LT ISZERO PUSH2 0x17BA JUMPI DUP6 PUSH1 0x14 PUSH1 0x0 DUP4 DUP2 MSTORE PUSH1 0x20 ADD SWAP1 DUP2 MSTORE PUSH1 0x20 ADD PUSH1 0x0 KECCAK256 PUSH1 0x0 ADD SLOAD EQ DUP1 ISZERO PUSH2 0x1756 JUMPI POP DUP5 PUSH1 0x14 PUSH1 0x0 DUP4 DUP2 MSTORE PUSH1 0x20 ADD SWAP1 DUP2 MSTORE PUSH1 0x20 ADD PUSH1 0x0 KECCAK256 PUSH1 0x1 ADD SLOAD EQ JUMPDEST ISZERO PUSH2 0x1799 JUMPI PUSH2 0x177A PUSH1 0x14 PUSH1 0x0 DUP4 DUP2 MSTORE PUSH1 0x20 ADD SWAP1 DUP2 MSTORE PUSH1 0x20 ADD PUSH1 0x0 KECCAK256 PUSH1 0x2 ADD SLOAD PUSH2 0x34C2 JUMP JUMPDEST DUP4 DUP4 DUP2 MLOAD DUP2 LT PUSH2 0x178D JUMPI PUSH2 0x178C PUSH2 0x48B5 JUMP JUMPDEST JUMPDEST PUSH1 0x20 MUL PUSH1 0x20 ADD ADD DUP2 SWAP1 MSTORE POP JUMPDEST DUP2 DUP1 PUSH2 0x17A4 SWAP1 PUSH2 0x4913 JUMP JUMPDEST SWAP3 POP POP DUP1 DUP1 PUSH2 0x17B2 SWAP1 PUSH2 0x4913 JUMP JUMPDEST SWAP2 POP POP PUSH2 0x1712 JUMP JUMPDEST POP DUP2 SWAP3 POP POP POP SWAP3 SWAP2 POP POP JUMP JUMPDEST PUSH1 0x11 PUSH1 0x20 MSTORE DUP1 PUSH1 0x0 MSTORE PUSH1 0x40 PUSH1 0x0 KECCAK256 PUSH1 0x0 SWAP2 POP SWAP1 POP DUP1 PUSH1 0x0 ADD SLOAD SWAP1 DUP1 PUSH1 0x1 ADD SLOAD SWAP1 DUP1 PUSH1 0x2 ADD DUP1 SLOAD PUSH2 0x17F5 SWAP1 PUSH2 0x47CA JUMP JUMPDEST DUP1 PUSH1 0x1F ADD PUSH1 0x20 DUP1 SWAP2 DIV MUL PUSH1 0x20 ADD PUSH1 0x40 MLOAD SWAP1 DUP2 ADD PUSH1 0x40 MSTORE DUP1 SWAP3 SWAP2 SWAP1 DUP2 DUP2 MSTORE PUSH1 0x20 ADD DUP3 DUP1 SLOAD PUSH2 0x1821 SWAP1 PUSH2 0x47CA JUMP JUMPDEST DUP1 ISZERO PUSH2 0x186E JUMPI DUP1 PUSH1 0x1F LT PUSH2 0x1843 JUMPI PUSH2 0x100 DUP1 DUP4 SLOAD DIV MUL DUP4 MSTORE SWAP2 PUSH1 0x20 ADD SWAP2 PUSH2 0x186E JUMP JUMPDEST DUP3 ADD SWAP2 SWAP1 PUSH1 0x0 MSTORE PUSH1 0x20 PUSH1 0x0 KECCAK256 SWAP1 JUMPDEST DUP2 SLOAD DUP2 MSTORE SWAP1 PUSH1 0x1 ADD SWAP1 PUSH1 0x20 ADD DUP1 DUP4 GT PUSH2 0x1851 JUMPI DUP3 SWAP1 SUB PUSH1 0x1F AND DUP3 ADD SWAP2 JUMPDEST POP POP POP POP POP SWAP1 DUP1 PUSH1 0x3 ADD DUP1 SLOAD PUSH2 0x1883 SWAP1 PUSH2 0x47CA JUMP JUMPDEST DUP1 PUSH1 0x1F ADD PUSH1 0x20 DUP1 SWAP2 DIV MUL PUSH1 0x20 ADD PUSH1 0x40 MLOAD SWAP1 DUP2 ADD PUSH1 0x40 MSTORE DUP1 SWAP3 SWAP2 SWAP1 DUP2 DUP2 MSTORE PUSH1 0x20 ADD DUP3 DUP1 SLOAD PUSH2 0x18AF SWAP1 PUSH2 0x47CA JUMP JUMPDEST DUP1 ISZERO PUSH2 0x18FC JUMPI DUP1 PUSH1 0x1F LT PUSH2 0x18D1 JUMPI PUSH2 0x100 DUP1 DUP4 SLOAD DIV MUL DUP4 MSTORE SWAP2 PUSH1 0x20 ADD SWAP2 PUSH2 0x18FC JUMP JUMPDEST DUP3 ADD SWAP2 SWAP1 PUSH1 0x0 MSTORE PUSH1 0x20 PUSH1 0x0 KECCAK256 SWAP1 JUMPDEST DUP2 SLOAD DUP2 MSTORE SWAP1 PUSH1 0x1 ADD SWAP1 PUSH1 0x20 ADD DUP1 DUP4 GT PUSH2 0x18DF JUMPI DUP3 SWAP1 SUB PUSH1 0x1F AND DUP3 ADD SWAP2 JUMPDEST POP POP POP POP POP SWAP1 POP DUP5 JUMP JUMPDEST PUSH1 0x0 ISZERO ISZERO PUSH1 0x18 PUSH1 0x0 DUP6 DUP2 MSTORE PUSH1 0x20 ADD SWAP1 DUP2 MSTORE PUSH1 0x20 ADD PUSH1 0x0 KECCAK256 PUSH1 0x1 ADD PUSH1 0x5 SWAP1 SLOAD SWAP1 PUSH2 0x100 EXP SWAP1 DIV PUSH1 0xFF AND ISZERO ISZERO SUB PUSH2 0x1975 JUMPI PUSH2 0x1974 DUP3 PUSH1 0x40 MLOAD DUP1 PUSH1 0x40 ADD PUSH1 0x40 MSTORE DUP1 PUSH1 0x5 DUP2 MSTORE PUSH1 0x20 ADD PUSH32 0x6261646765000000000000000000000000000000000000000000000000000000 DUP2 MSTORE POP PUSH2 0x2CE4 JUMP JUMPDEST JUMPDEST PUSH2 0x19B4 DUP2 PUSH1 0x40 MLOAD DUP1 PUSH1 0x40 ADD PUSH1 0x40 MSTORE DUP1 PUSH1 0x8 DUP2 MSTORE PUSH1 0x20 ADD PUSH32 0x646F6E6174696F6E000000000000000000000000000000000000000000000000 DUP2 MSTORE POP PUSH2 0x2CE4 JUMP JUMPDEST PUSH1 0x1 PUSH1 0x18 PUSH1 0x0 DUP6 DUP2 MSTORE PUSH1 0x20 ADD SWAP1 DUP2 MSTORE PUSH1 0x20 ADD PUSH1 0x0 KECCAK256 PUSH1 0x1 ADD PUSH1 0x5 PUSH2 0x100 EXP DUP2 SLOAD DUP2 PUSH1 0xFF MUL NOT AND SWAP1 DUP4 ISZERO ISZERO MUL OR SWAP1 SSTORE POP DUP4 PUSH1 0xF PUSH1 0x0 DUP8 DUP2 MSTORE PUSH1 0x20 ADD SWAP1 DUP2 MSTORE PUSH1 0x20 ADD PUSH1 0x0 KECCAK256 PUSH1 0x2 ADD PUSH1 0x0 DUP3 DUP3 SLOAD PUSH2 0x1A09 SWAP2 SWAP1 PUSH2 0x495B JUMP JUMPDEST SWAP3 POP POP DUP2 SWAP1 SSTORE POP DUP4 PUSH1 0x10 PUSH1 0x0 DUP6 DUP2 MSTORE PUSH1 0x20 ADD SWAP1 DUP2 MSTORE PUSH1 0x20 ADD PUSH1 0x0 KECCAK256 PUSH1 0x0 DUP3 DUP3 SLOAD PUSH2 0x1A33 SWAP2 SWAP1 PUSH2 0x495B JUMP JUMPDEST SWAP3 POP POP DUP2 SWAP1 SSTORE POP PUSH1 0x40 MLOAD DUP1 PUSH1 0x60 ADD PUSH1 0x40 MSTORE DUP1 DUP7 DUP2 MSTORE PUSH1 0x20 ADD DUP5 DUP2 MSTORE PUSH1 0x20 ADD DUP6 DUP2 MSTORE POP PUSH1 0x12 PUSH1 0x0 PUSH1 0x1 SLOAD DUP2 MSTORE PUSH1 0x20 ADD SWAP1 DUP2 MSTORE PUSH1 0x20 ADD PUSH1 0x0 KECCAK256 PUSH1 0x0 DUP3 ADD MLOAD DUP2 PUSH1 0x0 ADD SSTORE PUSH1 0x20 DUP3 ADD MLOAD DUP2 PUSH1 0x1 ADD SSTORE PUSH1 0x40 DUP3 ADD MLOAD DUP2 PUSH1 0x2 ADD SSTORE SWAP1 POP POP PUSH1 0x1 PUSH1 0x0 DUP2 SLOAD DUP1 SWAP3 SWAP2 SWAP1 PUSH2 0x1A9E SWAP1 PUSH2 0x4913 JUMP JUMPDEST SWAP2 SWAP1 POP SSTORE POP POP POP POP POP POP JUMP JUMPDEST PUSH1 0x1 PUSH1 0x18 PUSH1 0x0 DUP6 DUP2 MSTORE PUSH1 0x20 ADD SWAP1 DUP2 MSTORE PUSH1 0x20 ADD PUSH1 0x0 KECCAK256 PUSH1 0x1 ADD PUSH1 0x1 PUSH2 0x100 EXP DUP2 SLOAD DUP2 PUSH1 0xFF MUL NOT AND SWAP1 DUP4 ISZERO ISZERO MUL OR SWAP1 SSTORE POP PUSH1 0x40 MLOAD DUP1 PUSH1 0x60 ADD PUSH1 0x40 MSTORE DUP1 DUP6 DUP2 MSTORE PUSH1 0x20 ADD DUP5 DUP2 MSTORE PUSH1 0x20 ADD DUP4 DUP2 MSTORE POP PUSH1 0xD PUSH1 0x0 PUSH1 0x4 SLOAD DUP2 MSTORE PUSH1 0x20 ADD SWAP1 DUP2 MSTORE PUSH1 0x20 ADD PUSH1 0x0 KECCAK256 PUSH1 0x0 DUP3 ADD MLOAD DUP2 PUSH1 0x0 ADD SSTORE PUSH1 0x20 DUP3 ADD MLOAD DUP2 PUSH1 0x1 ADD SSTORE PUSH1 0x40 DUP3 ADD MLOAD DUP2 PUSH1 0x2 ADD SWAP1 DUP2 PUSH2 0x1B32 SWAP2 SWAP1 PUSH2 0x4B3B JUMP JUMPDEST POP SWAP1 POP POP PUSH1 0x4 PUSH1 0x0 DUP2 SLOAD DUP1 SWAP3 SWAP2 SWAP1 PUSH2 0x1B49 SWAP1 PUSH2 0x4913 JUMP JUMPDEST SWAP2 SWAP1 POP SSTORE POP PUSH2 0x1B8D DUP2 PUSH1 0x40 MLOAD DUP1 PUSH1 0x40 ADD PUSH1 0x40 MSTORE DUP1 PUSH1 0x4 DUP2 MSTORE PUSH1 0x20 ADD PUSH32 0x6A6F696E00000000000000000000000000000000000000000000000000000000 DUP2 MSTORE POP PUSH2 0x2CE4 JUMP JUMPDEST POP POP POP POP JUMP JUMPDEST PUSH1 0x60 PUSH1 0xB PUSH1 0x0 DUP4 DUP2 MSTORE PUSH1 0x20 ADD SWAP1 DUP2 MSTORE PUSH1 0x20 ADD PUSH1 0x0 KECCAK256 PUSH1 0x1 ADD DUP1 SLOAD PUSH2 0x1BB6 SWAP1 PUSH2 0x47CA JUMP JUMPDEST DUP1 PUSH1 0x1F ADD PUSH1 0x20 DUP1 SWAP2 DIV MUL PUSH1 0x20 ADD PUSH1 0x40 MLOAD SWAP1 DUP2 ADD PUSH1 0x40 MSTORE DUP1 SWAP3 SWAP2 SWAP1 DUP2 DUP2 MSTORE PUSH1 0x20 ADD DUP3 DUP1 SLOAD PUSH2 0x1BE2 SWAP1 PUSH2 0x47CA JUMP JUMPDEST DUP1 ISZERO PUSH2 0x1C2F JUMPI DUP1 PUSH1 0x1F LT PUSH2 0x1C04 JUMPI PUSH2 0x100 DUP1 DUP4 SLOAD DIV MUL DUP4 MSTORE SWAP2 PUSH1 0x20 ADD SWAP2 PUSH2 0x1C2F JUMP JUMPDEST DUP3 ADD SWAP2 SWAP1 PUSH1 0x0 MSTORE PUSH1 0x20 PUSH1 0x0 KECCAK256 SWAP1 JUMPDEST DUP2 SLOAD DUP2 MSTORE SWAP1 PUSH1 0x1 ADD SWAP1 PUSH1 0x20 ADD DUP1 DUP4 GT PUSH2 0x1C12 JUMPI DUP3 SWAP1 SUB PUSH1 0x1F AND DUP3 ADD SWAP2 JUMPDEST POP POP POP POP POP SWAP1 POP SWAP2 SWAP1 POP JUMP JUMPDEST PUSH1 0xC PUSH1 0x20 MSTORE DUP1 PUSH1 0x0 MSTORE PUSH1 0x40 PUSH1 0x0 KECCAK256 PUSH1 0x0 SWAP2 POP SWAP1 POP DUP1 SLOAD PUSH2 0x1C5A SWAP1 PUSH2 0x47CA JUMP JUMPDEST DUP1 PUSH1 0x1F ADD PUSH1 0x20 DUP1 SWAP2 DIV MUL PUSH1 0x20 ADD PUSH1 0x40 MLOAD SWAP1 DUP2 ADD PUSH1 0x40 MSTORE DUP1 SWAP3 SWAP2 SWAP1 DUP2 DUP2 MSTORE PUSH1 0x20 ADD DUP3 DUP1 SLOAD PUSH2 0x1C86 SWAP1 PUSH2 0x47CA JUMP JUMPDEST DUP1 ISZERO PUSH2 0x1CD3 JUMPI DUP1 PUSH1 0x1F LT PUSH2 0x1CA8 JUMPI PUSH2 0x100 DUP1 DUP4 SLOAD DIV MUL DUP4 MSTORE SWAP2 PUSH1 0x20 ADD SWAP2 PUSH2 0x1CD3 JUMP JUMPDEST DUP3 ADD SWAP2 SWAP1 PUSH1 0x0 MSTORE PUSH1 0x20 PUSH1 0x0 KECCAK256 SWAP1 JUMPDEST DUP2 SLOAD DUP2 MSTORE SWAP1 PUSH1 0x1 ADD SWAP1 PUSH1 0x20 ADD DUP1 DUP4 GT PUSH2 0x1CB6 JUMPI DUP3 SWAP1 SUB PUSH1 0x1F AND DUP3 ADD SWAP2 JUMPDEST POP POP POP POP POP DUP2 JUMP JUMPDEST PUSH1 0x0 PUSH1 0x1 PUSH1 0x18 PUSH1 0x0 DUP5 DUP2 MSTORE PUSH1 0x20 ADD SWAP1 DUP2 MSTORE PUSH1 0x20 ADD PUSH1 0x0 KECCAK256 PUSH1 0x1 ADD PUSH1 0x6 PUSH2 0x100 EXP DUP2 SLOAD DUP2 PUSH1 0xFF MUL NOT AND SWAP1 DUP4 ISZERO ISZERO MUL OR SWAP1 SSTORE POP PUSH1 0x40 MLOAD DUP1 PUSH1 0x80 ADD PUSH1 0x40 MSTORE DUP1 PUSH1 0x7 SLOAD DUP2 MSTORE PUSH1 0x20 ADD DUP7 DUP2 MSTORE PUSH1 0x20 ADD DUP6 DUP2 MSTORE PUSH1 0x20 ADD DUP5 DUP2 MSTORE POP PUSH1 0x15 PUSH1 0x0 PUSH1 0x7 SLOAD DUP2 MSTORE PUSH1 0x20 ADD SWAP1 DUP2 MSTORE PUSH1 0x20 ADD PUSH1 0x0 KECCAK256 PUSH1 0x0 DUP3 ADD MLOAD DUP2 PUSH1 0x0 ADD SSTORE PUSH1 0x20 DUP3 ADD MLOAD DUP2 PUSH1 0x1 ADD SSTORE PUSH1 0x40 DUP3 ADD MLOAD DUP2 PUSH1 0x2 ADD SWAP1 DUP2 PUSH2 0x1D6D SWAP2 SWAP1 PUSH2 0x4B3B JUMP JUMPDEST POP PUSH1 0x60 DUP3 ADD MLOAD DUP2 PUSH1 0x3 ADD SWAP1 DUP2 PUSH2 0x1D83 SWAP2 SWAP1 PUSH2 0x4B3B JUMP JUMPDEST POP SWAP1 POP POP PUSH1 0x7 PUSH1 0x0 DUP2 SLOAD DUP1 SWAP3 SWAP2 SWAP1 PUSH2 0x1D9A SWAP1 PUSH2 0x4913 JUMP JUMPDEST SWAP2 SWAP1 POP SSTORE POP PUSH1 0x7 SLOAD SWAP1 POP SWAP5 SWAP4 POP POP POP POP JUMP JUMPDEST PUSH1 0x0 DUP1 PUSH1 0x0 SWAP1 POP JUMPDEST PUSH1 0x4 SLOAD DUP2 LT ISZERO PUSH2 0x1E1A JUMPI DUP3 PUSH1 0xD PUSH1 0x0 DUP4 DUP2 MSTORE PUSH1 0x20 ADD SWAP1 DUP2 MSTORE PUSH1 0x20 ADD PUSH1 0x0 KECCAK256 PUSH1 0x1 ADD SLOAD EQ DUP1 ISZERO PUSH2 0x1DF8 JUMPI POP DUP4 PUSH1 0xD PUSH1 0x0 DUP4 DUP2 MSTORE PUSH1 0x20 ADD SWAP1 DUP2 MSTORE PUSH1 0x20 ADD PUSH1 0x0 KECCAK256 PUSH1 0x0 ADD SLOAD EQ JUMPDEST ISZERO PUSH2 0x1E07 JUMPI PUSH1 0x1 SWAP2 POP POP PUSH2 0x1E20 JUMP JUMPDEST DUP1 DUP1 PUSH2 0x1E12 SWAP1 PUSH2 0x4913 JUMP JUMPDEST SWAP2 POP POP PUSH2 0x1DB4 JUMP JUMPDEST POP PUSH1 0x0 SWAP1 POP JUMPDEST SWAP3 SWAP2 POP POP JUMP JUMPDEST PUSH1 0x0 SLOAD DUP2 JUMP JUMPDEST PUSH1 0xE PUSH1 0x20 MSTORE DUP1 PUSH1 0x0 MSTORE PUSH1 0x40 PUSH1 0x0 KECCAK256 PUSH1 0x0 SWAP2 POP SWAP1 POP DUP1 PUSH1 0x0 ADD DUP1 SLOAD PUSH2 0x1E4F SWAP1 PUSH2 0x47CA JUMP JUMPDEST DUP1 PUSH1 0x1F ADD PUSH1 0x20 DUP1 SWAP2 DIV MUL PUSH1 0x20 ADD PUSH1 0x40 MLOAD SWAP1 DUP2 ADD PUSH1 0x40 MSTORE DUP1 SWAP3 SWAP2 SWAP1 DUP2 DUP2 MSTORE PUSH1 0x20 ADD DUP3 DUP1 SLOAD PUSH2 0x1E7B SWAP1 PUSH2 0x47CA JUMP JUMPDEST DUP1 ISZERO PUSH2 0x1EC8 JUMPI DUP1 PUSH1 0x1F LT PUSH2 0x1E9D JUMPI PUSH2 0x100 DUP1 DUP4 SLOAD DIV MUL DUP4 MSTORE SWAP2 PUSH1 0x20 ADD SWAP2 PUSH2 0x1EC8 JUMP JUMPDEST DUP3 ADD SWAP2 SWAP1 PUSH1 0x0 MSTORE PUSH1 0x20 PUSH1 0x0 KECCAK256 SWAP1 JUMPDEST DUP2 SLOAD DUP2 MSTORE SWAP1 PUSH1 0x1 ADD SWAP1 PUSH1 0x20 ADD DUP1 DUP4 GT PUSH2 0x1EAB JUMPI DUP3 SWAP1 SUB PUSH1 0x1F AND DUP3 ADD SWAP2 JUMPDEST POP POP POP POP POP SWAP1 DUP1 PUSH1 0x1 ADD DUP1 SLOAD PUSH2 0x1EDD SWAP1 PUSH2 0x47CA JUMP JUMPDEST DUP1 PUSH1 0x1F ADD PUSH1 0x20 DUP1 SWAP2 DIV MUL PUSH1 0x20 ADD PUSH1 0x40 MLOAD SWAP1 DUP2 ADD PUSH1 0x40 MSTORE DUP1 SWAP3 SWAP2 SWAP1 DUP2 DUP2 MSTORE PUSH1 0x20 ADD DUP3 DUP1 SLOAD PUSH2 0x1F09 SWAP1 PUSH2 0x47CA JUMP JUMPDEST DUP1 ISZERO PUSH2 0x1F56 JUMPI DUP1 PUSH1 0x1F LT PUSH2 0x1F2B JUMPI PUSH2 0x100 DUP1 DUP4 SLOAD DIV MUL DUP4 MSTORE SWAP2 PUSH1 0x20 ADD SWAP2 PUSH2 0x1F56 JUMP JUMPDEST DUP3 ADD SWAP2 SWAP1 PUSH1 0x0 MSTORE PUSH1 0x20 PUSH1 0x0 KECCAK256 SWAP1 JUMPDEST DUP2 SLOAD DUP2 MSTORE SWAP1 PUSH1 0x1 ADD SWAP1 PUSH1 0x20 ADD DUP1 DUP4 GT PUSH2 0x1F39 JUMPI DUP3 SWAP1 SUB PUSH1 0x1F AND DUP3 ADD SWAP2 JUMPDEST POP POP POP POP POP SWAP1 POP DUP3 JUMP JUMPDEST PUSH1 0x12 PUSH1 0x20 MSTORE DUP1 PUSH1 0x0 MSTORE PUSH1 0x40 PUSH1 0x0 KECCAK256 PUSH1 0x0 SWAP2 POP SWAP1 POP DUP1 PUSH1 0x0 ADD SLOAD SWAP1 DUP1 PUSH1 0x1 ADD SLOAD SWAP1 DUP1 PUSH1 0x2 ADD SLOAD SWAP1 POP DUP4 JUMP JUMPDEST PUSH1 0x60 PUSH1 0x0 PUSH1 0x7 SLOAD PUSH8 0xFFFFFFFFFFFFFFFF DUP2 GT ISZERO PUSH2 0x1FAA JUMPI PUSH2 0x1FA9 PUSH2 0x37CF JUMP JUMPDEST JUMPDEST PUSH1 0x40 MLOAD SWAP1 DUP1 DUP3 MSTORE DUP1 PUSH1 0x20 MUL PUSH1 0x20 ADD DUP3 ADD PUSH1 0x40 MSTORE DUP1 ISZERO PUSH2 0x1FD8 JUMPI DUP2 PUSH1 0x20 ADD PUSH1 0x20 DUP3 MUL DUP1 CALLDATASIZE DUP4 CALLDATACOPY DUP1 DUP3 ADD SWAP2 POP POP SWAP1 POP JUMPDEST POP SWAP1 POP PUSH1 0x0 DUP1 PUSH1 0x0 SWAP1 POP JUMPDEST PUSH1 0x7 SLOAD DUP2 LT ISZERO PUSH2 0x2062 JUMPI DUP5 PUSH1 0x15 PUSH1 0x0 DUP4 DUP2 MSTORE PUSH1 0x20 ADD SWAP1 DUP2 MSTORE PUSH1 0x20 ADD PUSH1 0x0 KECCAK256 PUSH1 0x1 ADD SLOAD SUB PUSH2 0x204F JUMPI PUSH1 0x15 PUSH1 0x0 DUP3 DUP2 MSTORE PUSH1 0x20 ADD SWAP1 DUP2 MSTORE PUSH1 0x20 ADD PUSH1 0x0 KECCAK256 PUSH1 0x0 ADD SLOAD DUP4 DUP4 DUP2 MLOAD DUP2 LT PUSH2 0x2034 JUMPI PUSH2 0x2033 PUSH2 0x48B5 JUMP JUMPDEST JUMPDEST PUSH1 0x20 MUL PUSH1 0x20 ADD ADD DUP2 DUP2 MSTORE POP POP DUP2 DUP1 PUSH2 0x204B SWAP1 PUSH2 0x4913 JUMP JUMPDEST SWAP3 POP POP JUMPDEST DUP1 DUP1 PUSH2 0x205A SWAP1 PUSH2 0x4913 JUMP JUMPDEST SWAP2 POP POP PUSH2 0x1FE3 JUMP JUMPDEST POP DUP2 SWAP3 POP POP POP SWAP2 SWAP1 POP JUMP JUMPDEST PUSH1 0x60 PUSH1 0x0 PUSH1 0x9 SLOAD PUSH8 0xFFFFFFFFFFFFFFFF DUP2 GT ISZERO PUSH2 0x208D JUMPI PUSH2 0x208C PUSH2 0x37CF JUMP JUMPDEST JUMPDEST PUSH1 0x40 MLOAD SWAP1 DUP1 DUP3 MSTORE DUP1 PUSH1 0x20 MUL PUSH1 0x20 ADD DUP3 ADD PUSH1 0x40 MSTORE DUP1 ISZERO PUSH2 0x20BB JUMPI DUP2 PUSH1 0x20 ADD PUSH1 0x20 DUP3 MUL DUP1 CALLDATASIZE DUP4 CALLDATACOPY DUP1 DUP3 ADD SWAP2 POP POP SWAP1 POP JUMPDEST POP SWAP1 POP PUSH1 0x0 DUP1 PUSH1 0x0 SWAP1 POP JUMPDEST PUSH1 0x9 SLOAD DUP2 LT ISZERO PUSH2 0x2145 JUMPI DUP5 PUSH1 0x17 PUSH1 0x0 DUP4 DUP2 MSTORE PUSH1 0x20 ADD SWAP1 DUP2 MSTORE PUSH1 0x20 ADD PUSH1 0x0 KECCAK256 PUSH1 0x1 ADD SLOAD SUB PUSH2 0x2132 JUMPI PUSH1 0x17 PUSH1 0x0 DUP3 DUP2 MSTORE PUSH1 0x20 ADD SWAP1 DUP2 MSTORE PUSH1 0x20 ADD PUSH1 0x0 KECCAK256 PUSH1 0x0 ADD SLOAD DUP4 DUP4 DUP2 MLOAD DUP2 LT PUSH2 0x2117 JUMPI PUSH2 0x2116 PUSH2 0x48B5 JUMP JUMPDEST JUMPDEST PUSH1 0x20 MUL PUSH1 0x20 ADD ADD DUP2 DUP2 MSTORE POP POP DUP2 DUP1 PUSH2 0x212E SWAP1 PUSH2 0x4913 JUMP JUMPDEST SWAP3 POP POP JUMPDEST DUP1 DUP1 PUSH2 0x213D SWAP1 PUSH2 0x4913 JUMP JUMPDEST SWAP2 POP POP PUSH2 0x20C6 JUMP JUMPDEST POP DUP2 SWAP3 POP POP POP SWAP2 SWAP1 POP JUMP JUMPDEST PUSH1 0x40 MLOAD DUP1 PUSH1 0x60 ADD PUSH1 0x40 MSTORE DUP1 PUSH2 0x270F DUP2 MSTORE PUSH1 0x20 ADD PUSH2 0x270F DUP2 MSTORE PUSH1 0x20 ADD PUSH1 0x40 MLOAD DUP1 PUSH1 0x20 ADD PUSH1 0x40 MSTORE DUP1 PUSH1 0x0 DUP2 MSTORE POP DUP2 MSTORE POP PUSH1 0xD PUSH1 0x0 DUP4 DUP2 MSTORE PUSH1 0x20 ADD SWAP1 DUP2 MSTORE PUSH1 0x20 ADD PUSH1 0x0 KECCAK256 PUSH1 0x0 DUP3 ADD MLOAD DUP2 PUSH1 0x0 ADD SSTORE PUSH1 0x20 DUP3 ADD MLOAD DUP2 PUSH1 0x1 ADD SSTORE PUSH1 0x40 DUP3 ADD MLOAD DUP2 PUSH1 0x2 ADD SWAP1 DUP2 PUSH2 0x21BA SWAP2 SWAP1 PUSH2 0x4B3B JUMP JUMPDEST POP SWAP1 POP POP POP JUMP JUMPDEST PUSH1 0x0 PUSH1 0x40 MLOAD DUP1 PUSH1 0x60 ADD PUSH1 0x40 MSTORE DUP1 DUP7 DUP2 MSTORE PUSH1 0x20 ADD DUP6 DUP2 MSTORE PUSH1 0x20 ADD PUSH1 0x40 MLOAD DUP1 PUSH1 0x40 ADD PUSH1 0x40 MSTORE DUP1 PUSH1 0x5 DUP2 MSTORE PUSH1 0x20 ADD PUSH32 0x46616C7365000000000000000000000000000000000000000000000000000000 DUP2 MSTORE POP DUP2 MSTORE POP PUSH1 0xB PUSH1 0x0 DUP1 SLOAD DUP2 MSTORE PUSH1 0x20 ADD SWAP1 DUP2 MSTORE PUSH1 0x20 ADD PUSH1 0x0 KECCAK256 PUSH1 0x0 DUP3 ADD MLOAD DUP2 PUSH1 0x0 ADD SWAP1 DUP2 PUSH2 0x223C SWAP2 SWAP1 PUSH2 0x4B3B JUMP JUMPDEST POP PUSH1 0x20 DUP3 ADD MLOAD DUP2 PUSH1 0x1 ADD SWAP1 DUP2 PUSH2 0x2252 SWAP2 SWAP1 PUSH2 0x4B3B JUMP JUMPDEST POP PUSH1 0x40 DUP3 ADD MLOAD DUP2 PUSH1 0x2 ADD SWAP1 DUP2 PUSH2 0x2268 SWAP2 SWAP1 PUSH2 0x4B3B JUMP JUMPDEST POP SWAP1 POP POP DUP3 PUSH1 0xC PUSH1 0x0 DUP1 SLOAD DUP2 MSTORE PUSH1 0x20 ADD SWAP1 DUP2 MSTORE PUSH1 0x20 ADD PUSH1 0x0 KECCAK256 SWAP1 DUP2 PUSH2 0x228D SWAP2 SWAP1 PUSH2 0x4B3B JUMP JUMPDEST POP PUSH1 0x1 PUSH1 0x18 PUSH1 0x0 DUP5 DUP2 MSTORE PUSH1 0x20 ADD SWAP1 DUP2 MSTORE PUSH1 0x20 ADD PUSH1 0x0 KECCAK256 PUSH1 0x1 ADD PUSH1 0x0 PUSH2 0x100 EXP DUP2 SLOAD DUP2 PUSH1 0xFF MUL NOT AND SWAP1 DUP4 ISZERO ISZERO MUL OR SWAP1 SSTORE POP PUSH1 0x0 DUP1 DUP2 SLOAD DUP1 SWAP3 SWAP2 SWAP1 PUSH2 0x22CF SWAP1 PUSH2 0x4913 JUMP JUMPDEST SWAP2 SWAP1 POP SSTORE POP PUSH1 0x0 SLOAD SWAP1 POP SWAP5 SWAP4 POP POP POP POP JUMP JUMPDEST DUP1 PUSH1 0xC PUSH1 0x0 DUP5 DUP2 MSTORE PUSH1 0x20 ADD SWAP1 DUP2 MSTORE PUSH1 0x20 ADD PUSH1 0x0 KECCAK256 SWAP1 DUP2 PUSH2 0x2301 SWAP2 SWAP1 PUSH2 0x4B3B JUMP JUMPDEST POP POP POP JUMP JUMPDEST DUP2 PUSH1 0xB PUSH1 0x0 DUP6 DUP2 MSTORE PUSH1 0x20 ADD SWAP1 DUP2 MSTORE PUSH1 0x20 ADD PUSH1 0x0 KECCAK256 PUSH1 0x0 ADD SWAP1 DUP2 PUSH2 0x2329 SWAP2 SWAP1 PUSH2 0x4B3B JUMP JUMPDEST POP DUP1 PUSH1 0xB PUSH1 0x0 DUP6 DUP2 MSTORE PUSH1 0x20 ADD SWAP1 DUP2 MSTORE PUSH1 0x20 ADD PUSH1 0x0 KECCAK256 PUSH1 0x1 ADD SWAP1 DUP2 PUSH2 0x234D SWAP2 SWAP1 PUSH2 0x4B3B JUMP JUMPDEST POP POP POP POP JUMP JUMPDEST PUSH1 0xA SLOAD DUP2 JUMP JUMPDEST PUSH1 0x60 PUSH1 0xF PUSH1 0x0 DUP4 DUP2 MSTORE PUSH1 0x20 ADD SWAP1 DUP2 MSTORE PUSH1 0x20 ADD PUSH1 0x0 KECCAK256 PUSH1 0x1 ADD DUP1 SLOAD PUSH2 0x237C SWAP1 PUSH2 0x47CA JUMP JUMPDEST DUP1 PUSH1 0x1F ADD PUSH1 0x20 DUP1 SWAP2 DIV MUL PUSH1 0x20 ADD PUSH1 0x40 MLOAD SWAP1 DUP2 ADD PUSH1 0x40 MSTORE DUP1 SWAP3 SWAP2 SWAP1 DUP2 DUP2 MSTORE PUSH1 0x20 ADD DUP3 DUP1 SLOAD PUSH2 0x23A8 SWAP1 PUSH2 0x47CA JUMP JUMPDEST DUP1 ISZERO PUSH2 0x23F5 JUMPI DUP1 PUSH1 0x1F LT PUSH2 0x23CA JUMPI PUSH2 0x100 DUP1 DUP4 SLOAD DIV MUL DUP4 MSTORE SWAP2 PUSH1 0x20 ADD SWAP2 PUSH2 0x23F5 JUMP JUMPDEST DUP3 ADD SWAP2 SWAP1 PUSH1 0x0 MSTORE PUSH1 0x20 PUSH1 0x0 KECCAK256 SWAP1 JUMPDEST DUP2 SLOAD DUP2 MSTORE SWAP1 PUSH1 0x1 ADD SWAP1 PUSH1 0x20 ADD DUP1 DUP4 GT PUSH2 0x23D8 JUMPI DUP3 SWAP1 SUB PUSH1 0x1F AND DUP3 ADD SWAP2 JUMPDEST POP POP POP POP POP SWAP1 POP SWAP2 SWAP1 POP JUMP JUMPDEST PUSH1 0x7 SLOAD DUP2 JUMP JUMPDEST PUSH1 0x0 PUSH1 0x40 MLOAD DUP1 PUSH1 0x80 ADD PUSH1 0x40 MSTORE DUP1 DUP7 DUP2 MSTORE PUSH1 0x20 ADD DUP6 DUP2 MSTORE PUSH1 0x20 ADD DUP5 DUP2 MSTORE PUSH1 0x20 ADD DUP4 DUP2 MSTORE POP PUSH1 0x16 PUSH1 0x0 PUSH1 0x8 SLOAD DUP2 MSTORE PUSH1 0x20 ADD SWAP1 DUP2 MSTORE PUSH1 0x20 ADD PUSH1 0x0 KECCAK256 PUSH1 0x0 DUP3 ADD MLOAD DUP2 PUSH1 0x0 ADD SSTORE PUSH1 0x20 DUP3 ADD MLOAD DUP2 PUSH1 0x1 ADD SSTORE PUSH1 0x40 DUP3 ADD MLOAD DUP2 PUSH1 0x2 ADD SSTORE PUSH1 0x60 DUP3 ADD MLOAD DUP2 PUSH1 0x3 ADD SWAP1 DUP2 PUSH2 0x2472 SWAP2 SWAP1 PUSH2 0x4B3B JUMP JUMPDEST POP SWAP1 POP POP PUSH1 0x8 PUSH1 0x0 DUP2 SLOAD DUP1 SWAP3 SWAP2 SWAP1 PUSH2 0x2489 SWAP1 PUSH2 0x4913 JUMP JUMPDEST SWAP2 SWAP1 POP SSTORE POP PUSH1 0x8 SLOAD SWAP1 POP SWAP5 SWAP4 POP POP POP POP JUMP JUMPDEST PUSH1 0x60 PUSH1 0x0 PUSH1 0x3 SLOAD PUSH8 0xFFFFFFFFFFFFFFFF DUP2 GT ISZERO PUSH2 0x24BB JUMPI PUSH2 0x24BA PUSH2 0x37CF JUMP JUMPDEST JUMPDEST PUSH1 0x40 MLOAD SWAP1 DUP1 DUP3 MSTORE DUP1 PUSH1 0x20 MUL PUSH1 0x20 ADD DUP3 ADD PUSH1 0x40 MSTORE DUP1 ISZERO PUSH2 0x24EE JUMPI DUP2 PUSH1 0x20 ADD JUMPDEST PUSH1 0x60 DUP2 MSTORE PUSH1 0x20 ADD SWAP1 PUSH1 0x1 SWAP1 SUB SWAP1 DUP2 PUSH2 0x24D9 JUMPI SWAP1 POP JUMPDEST POP SWAP1 POP PUSH1 0x0 JUMPDEST PUSH1 0x3 SLOAD DUP2 LT ISZERO PUSH2 0x25CE JUMPI PUSH1 0xF PUSH1 0x0 DUP3 DUP2 MSTORE PUSH1 0x20 ADD SWAP1 DUP2 MSTORE PUSH1 0x20 ADD PUSH1 0x0 KECCAK256 PUSH1 0x1 ADD DUP1 SLOAD PUSH2 0x251F SWAP1 PUSH2 0x47CA JUMP JUMPDEST DUP1 PUSH1 0x1F ADD PUSH1 0x20 DUP1 SWAP2 DIV MUL PUSH1 0x20 ADD PUSH1 0x40 MLOAD SWAP1 DUP2 ADD PUSH1 0x40 MSTORE DUP1 SWAP3 SWAP2 SWAP1 DUP2 DUP2 MSTORE PUSH1 0x20 ADD DUP3 DUP1 SLOAD PUSH2 0x254B SWAP1 PUSH2 0x47CA JUMP JUMPDEST DUP1 ISZERO PUSH2 0x2598 JUMPI DUP1 PUSH1 0x1F LT PUSH2 0x256D JUMPI PUSH2 0x100 DUP1 DUP4 SLOAD DIV MUL DUP4 MSTORE SWAP2 PUSH1 0x20 ADD SWAP2 PUSH2 0x2598 JUMP JUMPDEST DUP3 ADD SWAP2 SWAP1 PUSH1 0x0 MSTORE PUSH1 0x20 PUSH1 0x0 KECCAK256 SWAP1 JUMPDEST DUP2 SLOAD DUP2 MSTORE SWAP1 PUSH1 0x1 ADD SWAP1 PUSH1 0x20 ADD DUP1 DUP4 GT PUSH2 0x257B JUMPI DUP3 SWAP1 SUB PUSH1 0x1F AND DUP3 ADD SWAP2 JUMPDEST POP POP POP POP POP DUP3 DUP3 DUP2 MLOAD DUP2 LT PUSH2 0x25B0 JUMPI PUSH2 0x25AF PUSH2 0x48B5 JUMP JUMPDEST JUMPDEST PUSH1 0x20 MUL PUSH1 0x20 ADD ADD DUP2 SWAP1 MSTORE POP DUP1 DUP1 PUSH2 0x25C6 SWAP1 PUSH2 0x4913 JUMP JUMPDEST SWAP2 POP POP PUSH2 0x24F4 JUMP JUMPDEST POP DUP1 SWAP2 POP POP SWAP1 JUMP JUMPDEST PUSH1 0x0 DUP1 PUSH1 0x0 SWAP1 POP JUMPDEST PUSH1 0x3 SLOAD DUP2 LT ISZERO PUSH2 0x263C JUMPI DUP3 DUP1 MLOAD SWAP1 PUSH1 0x20 ADD KECCAK256 PUSH1 0xF PUSH1 0x0 DUP4 DUP2 MSTORE PUSH1 0x20 ADD SWAP1 DUP2 MSTORE PUSH1 0x20 ADD PUSH1 0x0 KECCAK256 PUSH1 0x1 ADD PUSH1 0x40 MLOAD PUSH2 0x2613 SWAP2 SWAP1 PUSH2 0x489E JUMP JUMPDEST PUSH1 0x40 MLOAD DUP1 SWAP2 SUB SWAP1 KECCAK256 SUB PUSH2 0x2629 JUMPI DUP1 SWAP2 POP POP PUSH2 0x2642 JUMP JUMPDEST DUP1 DUP1 PUSH2 0x2634 SWAP1 PUSH2 0x4913 JUMP JUMPDEST SWAP2 POP POP PUSH2 0x25DE JUMP JUMPDEST POP PUSH1 0x0 SWAP1 POP JUMPDEST SWAP2 SWAP1 POP JUMP JUMPDEST PUSH1 0x18 PUSH1 0x20 MSTORE DUP1 PUSH1 0x0 MSTORE PUSH1 0x40 PUSH1 0x0 KECCAK256 PUSH1 0x0 SWAP2 POP SWAP1 POP DUP1 PUSH1 0x0 ADD SLOAD SWAP1 DUP1 PUSH1 0x1 ADD PUSH1 0x0 SWAP1 SLOAD SWAP1 PUSH2 0x100 EXP SWAP1 DIV PUSH1 0xFF AND SWAP1 DUP1 PUSH1 0x1 ADD PUSH1 0x1 SWAP1 SLOAD SWAP1 PUSH2 0x100 EXP SWAP1 DIV PUSH1 0xFF AND SWAP1 DUP1 PUSH1 0x1 ADD PUSH1 0x2 SWAP1 SLOAD SWAP1 PUSH2 0x100 EXP SWAP1 DIV PUSH1 0xFF AND SWAP1 DUP1 PUSH1 0x1 ADD PUSH1 0x3 SWAP1 SLOAD SWAP1 PUSH2 0x100 EXP SWAP1 DIV PUSH1 0xFF AND SWAP1 DUP1 PUSH1 0x1 ADD PUSH1 0x4 SWAP1 SLOAD SWAP1 PUSH2 0x100 EXP SWAP1 DIV PUSH1 0xFF AND SWAP1 DUP1 PUSH1 0x1 ADD PUSH1 0x5 SWAP1 SLOAD SWAP1 PUSH2 0x100 EXP SWAP1 DIV PUSH1 0xFF AND SWAP1 DUP1 PUSH1 0x1 ADD PUSH1 0x6 SWAP1 SLOAD SWAP1 PUSH2 0x100 EXP SWAP1 DIV PUSH1 0xFF AND SWAP1 DUP1 PUSH1 0x1 ADD PUSH1 0x7 SWAP1 SLOAD SWAP1 PUSH2 0x100 EXP SWAP1 DIV PUSH1 0xFF AND SWAP1 POP DUP10 JUMP JUMPDEST PUSH1 0x9 SLOAD DUP2 JUMP JUMPDEST PUSH1 0x0 DUP1 PUSH1 0x0 SWAP1 POP JUMPDEST PUSH1 0x3 SLOAD DUP2 LT ISZERO PUSH2 0x277F JUMPI DUP3 DUP1 MLOAD SWAP1 PUSH1 0x20 ADD KECCAK256 PUSH1 0xF PUSH1 0x0 DUP4 DUP2 MSTORE PUSH1 0x20 ADD SWAP1 DUP2 MSTORE PUSH1 0x20 ADD PUSH1 0x0 KECCAK256 PUSH1 0x1 ADD PUSH1 0x40 MLOAD PUSH2 0x2740 SWAP2 SWAP1 PUSH2 0x489E JUMP JUMPDEST PUSH1 0x40 MLOAD DUP1 SWAP2 SUB SWAP1 KECCAK256 SUB PUSH2 0x276C JUMPI PUSH1 0xF PUSH1 0x0 DUP3 DUP2 MSTORE PUSH1 0x20 ADD SWAP1 DUP2 MSTORE PUSH1 0x20 ADD PUSH1 0x0 KECCAK256 PUSH1 0x0 ADD SLOAD SWAP2 POP POP PUSH2 0x2785 JUMP JUMPDEST DUP1 DUP1 PUSH2 0x2777 SWAP1 PUSH2 0x4913 JUMP JUMPDEST SWAP2 POP POP PUSH2 0x270B JUMP JUMPDEST POP PUSH1 0x0 SWAP1 POP JUMPDEST SWAP2 SWAP1 POP JUMP JUMPDEST PUSH1 0x0 JUMPDEST PUSH1 0x0 SLOAD DUP2 LT ISZERO PUSH2 0x27F0 JUMPI PUSH1 0xB PUSH1 0x0 DUP3 DUP2 MSTORE PUSH1 0x20 ADD SWAP1 DUP2 MSTORE PUSH1 0x20 ADD PUSH1 0x0 KECCAK256 PUSH1 0x0 DUP1 DUP3 ADD PUSH1 0x0 PUSH2 0x27BB SWAP2 SWAP1 PUSH2 0x3743 JUMP JUMPDEST PUSH1 0x1 DUP3 ADD PUSH1 0x0 PUSH2 0x27CB SWAP2 SWAP1 PUSH2 0x3743 JUMP JUMPDEST PUSH1 0x2 DUP3 ADD PUSH1 0x0 PUSH2 0x27DB SWAP2 SWAP1 PUSH2 0x3743 JUMP JUMPDEST POP POP DUP1 DUP1 PUSH2 0x27E8 SWAP1 PUSH2 0x4913 JUMP JUMPDEST SWAP2 POP POP PUSH2 0x278D JUMP JUMPDEST POP PUSH1 0x0 JUMPDEST PUSH1 0x2 SLOAD DUP2 LT ISZERO PUSH2 0x2847 JUMPI PUSH1 0xE PUSH1 0x0 DUP3 DUP2 MSTORE PUSH1 0x20 ADD SWAP1 DUP2 MSTORE PUSH1 0x20 ADD PUSH1 0x0 KECCAK256 PUSH1 0x0 DUP1 DUP3 ADD PUSH1 0x0 PUSH2 0x2822 SWAP2 SWAP1 PUSH2 0x3743 JUMP JUMPDEST PUSH1 0x1 DUP3 ADD PUSH1 0x0 PUSH2 0x2832 SWAP2 SWAP1 PUSH2 0x3743 JUMP JUMPDEST POP POP DUP1 DUP1 PUSH2 0x283F SWAP1 PUSH2 0x4913 JUMP JUMPDEST SWAP2 POP POP PUSH2 0x27F4 JUMP JUMPDEST POP PUSH1 0x0 JUMPDEST PUSH1 0x3 SLOAD DUP2 LT ISZERO PUSH2 0x289E JUMPI PUSH1 0xF PUSH1 0x0 DUP3 DUP2 MSTORE PUSH1 0x20 ADD SWAP1 DUP2 MSTORE PUSH1 0x20 ADD PUSH1 0x0 KECCAK256 PUSH1 0x0 DUP1 DUP3 ADD PUSH1 0x0 SWAP1 SSTORE PUSH1 0x1 DUP3 ADD PUSH1 0x0 PUSH2 0x2881 SWAP2 SWAP1 PUSH2 0x3743 JUMP JUMPDEST PUSH1 0x2 DUP3 ADD PUSH1 0x0 SWAP1 SSTORE POP POP DUP1 DUP1 PUSH2 0x2896 SWAP1 PUSH2 0x4913 JUMP JUMPDEST SWAP2 POP POP PUSH2 0x284B JUMP JUMPDEST POP PUSH1 0x0 JUMPDEST PUSH1 0x2 SLOAD DUP2 LT ISZERO PUSH2 0x28F5 JUMPI PUSH1 0x13 PUSH1 0x0 DUP3 DUP2 MSTORE PUSH1 0x20 ADD SWAP1 DUP2 MSTORE PUSH1 0x20 ADD PUSH1 0x0 KECCAK256 PUSH1 0x0 DUP1 DUP3 ADD PUSH1 0x0 SWAP1 SSTORE PUSH1 0x1 DUP3 ADD PUSH1 0x0 SWAP1 SSTORE PUSH1 0x2 DUP3 ADD PUSH1 0x0 PUSH2 0x28E0 SWAP2 SWAP1 PUSH2 0x3743 JUMP JUMPDEST POP POP DUP1 DUP1 PUSH2 0x28ED SWAP1 PUSH2 0x4913 JUMP JUMPDEST SWAP2 POP POP PUSH2 0x28A2 JUMP JUMPDEST POP PUSH1 0x0 JUMPDEST PUSH1 0x7 SLOAD DUP2 LT ISZERO PUSH2 0x295C JUMPI PUSH1 0x15 PUSH1 0x0 DUP3 DUP2 MSTORE PUSH1 0x20 ADD SWAP1 DUP2 MSTORE PUSH1 0x20 ADD PUSH1 0x0 KECCAK256 PUSH1 0x0 DUP1 DUP3 ADD PUSH1 0x0 SWAP1 SSTORE PUSH1 0x1 DUP3 ADD PUSH1 0x0 SWAP1 SSTORE PUSH1 0x2 DUP3 ADD PUSH1 0x0 PUSH2 0x2937 SWAP2 SWAP1 PUSH2 0x3743 JUMP JUMPDEST PUSH1 0x3 DUP3 ADD PUSH1 0x0 PUSH2 0x2947 SWAP2 SWAP1 PUSH2 0x3743 JUMP JUMPDEST POP POP DUP1 DUP1 PUSH2 0x2954 SWAP1 PUSH2 0x4913 JUMP JUMPDEST SWAP2 POP POP PUSH2 0x28F9 JUMP JUMPDEST POP PUSH1 0x0 JUMPDEST PUSH1 0x9 SLOAD DUP2 LT ISZERO PUSH2 0x29BB JUMPI PUSH1 0x17 PUSH1 0x0 DUP3 DUP2 MSTORE PUSH1 0x20 ADD SWAP1 DUP2 MSTORE PUSH1 0x20 ADD PUSH1 0x0 KECCAK256 PUSH1 0x0 DUP1 DUP3 ADD PUSH1 0x0 SWAP1 SSTORE PUSH1 0x1 DUP3 ADD PUSH1 0x0 SWAP1 SSTORE PUSH1 0x2 DUP3 ADD PUSH1 0x0 SWAP1 SSTORE PUSH1 0x3 DUP3 ADD PUSH1 0x0 PUSH2 0x29A6 SWAP2 SWAP1 PUSH2 0x3743 JUMP JUMPDEST POP POP DUP1 DUP1 PUSH2 0x29B3 SWAP1 PUSH2 0x4913 JUMP JUMPDEST SWAP2 POP POP PUSH2 0x2960 JUMP JUMPDEST POP PUSH1 0x0 JUMPDEST PUSH1 0x6 SLOAD DUP2 LT ISZERO PUSH2 0x2A0A JUMPI PUSH1 0x14 PUSH1 0x0 DUP3 DUP2 MSTORE PUSH1 0x20 ADD SWAP1 DUP2 MSTORE PUSH1 0x20 ADD PUSH1 0x0 KECCAK256 PUSH1 0x0 DUP1 DUP3 ADD PUSH1 0x0 SWAP1 SSTORE PUSH1 0x1 DUP3 ADD PUSH1 0x0 SWAP1 SSTORE PUSH1 0x2 DUP3 ADD PUSH1 0x0 SWAP1 SSTORE POP POP DUP1 DUP1 PUSH2 0x2A02 SWAP1 PUSH2 0x4913 JUMP JUMPDEST SWAP2 POP POP PUSH2 0x29BF JUMP JUMPDEST POP PUSH1 0x0 DUP1 DUP2 SWAP1 SSTORE POP PUSH1 0x0 PUSH1 0x2 DUP2 SWAP1 SSTORE POP PUSH1 0x0 PUSH1 0x3 DUP2 SWAP1 SSTORE POP PUSH1 0x0 PUSH1 0x7 DUP2 SWAP1 SSTORE POP PUSH1 0x0 PUSH1 0x9 DUP2 SWAP1 SSTORE POP PUSH1 0x0 PUSH1 0x6 DUP2 SWAP1 SSTORE POP JUMP JUMPDEST PUSH1 0x0 PUSH1 0x40 MLOAD DUP1 PUSH1 0x40 ADD PUSH1 0x40 MSTORE DUP1 DUP6 DUP2 MSTORE PUSH1 0x20 ADD DUP7 DUP2 MSTORE POP PUSH1 0xE PUSH1 0x0 PUSH1 0x2 SLOAD DUP2 MSTORE PUSH1 0x20 ADD SWAP1 DUP2 MSTORE PUSH1 0x20 ADD PUSH1 0x0 KECCAK256 PUSH1 0x0 DUP3 ADD MLOAD DUP2 PUSH1 0x0 ADD SWAP1 DUP2 PUSH2 0x2A7D SWAP2 SWAP1 PUSH2 0x4B3B JUMP JUMPDEST POP PUSH1 0x20 DUP3 ADD MLOAD DUP2 PUSH1 0x1 ADD SWAP1 DUP2 PUSH2 0x2A93 SWAP2 SWAP1 PUSH2 0x4B3B JUMP JUMPDEST POP SWAP1 POP POP PUSH1 0x1 PUSH1 0x18 PUSH1 0x0 DUP6 DUP2 MSTORE PUSH1 0x20 ADD SWAP1 DUP2 MSTORE PUSH1 0x20 ADD PUSH1 0x0 KECCAK256 PUSH1 0x1 ADD PUSH1 0x2 PUSH2 0x100 EXP DUP2 SLOAD DUP2 PUSH1 0xFF MUL NOT AND SWAP1 DUP4 ISZERO ISZERO MUL OR SWAP1 SSTORE POP PUSH1 0x2 PUSH1 0x0 DUP2 SLOAD DUP1 SWAP3 SWAP2 SWAP1 PUSH2 0x2AD9 SWAP1 PUSH2 0x4913 JUMP JUMPDEST SWAP2 SWAP1 POP SSTORE POP PUSH2 0x2B1D DUP3 PUSH1 0x40 MLOAD DUP1 PUSH1 0x40 ADD PUSH1 0x40 MSTORE DUP1 PUSH1 0x4 DUP2 MSTORE PUSH1 0x20 ADD PUSH32 0x676F616C00000000000000000000000000000000000000000000000000000000 DUP2 MSTORE POP PUSH2 0x2CE4 JUMP JUMPDEST PUSH1 0x2 SLOAD SWAP1 POP SWAP5 SWAP4 POP POP POP POP JUMP JUMPDEST PUSH1 0x15 PUSH1 0x20 MSTORE DUP1 PUSH1 0x0 MSTORE PUSH1 0x40 PUSH1 0x0 KECCAK256 PUSH1 0x0 SWAP2 POP SWAP1 POP DUP1 PUSH1 0x0 ADD SLOAD SWAP1 DUP1 PUSH1 0x1 ADD SLOAD SWAP1 DUP1 PUSH1 0x2 ADD DUP1 SLOAD PUSH2 0x2B59 SWAP1 PUSH2 0x47CA JUMP JUMPDEST DUP1 PUSH1 0x1F ADD PUSH1 0x20 DUP1 SWAP2 DIV MUL PUSH1 0x20 ADD PUSH1 0x40 MLOAD SWAP1 DUP2 ADD PUSH1 0x40 MSTORE DUP1 SWAP3 SWAP2 SWAP1 DUP2 DUP2 MSTORE PUSH1 0x20 ADD DUP3 DUP1 SLOAD PUSH2 0x2B85 SWAP1 PUSH2 0x47CA JUMP JUMPDEST DUP1 ISZERO PUSH2 0x2BD2 JUMPI DUP1 PUSH1 0x1F LT PUSH2 0x2BA7 JUMPI PUSH2 0x100 DUP1 DUP4 SLOAD DIV MUL DUP4 MSTORE SWAP2 PUSH1 0x20 ADD SWAP2 PUSH2 0x2BD2 JUMP JUMPDEST DUP3 ADD SWAP2 SWAP1 PUSH1 0x0 MSTORE PUSH1 0x20 PUSH1 0x0 KECCAK256 SWAP1 JUMPDEST DUP2 SLOAD DUP2 MSTORE SWAP1 PUSH1 0x1 ADD SWAP1 PUSH1 0x20 ADD DUP1 DUP4 GT PUSH2 0x2BB5 JUMPI DUP3 SWAP1 SUB PUSH1 0x1F AND DUP3 ADD SWAP2 JUMPDEST POP POP POP POP POP SWAP1 DUP1 PUSH1 0x3 ADD DUP1 SLOAD PUSH2 0x2BE7 SWAP1 PUSH2 0x47CA JUMP JUMPDEST DUP1 PUSH1 0x1F ADD PUSH1 0x20 DUP1 SWAP2 DIV MUL PUSH1 0x20 ADD PUSH1 0x40 MLOAD SWAP1 DUP2 ADD PUSH1 0x40 MSTORE DUP1 SWAP3 SWAP2 SWAP1 DUP2 DUP2 MSTORE PUSH1 0x20 ADD DUP3 DUP1 SLOAD PUSH2 0x2C13 SWAP1 PUSH2 0x47CA JUMP JUMPDEST DUP1 ISZERO PUSH2 0x2C60 JUMPI DUP1 PUSH1 0x1F LT PUSH2 0x2C35 JUMPI PUSH2 0x100 DUP1 DUP4 SLOAD DIV MUL DUP4 MSTORE SWAP2 PUSH1 0x20 ADD SWAP2 PUSH2 0x2C60 JUMP JUMPDEST DUP3 ADD SWAP2 SWAP1 PUSH1 0x0 MSTORE PUSH1 0x20 PUSH1 0x0 KECCAK256 SWAP1 JUMPDEST DUP2 SLOAD DUP2 MSTORE SWAP1 PUSH1 0x1 ADD SWAP1 PUSH1 0x20 ADD DUP1 DUP4 GT PUSH2 0x2C43 JUMPI DUP3 SWAP1 SUB PUSH1 0x1F AND DUP3 ADD SWAP2 JUMPDEST POP POP POP POP POP SWAP1 POP DUP5 JUMP JUMPDEST PUSH1 0x0 DUP1 PUSH1 0x0 SWAP1 POP JUMPDEST PUSH1 0x4 SLOAD DUP2 LT ISZERO PUSH2 0x2CD7 JUMPI DUP3 PUSH1 0xD PUSH1 0x0 DUP4 DUP2 MSTORE PUSH1 0x20 ADD SWAP1 DUP2 MSTORE PUSH1 0x20 ADD PUSH1 0x0 KECCAK256 PUSH1 0x1 ADD SLOAD EQ DUP1 ISZERO PUSH2 0x2CB6 JUMPI POP DUP4 PUSH1 0xD PUSH1 0x0 DUP4 DUP2 MSTORE PUSH1 0x20 ADD SWAP1 DUP2 MSTORE PUSH1 0x20 ADD PUSH1 0x0 KECCAK256 PUSH1 0x0 ADD SLOAD EQ JUMPDEST ISZERO PUSH2 0x2CC4 JUMPI DUP1 SWAP2 POP POP PUSH2 0x2CDE JUMP JUMPDEST DUP1 DUP1 PUSH2 0x2CCF SWAP1 PUSH2 0x4913 JUMP JUMPDEST SWAP2 POP POP PUSH2 0x2C72 JUMP JUMPDEST POP PUSH2 0x270F SWAP1 POP JUMPDEST SWAP3 SWAP2 POP POP JUMP JUMPDEST PUSH1 0x40 MLOAD DUP1 PUSH1 0x80 ADD PUSH1 0x40 MSTORE DUP1 PUSH1 0xA SLOAD DUP2 MSTORE PUSH1 0x20 ADD TIMESTAMP DUP2 MSTORE PUSH1 0x20 ADD DUP3 DUP2 MSTORE PUSH1 0x20 ADD DUP4 DUP2 MSTORE POP PUSH1 0x11 PUSH1 0x0 PUSH1 0xA SLOAD DUP2 MSTORE PUSH1 0x20 ADD SWAP1 DUP2 MSTORE PUSH1 0x20 ADD PUSH1 0x0 KECCAK256 PUSH1 0x0 DUP3 ADD MLOAD DUP2 PUSH1 0x0 ADD SSTORE PUSH1 0x20 DUP3 ADD MLOAD DUP2 PUSH1 0x1 ADD SSTORE PUSH1 0x40 DUP3 ADD MLOAD DUP2 PUSH1 0x2 ADD SWAP1 DUP2 PUSH2 0x2D45 SWAP2 SWAP1 PUSH2 0x4B3B JUMP JUMPDEST POP PUSH1 0x60 DUP3 ADD MLOAD DUP2 PUSH1 0x3 ADD SWAP1 DUP2 PUSH2 0x2D5B SWAP2 SWAP1 PUSH2 0x4B3B JUMP JUMPDEST POP SWAP1 POP POP PUSH1 0xA PUSH1 0x0 DUP2 SLOAD DUP1 SWAP3 SWAP2 SWAP1 PUSH2 0x2D72 SWAP1 PUSH2 0x4913 JUMP JUMPDEST SWAP2 SWAP1 POP SSTORE POP POP POP JUMP JUMPDEST DUP1 PUSH1 0xF PUSH1 0x0 DUP5 DUP2 MSTORE PUSH1 0x20 ADD SWAP1 DUP2 MSTORE PUSH1 0x20 ADD PUSH1 0x0 KECCAK256 PUSH1 0x1 ADD SWAP1 DUP2 PUSH2 0x2D9E SWAP2 SWAP1 PUSH2 0x4B3B JUMP JUMPDEST POP POP POP JUMP JUMPDEST PUSH1 0x60 PUSH1 0x0 DUP1 SLOAD PUSH8 0xFFFFFFFFFFFFFFFF DUP2 GT ISZERO PUSH2 0x2DC2 JUMPI PUSH2 0x2DC1 PUSH2 0x37CF JUMP JUMPDEST JUMPDEST PUSH1 0x40 MLOAD SWAP1 DUP1 DUP3 MSTORE DUP1 PUSH1 0x20 MUL PUSH1 0x20 ADD DUP3 ADD PUSH1 0x40 MSTORE DUP1 ISZERO PUSH2 0x2DF5 JUMPI DUP2 PUSH1 0x20 ADD JUMPDEST PUSH1 0x60 DUP2 MSTORE PUSH1 0x20 ADD SWAP1 PUSH1 0x1 SWAP1 SUB SWAP1 DUP2 PUSH2 0x2DE0 JUMPI SWAP1 POP JUMPDEST POP SWAP1 POP PUSH1 0x0 JUMPDEST PUSH1 0x0 SLOAD DUP2 LT ISZERO PUSH2 0x2ED5 JUMPI PUSH1 0xB PUSH1 0x0 DUP3 DUP2 MSTORE PUSH1 0x20 ADD SWAP1 DUP2 MSTORE PUSH1 0x20 ADD PUSH1 0x0 KECCAK256 PUSH1 0x1 ADD DUP1 SLOAD PUSH2 0x2E26 SWAP1 PUSH2 0x47CA JUMP JUMPDEST DUP1 PUSH1 0x1F ADD PUSH1 0x20 DUP1 SWAP2 DIV MUL PUSH1 0x20 ADD PUSH1 0x40 MLOAD SWAP1 DUP2 ADD PUSH1 0x40 MSTORE DUP1 SWAP3 SWAP2 SWAP1 DUP2 DUP2 MSTORE PUSH1 0x20 ADD DUP3 DUP1 SLOAD PUSH2 0x2E52 SWAP1 PUSH2 0x47CA JUMP JUMPDEST DUP1 ISZERO PUSH2 0x2E9F JUMPI DUP1 PUSH1 0x1F LT PUSH2 0x2E74 JUMPI PUSH2 0x100 DUP1 DUP4 SLOAD DIV MUL DUP4 MSTORE SWAP2 PUSH1 0x20 ADD SWAP2 PUSH2 0x2E9F JUMP JUMPDEST DUP3 ADD SWAP2 SWAP1 PUSH1 0x0 MSTORE PUSH1 0x20 PUSH1 0x0 KECCAK256 SWAP1 JUMPDEST DUP2 SLOAD DUP2 MSTORE SWAP1 PUSH1 0x1 ADD SWAP1 PUSH1 0x20 ADD DUP1 DUP4 GT PUSH2 0x2E82 JUMPI DUP3 SWAP1 SUB PUSH1 0x1F AND DUP3 ADD SWAP2 JUMPDEST POP POP POP POP POP DUP3 DUP3 DUP2 MLOAD DUP2 LT PUSH2 0x2EB7 JUMPI PUSH2 0x2EB6 PUSH2 0x48B5 JUMP JUMPDEST JUMPDEST PUSH1 0x20 MUL PUSH1 0x20 ADD ADD DUP2 SWAP1 MSTORE POP DUP1 DUP1 PUSH2 0x2ECD SWAP1 PUSH2 0x4913 JUMP JUMPDEST SWAP2 POP POP PUSH2 0x2DFB JUMP JUMPDEST POP DUP1 SWAP2 POP POP SWAP1 JUMP JUMPDEST DUP1 PUSH1 0xE PUSH1 0x0 DUP5 DUP2 MSTORE PUSH1 0x20 ADD SWAP1 DUP2 MSTORE PUSH1 0x20 ADD PUSH1 0x0 KECCAK256 PUSH1 0x1 ADD SWAP1 DUP2 PUSH2 0x2F00 SWAP2 SWAP1 PUSH2 0x4B3B JUMP JUMPDEST POP POP POP JUMP JUMPDEST PUSH1 0x8 SLOAD DUP2 JUMP JUMPDEST PUSH1 0x16 PUSH1 0x20 MSTORE DUP1 PUSH1 0x0 MSTORE PUSH1 0x40 PUSH1 0x0 KECCAK256 PUSH1 0x0 SWAP2 POP SWAP1 POP DUP1 PUSH1 0x0 ADD SLOAD SWAP1 DUP1 PUSH1 0x1 ADD SLOAD SWAP1 DUP1 PUSH1 0x2 ADD SLOAD SWAP1 DUP1 PUSH1 0x3 ADD DUP1 SLOAD PUSH2 0x2F40 SWAP1 PUSH2 0x47CA JUMP JUMPDEST DUP1 PUSH1 0x1F ADD PUSH1 0x20 DUP1 SWAP2 DIV MUL PUSH1 0x20 ADD PUSH1 0x40 MLOAD SWAP1 DUP2 ADD PUSH1 0x40 MSTORE DUP1 SWAP3 SWAP2 SWAP1 DUP2 DUP2 MSTORE PUSH1 0x20 ADD DUP3 DUP1 SLOAD PUSH2 0x2F6C SWAP1 PUSH2 0x47CA JUMP JUMPDEST DUP1 ISZERO PUSH2 0x2FB9 JUMPI DUP1 PUSH1 0x1F LT PUSH2 0x2F8E JUMPI PUSH2 0x100 DUP1 DUP4 SLOAD DIV MUL DUP4 MSTORE SWAP2 PUSH1 0x20 ADD SWAP2 PUSH2 0x2FB9 JUMP JUMPDEST DUP3 ADD SWAP2 SWAP1 PUSH1 0x0 MSTORE PUSH1 0x20 PUSH1 0x0 KECCAK256 SWAP1 JUMPDEST DUP2 SLOAD DUP2 MSTORE SWAP1 PUSH1 0x1 ADD SWAP1 PUSH1 0x20 ADD DUP1 DUP4 GT PUSH2 0x2F9C JUMPI DUP3 SWAP1 SUB PUSH1 0x1F AND DUP3 ADD SWAP2 JUMPDEST POP POP POP POP POP SWAP1 POP DUP5 JUMP JUMPDEST PUSH1 0x0 DUP1 PUSH1 0x0 SWAP1 POP PUSH1 0x0 JUMPDEST PUSH1 0x8 SLOAD DUP2 LT ISZERO PUSH2 0x3049 JUMPI DUP5 PUSH1 0x16 PUSH1 0x0 DUP4 DUP2 MSTORE PUSH1 0x20 ADD SWAP1 DUP2 MSTORE PUSH1 0x20 ADD PUSH1 0x0 KECCAK256 PUSH1 0x0 ADD SLOAD EQ DUP1 ISZERO PUSH2 0x302C JUMPI POP PUSH1 0x16 PUSH1 0x0 DUP3 DUP2 MSTORE PUSH1 0x20 ADD SWAP1 DUP2 MSTORE PUSH1 0x20 ADD PUSH1 0x0 KECCAK256 PUSH1 0x3 ADD PUSH1 0x40 MLOAD PUSH2 0x301A SWAP2 SWAP1 PUSH2 0x489E JUMP JUMPDEST PUSH1 0x40 MLOAD DUP1 SWAP2 SUB SWAP1 KECCAK256 DUP5 DUP1 MLOAD SWAP1 PUSH1 0x20 ADD KECCAK256 EQ JUMPDEST ISZERO PUSH2 0x3036 JUMPI PUSH1 0x1 SWAP2 POP JUMPDEST DUP1 DUP1 PUSH2 0x3041 SWAP1 PUSH2 0x4913 JUMP JUMPDEST SWAP2 POP POP PUSH2 0x2FCD JUMP JUMPDEST POP DUP1 SWAP2 POP POP SWAP3 SWAP2 POP POP JUMP JUMPDEST PUSH1 0x3 SLOAD DUP2 JUMP JUMPDEST PUSH1 0x0 PUSH1 0x1 PUSH1 0x18 PUSH1 0x0 DUP5 DUP2 MSTORE PUSH1 0x20 ADD SWAP1 DUP2 MSTORE PUSH1 0x20 ADD PUSH1 0x0 KECCAK256 PUSH1 0x1 ADD PUSH1 0x7 PUSH2 0x100 EXP DUP2 SLOAD DUP2 PUSH1 0xFF MUL NOT AND SWAP1 DUP4 ISZERO ISZERO MUL OR SWAP1 SSTORE POP PUSH1 0x40 MLOAD DUP1 PUSH1 0x80 ADD PUSH1 0x40 MSTORE DUP1 PUSH1 0x9 SLOAD DUP2 MSTORE PUSH1 0x20 ADD DUP7 DUP2 MSTORE PUSH1 0x20 ADD DUP5 DUP2 MSTORE PUSH1 0x20 ADD DUP6 DUP2 MSTORE POP PUSH1 0x17 PUSH1 0x0 PUSH1 0x9 SLOAD DUP2 MSTORE PUSH1 0x20 ADD SWAP1 DUP2 MSTORE PUSH1 0x20 ADD PUSH1 0x0 KECCAK256 PUSH1 0x0 DUP3 ADD MLOAD DUP2 PUSH1 0x0 ADD SSTORE PUSH1 0x20 DUP3 ADD MLOAD DUP2 PUSH1 0x1 ADD SSTORE PUSH1 0x40 DUP3 ADD MLOAD DUP2 PUSH1 0x2 ADD SSTORE PUSH1 0x60 DUP3 ADD MLOAD DUP2 PUSH1 0x3 ADD SWAP1 DUP2 PUSH2 0x30F6 SWAP2 SWAP1 PUSH2 0x4B3B JUMP JUMPDEST POP SWAP1 POP POP PUSH1 0x9 PUSH1 0x0 DUP2 SLOAD DUP1 SWAP3 SWAP2 SWAP1 PUSH2 0x310D SWAP1 PUSH2 0x4913 JUMP JUMPDEST SWAP2 SWAP1 POP SSTORE POP PUSH1 0x9 SLOAD SWAP1 POP SWAP5 SWAP4 POP POP POP POP JUMP JUMPDEST PUSH1 0x0 PUSH1 0x40 MLOAD DUP1 PUSH1 0x60 ADD PUSH1 0x40 MSTORE DUP1 DUP7 DUP2 MSTORE PUSH1 0x20 ADD DUP8 DUP2 MSTORE PUSH1 0x20 ADD PUSH1 0x0 DUP2 MSTORE POP PUSH1 0xF PUSH1 0x0 PUSH1 0x3 SLOAD DUP2 MSTORE PUSH1 0x20 ADD SWAP1 DUP2 MSTORE PUSH1 0x20 ADD PUSH1 0x0 KECCAK256 PUSH1 0x0 DUP3 ADD MLOAD DUP2 PUSH1 0x0 ADD SSTORE PUSH1 0x20 DUP3 ADD MLOAD DUP2 PUSH1 0x1 ADD SWAP1 DUP2 PUSH2 0x3171 SWAP2 SWAP1 PUSH2 0x4B3B JUMP JUMPDEST POP PUSH1 0x40 DUP3 ADD MLOAD DUP2 PUSH1 0x2 ADD SSTORE SWAP1 POP POP PUSH1 0x1 PUSH1 0x18 PUSH1 0x0 DUP6 DUP2 MSTORE PUSH1 0x20 ADD SWAP1 DUP2 MSTORE PUSH1 0x20 ADD PUSH1 0x0 KECCAK256 PUSH1 0x1 ADD PUSH1 0x3 PUSH2 0x100 EXP DUP2 SLOAD DUP2 PUSH1 0xFF MUL NOT AND SWAP1 DUP4 ISZERO ISZERO MUL OR SWAP1 SSTORE POP PUSH1 0x3 PUSH1 0x0 DUP2 SLOAD DUP1 SWAP3 SWAP2 SWAP1 PUSH2 0x31C1 SWAP1 PUSH2 0x4913 JUMP JUMPDEST SWAP2 SWAP1 POP SSTORE POP PUSH1 0x0 JUMPDEST DUP5 MLOAD DUP2 LT ISZERO PUSH2 0x3226 JUMPI PUSH2 0x31FB PUSH1 0x3 SLOAD PUSH1 0x5 SLOAD DUP8 DUP5 DUP2 MLOAD DUP2 LT PUSH2 0x31EE JUMPI PUSH2 0x31ED PUSH2 0x48B5 JUMP JUMPDEST JUMPDEST PUSH1 0x20 MUL PUSH1 0x20 ADD ADD MLOAD PUSH2 0x3590 JUMP JUMPDEST PUSH1 0x5 PUSH1 0x0 DUP2 SLOAD DUP1 SWAP3 SWAP2 SWAP1 PUSH2 0x320E SWAP1 PUSH2 0x4913 JUMP JUMPDEST SWAP2 SWAP1 POP SSTORE POP DUP1 DUP1 PUSH2 0x321E SWAP1 PUSH2 0x4913 JUMP JUMPDEST SWAP2 POP POP PUSH2 0x31C9 JUMP JUMPDEST POP PUSH2 0x3266 DUP3 PUSH1 0x40 MLOAD DUP1 PUSH1 0x40 ADD PUSH1 0x40 MSTORE DUP1 PUSH1 0x4 DUP2 MSTORE PUSH1 0x20 ADD PUSH32 0x6964656100000000000000000000000000000000000000000000000000000000 DUP2 MSTORE POP PUSH2 0x2CE4 JUMP JUMPDEST PUSH1 0x3 SLOAD SWAP1 POP SWAP6 SWAP5 POP POP POP POP POP JUMP JUMPDEST PUSH1 0x60 PUSH1 0xE PUSH1 0x0 DUP4 DUP2 MSTORE PUSH1 0x20 ADD SWAP1 DUP2 MSTORE PUSH1 0x20 ADD PUSH1 0x0 KECCAK256 PUSH1 0x1 ADD DUP1 SLOAD PUSH2 0x3297 SWAP1 PUSH2 0x47CA JUMP JUMPDEST DUP1 PUSH1 0x1F ADD PUSH1 0x20 DUP1 SWAP2 DIV MUL PUSH1 0x20 ADD PUSH1 0x40 MLOAD SWAP1 DUP2 ADD PUSH1 0x40 MSTORE DUP1 SWAP3 SWAP2 SWAP1 DUP2 DUP2 MSTORE PUSH1 0x20 ADD DUP3 DUP1 SLOAD PUSH2 0x32C3 SWAP1 PUSH2 0x47CA JUMP JUMPDEST DUP1 ISZERO PUSH2 0x3310 JUMPI DUP1 PUSH1 0x1F LT PUSH2 0x32E5 JUMPI PUSH2 0x100 DUP1 DUP4 SLOAD DIV MUL DUP4 MSTORE SWAP2 PUSH1 0x20 ADD SWAP2 PUSH2 0x3310 JUMP JUMPDEST DUP3 ADD SWAP2 SWAP1 PUSH1 0x0 MSTORE PUSH1 0x20 PUSH1 0x0 KECCAK256 SWAP1 JUMPDEST DUP2 SLOAD DUP2 MSTORE SWAP1 PUSH1 0x1 ADD SWAP1 PUSH1 0x20 ADD DUP1 DUP4 GT PUSH2 0x32F3 JUMPI DUP3 SWAP1 SUB PUSH1 0x1F AND DUP3 ADD SWAP2 JUMPDEST POP POP POP POP POP SWAP1 POP SWAP2 SWAP1 POP JUMP JUMPDEST PUSH1 0x1 SLOAD DUP2 JUMP JUMPDEST PUSH1 0x0 PUSH1 0x1 PUSH1 0x18 PUSH1 0x0 DUP7 DUP2 MSTORE PUSH1 0x20 ADD SWAP1 DUP2 MSTORE PUSH1 0x20 ADD PUSH1 0x0 KECCAK256 PUSH1 0x1 ADD PUSH1 0x4 PUSH2 0x100 EXP DUP2 SLOAD DUP2 PUSH1 0xFF MUL NOT AND SWAP1 DUP4 ISZERO ISZERO MUL OR SWAP1 SSTORE POP PUSH1 0x40 MLOAD DUP1 PUSH1 0x60 ADD PUSH1 0x40 MSTORE DUP1 DUP8 DUP2 MSTORE PUSH1 0x20 ADD DUP7 DUP2 MSTORE PUSH1 0x20 ADD DUP6 DUP2 MSTORE POP PUSH1 0x14 PUSH1 0x0 PUSH1 0x6 SLOAD DUP2 MSTORE PUSH1 0x20 ADD SWAP1 DUP2 MSTORE PUSH1 0x20 ADD PUSH1 0x0 KECCAK256 PUSH1 0x0 DUP3 ADD MLOAD DUP2 PUSH1 0x0 ADD SSTORE PUSH1 0x20 DUP3 ADD MLOAD DUP2 PUSH1 0x1 ADD SSTORE PUSH1 0x40 DUP3 ADD MLOAD DUP2 PUSH1 0x2 ADD SSTORE SWAP1 POP POP PUSH1 0x6 PUSH1 0x0 DUP2 SLOAD DUP1 SWAP3 SWAP2 SWAP1 PUSH2 0x33B7 SWAP1 PUSH2 0x4913 JUMP JUMPDEST SWAP2 SWAP1 POP SSTORE POP DUP2 ISZERO PUSH2 0x3402 JUMPI PUSH2 0x3401 DUP4 PUSH1 0x40 MLOAD DUP1 PUSH1 0x40 ADD PUSH1 0x40 MSTORE DUP1 PUSH1 0x4 DUP2 MSTORE PUSH1 0x20 ADD PUSH32 0x766F746500000000000000000000000000000000000000000000000000000000 DUP2 MSTORE POP PUSH2 0x2CE4 JUMP JUMPDEST JUMPDEST PUSH1 0x6 SLOAD SWAP1 POP SWAP6 SWAP5 POP POP POP POP POP JUMP JUMPDEST PUSH1 0x13 PUSH1 0x20 MSTORE DUP1 PUSH1 0x0 MSTORE PUSH1 0x40 PUSH1 0x0 KECCAK256 PUSH1 0x0 SWAP2 POP SWAP1 POP DUP1 PUSH1 0x0 ADD SLOAD SWAP1 DUP1 PUSH1 0x1 ADD SLOAD SWAP1 DUP1 PUSH1 0x2 ADD DUP1 SLOAD PUSH2 0x343F SWAP1 PUSH2 0x47CA JUMP JUMPDEST DUP1 PUSH1 0x1F ADD PUSH1 0x20 DUP1 SWAP2 DIV MUL PUSH1 0x20 ADD PUSH1 0x40 MLOAD SWAP1 DUP2 ADD PUSH1 0x40 MSTORE DUP1 SWAP3 SWAP2 SWAP1 DUP2 DUP2 MSTORE PUSH1 0x20 ADD DUP3 DUP1 SLOAD PUSH2 0x346B SWAP1 PUSH2 0x47CA JUMP JUMPDEST DUP1 ISZERO PUSH2 0x34B8 JUMPI DUP1 PUSH1 0x1F LT PUSH2 0x348D JUMPI PUSH2 0x100 DUP1 DUP4 SLOAD DIV MUL DUP4 MSTORE SWAP2 PUSH1 0x20 ADD SWAP2 PUSH2 0x34B8 JUMP JUMPDEST DUP3 ADD SWAP2 SWAP1 PUSH1 0x0 MSTORE PUSH1 0x20 PUSH1 0x0 KECCAK256 SWAP1 JUMPDEST DUP2 SLOAD DUP2 MSTORE SWAP1 PUSH1 0x1 ADD SWAP1 PUSH1 0x20 ADD DUP1 DUP4 GT PUSH2 0x349B JUMPI DUP3 SWAP1 SUB PUSH1 0x1F AND DUP3 ADD SWAP2 JUMPDEST POP POP POP POP POP SWAP1 POP DUP4 JUMP JUMPDEST PUSH1 0x60 PUSH1 0x0 PUSH1 0x1 PUSH2 0x34D1 DUP5 PUSH2 0x35F0 JUMP JUMPDEST ADD SWAP1 POP PUSH1 0x0 DUP2 PUSH8 0xFFFFFFFFFFFFFFFF DUP2 GT ISZERO PUSH2 0x34F0 JUMPI PUSH2 0x34EF PUSH2 0x37CF JUMP JUMPDEST JUMPDEST PUSH1 0x40 MLOAD SWAP1 DUP1 DUP3 MSTORE DUP1 PUSH1 0x1F ADD PUSH1 0x1F NOT AND PUSH1 0x20 ADD DUP3 ADD PUSH1 0x40 MSTORE DUP1 ISZERO PUSH2 0x3522 JUMPI DUP2 PUSH1 0x20 ADD PUSH1 0x1 DUP3 MUL DUP1 CALLDATASIZE DUP4 CALLDATACOPY DUP1 DUP3 ADD SWAP2 POP POP SWAP1 POP JUMPDEST POP SWAP1 POP PUSH1 0x0 DUP3 PUSH1 0x20 ADD DUP3 ADD SWAP1 POP JUMPDEST PUSH1 0x1 ISZERO PUSH2 0x3585 JUMPI DUP1 DUP1 PUSH1 0x1 SWAP1 SUB SWAP2 POP POP PUSH32 0x3031323334353637383961626364656600000000000000000000000000000000 PUSH1 0xA DUP7 MOD BYTE DUP2 MSTORE8 PUSH1 0xA DUP6 DUP2 PUSH2 0x3579 JUMPI PUSH2 0x3578 PUSH2 0x4C0D JUMP JUMPDEST JUMPDEST DIV SWAP5 POP PUSH1 0x0 DUP6 SUB PUSH2 0x3530 JUMPI JUMPDEST DUP2 SWAP4 POP POP POP POP SWAP2 SWAP1 POP JUMP JUMPDEST PUSH1 0x40 MLOAD DUP1 PUSH1 0x60 ADD PUSH1 0x40 MSTORE DUP1 DUP5 DUP2 MSTORE PUSH1 0x20 ADD DUP4 DUP2 MSTORE PUSH1 0x20 ADD DUP3 DUP2 MSTORE POP PUSH1 0x13 PUSH1 0x0 DUP5 DUP2 MSTORE PUSH1 0x20 ADD SWAP1 DUP2 MSTORE PUSH1 0x20 ADD PUSH1 0x0 KECCAK256 PUSH1 0x0 DUP3 ADD MLOAD DUP2 PUSH1 0x0 ADD SSTORE PUSH1 0x20 DUP3 ADD MLOAD DUP2 PUSH1 0x1 ADD SSTORE PUSH1 0x40 DUP3 ADD MLOAD DUP2 PUSH1 0x2 ADD SWAP1 DUP2 PUSH2 0x35E7 SWAP2 SWAP1 PUSH2 0x4B3B JUMP JUMPDEST POP SWAP1 POP POP POP POP POP JUMP JUMPDEST PUSH1 0x0 DUP1 PUSH1 0x0 SWAP1 POP PUSH27 0x184F03E93FF9F4DAA797ED6E38ED64BF6A1F010000000000000000 DUP4 LT PUSH2 0x364E JUMPI PUSH27 0x184F03E93FF9F4DAA797ED6E38ED64BF6A1F010000000000000000 DUP4 DUP2 PUSH2 0x3644 JUMPI PUSH2 0x3643 PUSH2 0x4C0D JUMP JUMPDEST JUMPDEST DIV SWAP3 POP PUSH1 0x40 DUP2 ADD SWAP1 POP JUMPDEST PUSH14 0x4EE2D6D415B85ACEF8100000000 DUP4 LT PUSH2 0x368B JUMPI PUSH14 0x4EE2D6D415B85ACEF8100000000 DUP4 DUP2 PUSH2 0x3681 JUMPI PUSH2 0x3680 PUSH2 0x4C0D JUMP JUMPDEST JUMPDEST DIV SWAP3 POP PUSH1 0x20 DUP2 ADD SWAP1 POP JUMPDEST PUSH7 0x2386F26FC10000 DUP4 LT PUSH2 0x36BA JUMPI PUSH7 0x2386F26FC10000 DUP4 DUP2 PUSH2 0x36B0 JUMPI PUSH2 0x36AF PUSH2 0x4C0D JUMP JUMPDEST JUMPDEST DIV SWAP3 POP PUSH1 0x10 DUP2 ADD SWAP1 POP JUMPDEST PUSH4 0x5F5E100 DUP4 LT PUSH2 0x36E3 JUMPI PUSH4 0x5F5E100 DUP4 DUP2 PUSH2 0x36D9 JUMPI PUSH2 0x36D8 PUSH2 0x4C0D JUMP JUMPDEST JUMPDEST DIV SWAP3 POP PUSH1 0x8 DUP2 ADD SWAP1 POP JUMPDEST PUSH2 0x2710 DUP4 LT PUSH2 0x3708 JUMPI PUSH2 0x2710 DUP4 DUP2 PUSH2 0x36FE JUMPI PUSH2 0x36FD PUSH2 0x4C0D JUMP JUMPDEST JUMPDEST DIV SWAP3 POP PUSH1 0x4 DUP2 ADD SWAP1 POP JUMPDEST PUSH1 0x64 DUP4 LT PUSH2 0x372B JUMPI PUSH1 0x64 DUP4 DUP2 PUSH2 0x3721 JUMPI PUSH2 0x3720 PUSH2 0x4C0D JUMP JUMPDEST JUMPDEST DIV SWAP3 POP PUSH1 0x2 DUP2 ADD SWAP1 POP JUMPDEST PUSH1 0xA DUP4 LT PUSH2 0x373A JUMPI PUSH1 0x1 DUP2 ADD SWAP1 POP JUMPDEST DUP1 SWAP2 POP POP SWAP2 SWAP1 POP JUMP JUMPDEST POP DUP1 SLOAD PUSH2 0x374F SWAP1 PUSH2 0x47CA JUMP JUMPDEST PUSH1 0x0 DUP3 SSTORE DUP1 PUSH1 0x1F LT PUSH2 0x3761 JUMPI POP PUSH2 0x3780 JUMP JUMPDEST PUSH1 0x1F ADD PUSH1 0x20 SWAP1 DIV SWAP1 PUSH1 0x0 MSTORE PUSH1 0x20 PUSH1 0x0 KECCAK256 SWAP1 DUP2 ADD SWAP1 PUSH2 0x377F SWAP2 SWAP1 PUSH2 0x3783 JUMP JUMPDEST JUMPDEST POP JUMP JUMPDEST JUMPDEST DUP1 DUP3 GT ISZERO PUSH2 0x379C JUMPI PUSH1 0x0 DUP2 PUSH1 0x0 SWAP1 SSTORE POP PUSH1 0x1 ADD PUSH2 0x3784 JUMP JUMPDEST POP SWAP1 JUMP JUMPDEST PUSH1 0x0 PUSH1 0x40 MLOAD SWAP1 POP SWAP1 JUMP JUMPDEST PUSH1 0x0 DUP1 REVERT JUMPDEST PUSH1 0x0 DUP1 REVERT JUMPDEST PUSH1 0x0 DUP1 REVERT JUMPDEST PUSH1 0x0 DUP1 REVERT JUMPDEST PUSH1 0x0 PUSH1 0x1F NOT PUSH1 0x1F DUP4 ADD AND SWAP1 POP SWAP2 SWAP1 POP JUMP JUMPDEST PUSH32 0x4E487B7100000000000000000000000000000000000000000000000000000000 PUSH1 0x0 MSTORE PUSH1 0x41 PUSH1 0x4 MSTORE PUSH1 0x24 PUSH1 0x0 REVERT JUMPDEST PUSH2 0x3807 DUP3 PUSH2 0x37BE JUMP JUMPDEST DUP2 ADD DUP2 DUP2 LT PUSH8 0xFFFFFFFFFFFFFFFF DUP3 GT OR ISZERO PUSH2 0x3826 JUMPI PUSH2 0x3825 PUSH2 0x37CF JUMP JUMPDEST JUMPDEST DUP1 PUSH1 0x40 MSTORE POP POP POP JUMP JUMPDEST PUSH1 0x0 PUSH2 0x3839 PUSH2 0x37A0 JUMP JUMPDEST SWAP1 POP PUSH2 0x3845 DUP3 DUP3 PUSH2 0x37FE JUMP JUMPDEST SWAP2 SWAP1 POP JUMP JUMPDEST PUSH1 0x0 PUSH8 0xFFFFFFFFFFFFFFFF DUP3 GT ISZERO PUSH2 0x3865 JUMPI PUSH2 0x3864 PUSH2 0x37CF JUMP JUMPDEST JUMPDEST PUSH2 0x386E DUP3 PUSH2 0x37BE JUMP JUMPDEST SWAP1 POP PUSH1 0x20 DUP2 ADD SWAP1 POP SWAP2 SWAP1 POP JUMP JUMPDEST DUP3 DUP2 DUP4 CALLDATACOPY PUSH1 0x0 DUP4 DUP4 ADD MSTORE POP POP POP JUMP JUMPDEST PUSH1 0x0 PUSH2 0x389D PUSH2 0x3898 DUP5 PUSH2 0x384A JUMP JUMPDEST PUSH2 0x382F JUMP JUMPDEST SWAP1 POP DUP3 DUP2 MSTORE PUSH1 0x20 DUP2 ADD DUP5 DUP5 DUP5 ADD GT ISZERO PUSH2 0x38B9 JUMPI PUSH2 0x38B8 PUSH2 0x37B9 JUMP JUMPDEST JUMPDEST PUSH2 0x38C4 DUP5 DUP3 DUP6 PUSH2 0x387B JUMP JUMPDEST POP SWAP4 SWAP3 POP POP POP JUMP JUMPDEST PUSH1 0x0 DUP3 PUSH1 0x1F DUP4 ADD SLT PUSH2 0x38E1 JUMPI PUSH2 0x38E0 PUSH2 0x37B4 JUMP JUMPDEST JUMPDEST DUP2 CALLDATALOAD PUSH2 0x38F1 DUP5 DUP3 PUSH1 0x20 DUP7 ADD PUSH2 0x388A JUMP JUMPDEST SWAP2 POP POP SWAP3 SWAP2 POP POP JUMP JUMPDEST PUSH1 0x0 PUSH1 0x20 DUP3 DUP5 SUB SLT ISZERO PUSH2 0x3910 JUMPI PUSH2 0x390F PUSH2 0x37AA JUMP JUMPDEST JUMPDEST PUSH1 0x0 DUP3 ADD CALLDATALOAD PUSH8 0xFFFFFFFFFFFFFFFF DUP2 GT ISZERO PUSH2 0x392E JUMPI PUSH2 0x392D PUSH2 0x37AF JUMP JUMPDEST JUMPDEST PUSH2 0x393A DUP5 DUP3 DUP6 ADD PUSH2 0x38CC JUMP JUMPDEST SWAP2 POP POP SWAP3 SWAP2 POP POP JUMP JUMPDEST PUSH1 0x0 DUP2 MLOAD SWAP1 POP SWAP2 SWAP1 POP JUMP JUMPDEST PUSH1 0x0 DUP3 DUP3 MSTORE PUSH1 0x20 DUP3 ADD SWAP1 POP SWAP3 SWAP2 POP POP JUMP JUMPDEST PUSH1 0x0 DUP2 SWAP1 POP PUSH1 0x20 DUP3 ADD SWAP1 POP SWAP2 SWAP1 POP JUMP JUMPDEST PUSH1 0x0 DUP2 MLOAD SWAP1 POP SWAP2 SWAP1 POP JUMP JUMPDEST PUSH1 0x0 DUP3 DUP3 MSTORE PUSH1 0x20 DUP3 ADD SWAP1 POP SWAP3 SWAP2 POP POP JUMP JUMPDEST PUSH1 0x0 JUMPDEST DUP4 DUP2 LT ISZERO PUSH2 0x39A9 JUMPI DUP1 DUP3 ADD MLOAD DUP2 DUP5 ADD MSTORE PUSH1 0x20 DUP2 ADD SWAP1 POP PUSH2 0x398E JUMP JUMPDEST PUSH1 0x0 DUP5 DUP5 ADD MSTORE POP POP POP POP JUMP JUMPDEST PUSH1 0x0 PUSH2 0x39C0 DUP3 PUSH2 0x396F JUMP JUMPDEST PUSH2 0x39CA DUP2 DUP6 PUSH2 0x397A JUMP JUMPDEST SWAP4 POP PUSH2 0x39DA DUP2 DUP6 PUSH1 0x20 DUP7 ADD PUSH2 0x398B JUMP JUMPDEST PUSH2 0x39E3 DUP2 PUSH2 0x37BE JUMP JUMPDEST DUP5 ADD SWAP2 POP POP SWAP3 SWAP2 POP POP JUMP JUMPDEST PUSH1 0x0 PUSH2 0x39FA DUP4 DUP4 PUSH2 0x39B5 JUMP JUMPDEST SWAP1 POP SWAP3 SWAP2 POP POP JUMP JUMPDEST PUSH1 0x0 PUSH1 0x20 DUP3 ADD SWAP1 POP SWAP2 SWAP1 POP JUMP JUMPDEST PUSH1 0x0 PUSH2 0x3A1A DUP3 PUSH2 0x3943 JUMP JUMPDEST PUSH2 0x3A24 DUP2 DUP6 PUSH2 0x394E JUMP JUMPDEST SWAP4 POP DUP4 PUSH1 0x20 DUP3 MUL DUP6 ADD PUSH2 0x3A36 DUP6 PUSH2 0x395F JUMP JUMPDEST DUP1 PUSH1 0x0 JUMPDEST DUP6 DUP2 LT ISZERO PUSH2 0x3A72 JUMPI DUP5 DUP5 SUB DUP10 MSTORE DUP2 MLOAD PUSH2 0x3A53 DUP6 DUP3 PUSH2 0x39EE JUMP JUMPDEST SWAP5 POP PUSH2 0x3A5E DUP4 PUSH2 0x3A02 JUMP JUMPDEST SWAP3 POP PUSH1 0x20 DUP11 ADD SWAP10 POP POP PUSH1 0x1 DUP2 ADD SWAP1 POP PUSH2 0x3A3A JUMP JUMPDEST POP DUP3 SWAP8 POP DUP8 SWAP6 POP POP POP POP POP POP SWAP3 SWAP2 POP POP JUMP JUMPDEST PUSH1 0x0 PUSH1 0x20 DUP3 ADD SWAP1 POP DUP2 DUP2 SUB PUSH1 0x0 DUP4 ADD MSTORE PUSH2 0x3A9E DUP2 DUP5 PUSH2 0x3A0F JUMP JUMPDEST SWAP1 POP SWAP3 SWAP2 POP POP JUMP JUMPDEST PUSH1 0x0 DUP2 SWAP1 POP SWAP2 SWAP1 POP JUMP JUMPDEST PUSH2 0x3AB9 DUP2 PUSH2 0x3AA6 JUMP JUMPDEST DUP3 MSTORE POP POP JUMP JUMPDEST PUSH1 0x0 PUSH1 0x20 DUP3 ADD SWAP1 POP PUSH2 0x3AD4 PUSH1 0x0 DUP4 ADD DUP5 PUSH2 0x3AB0 JUMP JUMPDEST SWAP3 SWAP2 POP POP JUMP JUMPDEST PUSH2 0x3AE3 DUP2 PUSH2 0x3AA6 JUMP JUMPDEST DUP2 EQ PUSH2 0x3AEE JUMPI PUSH1 0x0 DUP1 REVERT JUMPDEST POP JUMP JUMPDEST PUSH1 0x0 DUP2 CALLDATALOAD SWAP1 POP PUSH2 0x3B00 DUP2 PUSH2 0x3ADA JUMP JUMPDEST SWAP3 SWAP2 POP POP JUMP JUMPDEST PUSH1 0x0 PUSH1 0x20 DUP3 DUP5 SUB SLT ISZERO PUSH2 0x3B1C JUMPI PUSH2 0x3B1B PUSH2 0x37AA JUMP JUMPDEST JUMPDEST PUSH1 0x0 PUSH2 0x3B2A DUP5 DUP3 DUP6 ADD PUSH2 0x3AF1 JUMP JUMPDEST SWAP2 POP POP SWAP3 SWAP2 POP POP JUMP JUMPDEST PUSH1 0x0 PUSH1 0x60 DUP3 ADD SWAP1 POP PUSH2 0x3B48 PUSH1 0x0 DUP4 ADD DUP7 PUSH2 0x3AB0 JUMP JUMPDEST PUSH2 0x3B55 PUSH1 0x20 DUP4 ADD DUP6 PUSH2 0x3AB0 JUMP JUMPDEST PUSH2 0x3B62 PUSH1 0x40 DUP4 ADD DUP5 PUSH2 0x3AB0 JUMP JUMPDEST SWAP5 SWAP4 POP POP POP POP JUMP JUMPDEST PUSH1 0x0 DUP3 DUP3 MSTORE PUSH1 0x20 DUP3 ADD SWAP1 POP SWAP3 SWAP2 POP POP JUMP JUMPDEST PUSH1 0x0 PUSH2 0x3B86 DUP3 PUSH2 0x396F JUMP JUMPDEST PUSH2 0x3B90 DUP2 DUP6 PUSH2 0x3B6A JUMP JUMPDEST SWAP4 POP PUSH2 0x3BA0 DUP2 DUP6 PUSH1 0x20 DUP7 ADD PUSH2 0x398B JUMP JUMPDEST PUSH2 0x3BA9 DUP2 PUSH2 0x37BE JUMP JUMPDEST DUP5 ADD SWAP2 POP POP SWAP3 SWAP2 POP POP JUMP JUMPDEST PUSH1 0x0 PUSH1 0x60 DUP3 ADD SWAP1 POP DUP2 DUP2 SUB PUSH1 0x0 DUP4 ADD MSTORE PUSH2 0x3BCE DUP2 DUP7 PUSH2 0x3B7B JUMP JUMPDEST SWAP1 POP DUP2 DUP2 SUB PUSH1 0x20 DUP4 ADD MSTORE PUSH2 0x3BE2 DUP2 DUP6 PUSH2 0x3B7B JUMP JUMPDEST SWAP1 POP DUP2 DUP2 SUB PUSH1 0x40 DUP4 ADD MSTORE PUSH2 0x3BF6 DUP2 DUP5 PUSH2 0x3B7B JUMP JUMPDEST SWAP1 POP SWAP5 SWAP4 POP POP POP POP JUMP JUMPDEST PUSH1 0x0 PUSH1 0x60 DUP3 ADD SWAP1 POP PUSH2 0x3C15 PUSH1 0x0 DUP4 ADD DUP7 PUSH2 0x3AB0 JUMP JUMPDEST PUSH2 0x3C22 PUSH1 0x20 DUP4 ADD DUP6 PUSH2 0x3AB0 JUMP JUMPDEST DUP2 DUP2 SUB PUSH1 0x40 DUP4 ADD MSTORE PUSH2 0x3C34 DUP2 DUP5 PUSH2 0x3B7B JUMP JUMPDEST SWAP1 POP SWAP5 SWAP4 POP POP POP POP JUMP JUMPDEST PUSH1 0x0 PUSH1 0x20 DUP3 ADD SWAP1 POP DUP2 DUP2 SUB PUSH1 0x0 DUP4 ADD MSTORE PUSH2 0x3C58 DUP2 DUP5 PUSH2 0x3B7B JUMP JUMPDEST SWAP1 POP SWAP3 SWAP2 POP POP JUMP JUMPDEST PUSH1 0x0 PUSH1 0x80 DUP3 ADD SWAP1 POP PUSH2 0x3C75 PUSH1 0x0 DUP4 ADD DUP8 PUSH2 0x3AB0 JUMP JUMPDEST PUSH2 0x3C82 PUSH1 0x20 DUP4 ADD DUP7 PUSH2 0x3AB0 JUMP JUMPDEST PUSH2 0x3C8F PUSH1 0x40 DUP4 ADD DUP6 PUSH2 0x3AB0 JUMP JUMPDEST DUP2 DUP2 SUB PUSH1 0x60 DUP4 ADD MSTORE PUSH2 0x3CA1 DUP2 DUP5 PUSH2 0x3B7B JUMP JUMPDEST SWAP1 POP SWAP6 SWAP5 POP POP POP POP POP JUMP JUMPDEST PUSH1 0x0 PUSH1 0x60 DUP3 ADD SWAP1 POP PUSH2 0x3CC1 PUSH1 0x0 DUP4 ADD DUP7 PUSH2 0x3AB0 JUMP JUMPDEST DUP2 DUP2 SUB PUSH1 0x20 DUP4 ADD MSTORE PUSH2 0x3CD3 DUP2 DUP6 PUSH2 0x3B7B JUMP JUMPDEST SWAP1 POP PUSH2 0x3CE2 PUSH1 0x40 DUP4 ADD DUP5 PUSH2 0x3AB0 JUMP JUMPDEST SWAP5 SWAP4 POP POP POP POP JUMP JUMPDEST PUSH1 0x0 DUP1 PUSH1 0x40 DUP4 DUP6 SUB SLT ISZERO PUSH2 0x3D01 JUMPI PUSH2 0x3D00 PUSH2 0x37AA JUMP JUMPDEST JUMPDEST PUSH1 0x0 PUSH2 0x3D0F DUP6 DUP3 DUP7 ADD PUSH2 0x3AF1 JUMP JUMPDEST SWAP3 POP POP PUSH1 0x20 PUSH2 0x3D20 DUP6 DUP3 DUP7 ADD PUSH2 0x3AF1 JUMP JUMPDEST SWAP2 POP POP SWAP3 POP SWAP3 SWAP1 POP JUMP JUMPDEST PUSH1 0x0 PUSH1 0x80 DUP3 ADD SWAP1 POP PUSH2 0x3D3F PUSH1 0x0 DUP4 ADD DUP8 PUSH2 0x3AB0 JUMP JUMPDEST PUSH2 0x3D4C PUSH1 0x20 DUP4 ADD DUP7 PUSH2 0x3AB0 JUMP JUMPDEST DUP2 DUP2 SUB PUSH1 0x40 DUP4 ADD MSTORE PUSH2 0x3D5E DUP2 DUP6 PUSH2 0x3B7B JUMP JUMPDEST SWAP1 POP DUP2 DUP2 SUB PUSH1 0x60 DUP4 ADD MSTORE PUSH2 0x3D72 DUP2 DUP5 PUSH2 0x3B7B JUMP JUMPDEST SWAP1 POP SWAP6 SWAP5 POP POP POP POP POP JUMP JUMPDEST PUSH1 0x0 DUP1 PUSH1 0x0 DUP1 PUSH1 0x0 PUSH1 0xA0 DUP7 DUP9 SUB SLT ISZERO PUSH2 0x3D99 JUMPI PUSH2 0x3D98 PUSH2 0x37AA JUMP JUMPDEST JUMPDEST PUSH1 0x0 PUSH2 0x3DA7 DUP9 DUP3 DUP10 ADD PUSH2 0x3AF1 JUMP JUMPDEST SWAP6 POP POP PUSH1 0x20 PUSH2 0x3DB8 DUP9 DUP3 DUP10 ADD PUSH2 0x3AF1 JUMP JUMPDEST SWAP5 POP POP PUSH1 0x40 PUSH2 0x3DC9 DUP9 DUP3 DUP10 ADD PUSH2 0x3AF1 JUMP JUMPDEST SWAP4 POP POP PUSH1 0x60 DUP7 ADD CALLDATALOAD PUSH8 0xFFFFFFFFFFFFFFFF DUP2 GT ISZERO PUSH2 0x3DEA JUMPI PUSH2 0x3DE9 PUSH2 0x37AF JUMP JUMPDEST JUMPDEST PUSH2 0x3DF6 DUP9 DUP3 DUP10 ADD PUSH2 0x38CC JUMP JUMPDEST SWAP3 POP POP PUSH1 0x80 DUP7 ADD CALLDATALOAD PUSH8 0xFFFFFFFFFFFFFFFF DUP2 GT ISZERO PUSH2 0x3E17 JUMPI PUSH2 0x3E16 PUSH2 0x37AF JUMP JUMPDEST JUMPDEST PUSH2 0x3E23 DUP9 DUP3 DUP10 ADD PUSH2 0x38CC JUMP JUMPDEST SWAP2 POP POP SWAP3 SWAP6 POP SWAP3 SWAP6 SWAP1 SWAP4 POP JUMP JUMPDEST PUSH1 0x0 DUP1 PUSH1 0x0 DUP1 PUSH1 0x80 DUP6 DUP8 SUB SLT ISZERO PUSH2 0x3E4A JUMPI PUSH2 0x3E49 PUSH2 0x37AA JUMP JUMPDEST JUMPDEST PUSH1 0x0 PUSH2 0x3E58 DUP8 DUP3 DUP9 ADD PUSH2 0x3AF1 JUMP JUMPDEST SWAP5 POP POP PUSH1 0x20 PUSH2 0x3E69 DUP8 DUP3 DUP9 ADD PUSH2 0x3AF1 JUMP JUMPDEST SWAP4 POP POP PUSH1 0x40 DUP6 ADD CALLDATALOAD PUSH8 0xFFFFFFFFFFFFFFFF DUP2 GT ISZERO PUSH2 0x3E8A JUMPI PUSH2 0x3E89 PUSH2 0x37AF JUMP JUMPDEST JUMPDEST PUSH2 0x3E96 DUP8 DUP3 DUP9 ADD PUSH2 0x38CC JUMP JUMPDEST SWAP3 POP POP PUSH1 0x60 DUP6 ADD CALLDATALOAD PUSH8 0xFFFFFFFFFFFFFFFF DUP2 GT ISZERO PUSH2 0x3EB7 JUMPI PUSH2 0x3EB6 PUSH2 0x37AF JUMP JUMPDEST JUMPDEST PUSH2 0x3EC3 DUP8 DUP3 DUP9 ADD PUSH2 0x38CC JUMP JUMPDEST SWAP2 POP POP SWAP3 SWAP6 SWAP2 SWAP5 POP SWAP3 POP JUMP JUMPDEST PUSH1 0x0 DUP1 PUSH1 0x0 DUP1 PUSH1 0x80 DUP6 DUP8 SUB SLT ISZERO PUSH2 0x3EE9 JUMPI PUSH2 0x3EE8 PUSH2 0x37AA JUMP JUMPDEST JUMPDEST PUSH1 0x0 PUSH2 0x3EF7 DUP8 DUP3 DUP9 ADD PUSH2 0x3AF1 JUMP JUMPDEST SWAP5 POP POP PUSH1 0x20 DUP6 ADD CALLDATALOAD PUSH8 0xFFFFFFFFFFFFFFFF DUP2 GT ISZERO PUSH2 0x3F18 JUMPI PUSH2 0x3F17 PUSH2 0x37AF JUMP JUMPDEST JUMPDEST PUSH2 0x3F24 DUP8 DUP3 DUP9 ADD PUSH2 0x38CC JUMP JUMPDEST SWAP4 POP POP PUSH1 0x40 DUP6 ADD CALLDATALOAD PUSH8 0xFFFFFFFFFFFFFFFF DUP2 GT ISZERO PUSH2 0x3F45 JUMPI PUSH2 0x3F44 PUSH2 0x37AF JUMP JUMPDEST JUMPDEST PUSH2 0x3F51 DUP8 DUP3 DUP9 ADD PUSH2 0x38CC JUMP JUMPDEST SWAP3 POP POP PUSH1 0x60 PUSH2 0x3F62 DUP8 DUP3 DUP9 ADD PUSH2 0x3AF1 JUMP JUMPDEST SWAP2 POP POP SWAP3 SWAP6 SWAP2 SWAP5 POP SWAP3 POP JUMP JUMPDEST PUSH1 0x0 DUP2 ISZERO ISZERO SWAP1 POP SWAP2 SWAP1 POP JUMP JUMPDEST PUSH2 0x3F83 DUP2 PUSH2 0x3F6E JUMP JUMPDEST DUP3 MSTORE POP POP JUMP JUMPDEST PUSH1 0x0 PUSH1 0x20 DUP3 ADD SWAP1 POP PUSH2 0x3F9E PUSH1 0x0 DUP4 ADD DUP5 PUSH2 0x3F7A JUMP JUMPDEST SWAP3 SWAP2 POP POP JUMP JUMPDEST PUSH1 0x0 PUSH1 0x40 DUP3 ADD SWAP1 POP DUP2 DUP2 SUB PUSH1 0x0 DUP4 ADD MSTORE PUSH2 0x3FBE DUP2 DUP6 PUSH2 0x3B7B JUMP JUMPDEST SWAP1 POP DUP2 DUP2 SUB PUSH1 0x20 DUP4 ADD MSTORE PUSH2 0x3FD2 DUP2 DUP5 PUSH2 0x3B7B JUMP JUMPDEST SWAP1 POP SWAP4 SWAP3 POP POP POP JUMP JUMPDEST PUSH1 0x0 DUP2 MLOAD SWAP1 POP SWAP2 SWAP1 POP JUMP JUMPDEST PUSH1 0x0 DUP3 DUP3 MSTORE PUSH1 0x20 DUP3 ADD SWAP1 POP SWAP3 SWAP2 POP POP JUMP JUMPDEST PUSH1 0x0 DUP2 SWAP1 POP PUSH1 0x20 DUP3 ADD SWAP1 POP SWAP2 SWAP1 POP JUMP JUMPDEST PUSH2 0x4010 DUP2 PUSH2 0x3AA6 JUMP JUMPDEST DUP3 MSTORE POP POP JUMP JUMPDEST PUSH1 0x0 PUSH2 0x4022 DUP4 DUP4 PUSH2 0x4007 JUMP JUMPDEST PUSH1 0x20 DUP4 ADD SWAP1 POP SWAP3 SWAP2 POP POP JUMP JUMPDEST PUSH1 0x0 PUSH1 0x20 DUP3 ADD SWAP1 POP SWAP2 SWAP1 POP JUMP JUMPDEST PUSH1 0x0 PUSH2 0x4046 DUP3 PUSH2 0x3FDB JUMP JUMPDEST PUSH2 0x4050 DUP2 DUP6 PUSH2 0x3FE6 JUMP JUMPDEST SWAP4 POP PUSH2 0x405B DUP4 PUSH2 0x3FF7 JUMP JUMPDEST DUP1 PUSH1 0x0 JUMPDEST DUP4 DUP2 LT ISZERO PUSH2 0x408C JUMPI DUP2 MLOAD PUSH2 0x4073 DUP9 DUP3 PUSH2 0x4016 JUMP JUMPDEST SWAP8 POP PUSH2 0x407E DUP4 PUSH2 0x402E JUMP JUMPDEST SWAP3 POP POP PUSH1 0x1 DUP2 ADD SWAP1 POP PUSH2 0x405F JUMP JUMPDEST POP DUP6 SWAP4 POP POP POP POP SWAP3 SWAP2 POP POP JUMP JUMPDEST PUSH1 0x0 PUSH1 0x20 DUP3 ADD SWAP1 POP DUP2 DUP2 SUB PUSH1 0x0 DUP4 ADD MSTORE PUSH2 0x40B3 DUP2 DUP5 PUSH2 0x403B JUMP JUMPDEST SWAP1 POP SWAP3 SWAP2 POP POP JUMP JUMPDEST PUSH1 0x0 DUP1 PUSH1 0x0 DUP1 PUSH1 0x80 DUP6 DUP8 SUB SLT ISZERO PUSH2 0x40D5 JUMPI PUSH2 0x40D4 PUSH2 0x37AA JUMP JUMPDEST JUMPDEST PUSH1 0x0 DUP6 ADD CALLDATALOAD PUSH8 0xFFFFFFFFFFFFFFFF DUP2 GT ISZERO PUSH2 0x40F3 JUMPI PUSH2 0x40F2 PUSH2 0x37AF JUMP JUMPDEST JUMPDEST PUSH2 0x40FF DUP8 DUP3 DUP9 ADD PUSH2 0x38CC JUMP JUMPDEST SWAP5 POP POP PUSH1 0x20 DUP6 ADD CALLDATALOAD PUSH8 0xFFFFFFFFFFFFFFFF DUP2 GT ISZERO PUSH2 0x4120 JUMPI PUSH2 0x411F PUSH2 0x37AF JUMP JUMPDEST JUMPDEST PUSH2 0x412C DUP8 DUP3 DUP9 ADD PUSH2 0x38CC JUMP JUMPDEST SWAP4 POP POP PUSH1 0x40 DUP6 ADD CALLDATALOAD PUSH8 0xFFFFFFFFFFFFFFFF DUP2 GT ISZERO PUSH2 0x414D JUMPI PUSH2 0x414C PUSH2 0x37AF JUMP JUMPDEST JUMPDEST PUSH2 0x4159 DUP8 DUP3 DUP9 ADD PUSH2 0x38CC JUMP JUMPDEST SWAP3 POP POP PUSH1 0x60 PUSH2 0x416A DUP8 DUP3 DUP9 ADD PUSH2 0x3AF1 JUMP JUMPDEST SWAP2 POP POP SWAP3 SWAP6 SWAP2 SWAP5 POP SWAP3 POP JUMP JUMPDEST PUSH1 0x0 DUP1 PUSH1 0x40 DUP4 DUP6 SUB SLT ISZERO PUSH2 0x418D JUMPI PUSH2 0x418C PUSH2 0x37AA JUMP JUMPDEST JUMPDEST PUSH1 0x0 PUSH2 0x419B DUP6 DUP3 DUP7 ADD PUSH2 0x3AF1 JUMP JUMPDEST SWAP3 POP POP PUSH1 0x20 DUP4 ADD CALLDATALOAD PUSH8 0xFFFFFFFFFFFFFFFF DUP2 GT ISZERO PUSH2 0x41BC JUMPI PUSH2 0x41BB PUSH2 0x37AF JUMP JUMPDEST JUMPDEST PUSH2 0x41C8 DUP6 DUP3 DUP7 ADD PUSH2 0x38CC JUMP JUMPDEST SWAP2 POP POP SWAP3 POP SWAP3 SWAP1 POP JUMP JUMPDEST PUSH1 0x0 DUP1 PUSH1 0x0 PUSH1 0x60 DUP5 DUP7 SUB SLT ISZERO PUSH2 0x41EB JUMPI PUSH2 0x41EA PUSH2 0x37AA JUMP JUMPDEST JUMPDEST PUSH1 0x0 PUSH2 0x41F9 DUP7 DUP3 DUP8 ADD PUSH2 0x3AF1 JUMP JUMPDEST SWAP4 POP POP PUSH1 0x20 DUP5 ADD CALLDATALOAD PUSH8 0xFFFFFFFFFFFFFFFF DUP2 GT ISZERO PUSH2 0x421A JUMPI PUSH2 0x4219 PUSH2 0x37AF JUMP JUMPDEST JUMPDEST PUSH2 0x4226 DUP7 DUP3 DUP8 ADD PUSH2 0x38CC JUMP JUMPDEST SWAP3 POP POP PUSH1 0x40 DUP5 ADD CALLDATALOAD PUSH8 0xFFFFFFFFFFFFFFFF DUP2 GT ISZERO PUSH2 0x4247 JUMPI PUSH2 0x4246 PUSH2 0x37AF JUMP JUMPDEST JUMPDEST PUSH2 0x4253 DUP7 DUP3 DUP8 ADD PUSH2 0x38CC JUMP JUMPDEST SWAP2 POP POP SWAP3 POP SWAP3 POP SWAP3 JUMP JUMPDEST PUSH1 0x0 DUP1 PUSH1 0x0 DUP1 PUSH1 0x80 DUP6 DUP8 SUB SLT ISZERO PUSH2 0x4277 JUMPI PUSH2 0x4276 PUSH2 0x37AA JUMP JUMPDEST JUMPDEST PUSH1 0x0 PUSH2 0x4285 DUP8 DUP3 DUP9 ADD PUSH2 0x3AF1 JUMP JUMPDEST SWAP5 POP POP PUSH1 0x20 PUSH2 0x4296 DUP8 DUP3 DUP9 ADD PUSH2 0x3AF1 JUMP JUMPDEST SWAP4 POP POP PUSH1 0x40 PUSH2 0x42A7 DUP8 DUP3 DUP9 ADD PUSH2 0x3AF1 JUMP JUMPDEST SWAP3 POP POP PUSH1 0x60 DUP6 ADD CALLDATALOAD PUSH8 0xFFFFFFFFFFFFFFFF DUP2 GT ISZERO PUSH2 0x42C8 JUMPI PUSH2 0x42C7 PUSH2 0x37AF JUMP JUMPDEST JUMPDEST PUSH2 0x42D4 DUP8 DUP3 DUP9 ADD PUSH2 0x38CC JUMP JUMPDEST SWAP2 POP POP SWAP3 SWAP6 SWAP2 SWAP5 POP SWAP3 POP JUMP JUMPDEST PUSH1 0x0 PUSH2 0x120 DUP3 ADD SWAP1 POP PUSH2 0x42F6 PUSH1 0x0 DUP4 ADD DUP13 PUSH2 0x3AB0 JUMP JUMPDEST PUSH2 0x4303 PUSH1 0x20 DUP4 ADD DUP12 PUSH2 0x3F7A JUMP JUMPDEST PUSH2 0x4310 PUSH1 0x40 DUP4 ADD DUP11 PUSH2 0x3F7A JUMP JUMPDEST PUSH2 0x431D PUSH1 0x60 DUP4 ADD DUP10 PUSH2 0x3F7A JUMP JUMPDEST PUSH2 0x432A PUSH1 0x80 DUP4 ADD DUP9 PUSH2 0x3F7A JUMP JUMPDEST PUSH2 0x4337 PUSH1 0xA0 DUP4 ADD DUP8 PUSH2 0x3F7A JUMP JUMPDEST PUSH2 0x4344 PUSH1 0xC0 DUP4 ADD DUP7 PUSH2 0x3F7A JUMP JUMPDEST PUSH2 0x4351 PUSH1 0xE0 DUP4 ADD DUP6 PUSH2 0x3F7A JUMP JUMPDEST PUSH2 0x435F PUSH2 0x100 DUP4 ADD DUP5 PUSH2 0x3F7A JUMP JUMPDEST SWAP11 SWAP10 POP POP POP POP POP POP POP POP POP POP JUMP JUMPDEST PUSH1 0x0 DUP1 PUSH1 0x0 DUP1 PUSH1 0x80 DUP6 DUP8 SUB SLT ISZERO PUSH2 0x4387 JUMPI PUSH2 0x4386 PUSH2 0x37AA JUMP JUMPDEST JUMPDEST PUSH1 0x0 DUP6 ADD CALLDATALOAD PUSH8 0xFFFFFFFFFFFFFFFF DUP2 GT ISZERO PUSH2 0x43A5 JUMPI PUSH2 0x43A4 PUSH2 0x37AF JUMP JUMPDEST JUMPDEST PUSH2 0x43B1 DUP8 DUP3 DUP9 ADD PUSH2 0x38CC JUMP JUMPDEST SWAP5 POP POP PUSH1 0x20 DUP6 ADD CALLDATALOAD PUSH8 0xFFFFFFFFFFFFFFFF DUP2 GT ISZERO PUSH2 0x43D2 JUMPI PUSH2 0x43D1 PUSH2 0x37AF JUMP JUMPDEST JUMPDEST PUSH2 0x43DE DUP8 DUP3 DUP9 ADD PUSH2 0x38CC JUMP JUMPDEST SWAP4 POP POP PUSH1 0x40 PUSH2 0x43EF DUP8 DUP3 DUP9 ADD PUSH2 0x3AF1 JUMP JUMPDEST SWAP3 POP POP PUSH1 0x60 DUP6 ADD CALLDATALOAD PUSH8 0xFFFFFFFFFFFFFFFF DUP2 GT ISZERO PUSH2 0x4410 JUMPI PUSH2 0x440F PUSH2 0x37AF JUMP JUMPDEST JUMPDEST PUSH2 0x441C DUP8 DUP3 DUP9 ADD PUSH2 0x38CC JUMP JUMPDEST SWAP2 POP POP SWAP3 SWAP6 SWAP2 SWAP5 POP SWAP3 POP JUMP JUMPDEST PUSH1 0x0 DUP1 PUSH1 0x40 DUP4 DUP6 SUB SLT ISZERO PUSH2 0x443F JUMPI PUSH2 0x443E PUSH2 0x37AA JUMP JUMPDEST JUMPDEST PUSH1 0x0 DUP4 ADD CALLDATALOAD PUSH8 0xFFFFFFFFFFFFFFFF DUP2 GT ISZERO PUSH2 0x445D JUMPI PUSH2 0x445C PUSH2 0x37AF JUMP JUMPDEST JUMPDEST PUSH2 0x4469 DUP6 DUP3 DUP7 ADD PUSH2 0x38CC JUMP JUMPDEST SWAP3 POP POP PUSH1 0x20 DUP4 ADD CALLDATALOAD PUSH8 0xFFFFFFFFFFFFFFFF DUP2 GT ISZERO PUSH2 0x448A JUMPI PUSH2 0x4489 PUSH2 0x37AF JUMP JUMPDEST JUMPDEST PUSH2 0x4496 DUP6 DUP3 DUP7 ADD PUSH2 0x38CC JUMP JUMPDEST SWAP2 POP POP SWAP3 POP SWAP3 SWAP1 POP JUMP JUMPDEST PUSH1 0x0 DUP1 PUSH1 0x0 DUP1 PUSH1 0x80 DUP6 DUP8 SUB SLT ISZERO PUSH2 0x44BA JUMPI PUSH2 0x44B9 PUSH2 0x37AA JUMP JUMPDEST JUMPDEST PUSH1 0x0 PUSH2 0x44C8 DUP8 DUP3 DUP9 ADD PUSH2 0x3AF1 JUMP JUMPDEST SWAP5 POP POP PUSH1 0x20 DUP6 ADD CALLDATALOAD PUSH8 0xFFFFFFFFFFFFFFFF DUP2 GT ISZERO PUSH2 0x44E9 JUMPI PUSH2 0x44E8 PUSH2 0x37AF JUMP JUMPDEST JUMPDEST PUSH2 0x44F5 DUP8 DUP3 DUP9 ADD PUSH2 0x38CC JUMP JUMPDEST SWAP4 POP POP PUSH1 0x40 PUSH2 0x4506 DUP8 DUP3 DUP9 ADD PUSH2 0x3AF1 JUMP JUMPDEST SWAP3 POP POP PUSH1 0x60 PUSH2 0x4517 DUP8 DUP3 DUP9 ADD PUSH2 0x3AF1 JUMP JUMPDEST SWAP2 POP POP SWAP3 SWAP6 SWAP2 SWAP5 POP SWAP3 POP JUMP JUMPDEST PUSH1 0x0 PUSH8 0xFFFFFFFFFFFFFFFF DUP3 GT ISZERO PUSH2 0x453E JUMPI PUSH2 0x453D PUSH2 0x37CF JUMP JUMPDEST JUMPDEST PUSH1 0x20 DUP3 MUL SWAP1 POP PUSH1 0x20 DUP2 ADD SWAP1 POP SWAP2 SWAP1 POP JUMP JUMPDEST PUSH1 0x0 DUP1 REVERT JUMPDEST PUSH1 0x0 PUSH2 0x4567 PUSH2 0x4562 DUP5 PUSH2 0x4523 JUMP JUMPDEST PUSH2 0x382F JUMP JUMPDEST SWAP1 POP DUP1 DUP4 DUP3 MSTORE PUSH1 0x20 DUP3 ADD SWAP1 POP PUSH1 0x20 DUP5 MUL DUP4 ADD DUP6 DUP2 GT ISZERO PUSH2 0x458A JUMPI PUSH2 0x4589 PUSH2 0x454F JUMP JUMPDEST JUMPDEST DUP4 JUMPDEST DUP2 DUP2 LT ISZERO PUSH2 0x45D1 JUMPI DUP1 CALLDATALOAD PUSH8 0xFFFFFFFFFFFFFFFF DUP2 GT ISZERO PUSH2 0x45AF JUMPI PUSH2 0x45AE PUSH2 0x37B4 JUMP JUMPDEST JUMPDEST DUP1 DUP7 ADD PUSH2 0x45BC DUP10 DUP3 PUSH2 0x38CC JUMP JUMPDEST DUP6 MSTORE PUSH1 0x20 DUP6 ADD SWAP5 POP POP POP PUSH1 0x20 DUP2 ADD SWAP1 POP PUSH2 0x458C JUMP JUMPDEST POP POP POP SWAP4 SWAP3 POP POP POP JUMP JUMPDEST PUSH1 0x0 DUP3 PUSH1 0x1F DUP4 ADD SLT PUSH2 0x45F0 JUMPI PUSH2 0x45EF PUSH2 0x37B4 JUMP JUMPDEST JUMPDEST DUP2 CALLDATALOAD PUSH2 0x4600 DUP5 DUP3 PUSH1 0x20 DUP7 ADD PUSH2 0x4554 JUMP JUMPDEST SWAP2 POP POP SWAP3 SWAP2 POP POP JUMP JUMPDEST PUSH1 0x0 DUP1 PUSH1 0x0 DUP1 PUSH1 0x0 PUSH1 0xA0 DUP7 DUP9 SUB SLT ISZERO PUSH2 0x4625 JUMPI PUSH2 0x4624 PUSH2 0x37AA JUMP JUMPDEST JUMPDEST PUSH1 0x0 DUP7 ADD CALLDATALOAD PUSH8 0xFFFFFFFFFFFFFFFF DUP2 GT ISZERO PUSH2 0x4643 JUMPI PUSH2 0x4642 PUSH2 0x37AF JUMP JUMPDEST JUMPDEST PUSH2 0x464F DUP9 DUP3 DUP10 ADD PUSH2 0x38CC JUMP JUMPDEST SWAP6 POP POP PUSH1 0x20 PUSH2 0x4660 DUP9 DUP3 DUP10 ADD PUSH2 0x3AF1 JUMP JUMPDEST SWAP5 POP POP PUSH1 0x40 DUP7 ADD CALLDATALOAD PUSH8 0xFFFFFFFFFFFFFFFF DUP2 GT ISZERO PUSH2 0x4681 JUMPI PUSH2 0x4680 PUSH2 0x37AF JUMP JUMPDEST JUMPDEST PUSH2 0x468D DUP9 DUP3 DUP10 ADD PUSH2 0x45DB JUMP JUMPDEST SWAP4 POP POP PUSH1 0x60 PUSH2 0x469E DUP9 DUP3 DUP10 ADD PUSH2 0x3AF1 JUMP JUMPDEST SWAP3 POP POP PUSH1 0x80 DUP7 ADD CALLDATALOAD PUSH8 0xFFFFFFFFFFFFFFFF DUP2 GT ISZERO PUSH2 0x46BF JUMPI PUSH2 0x46BE PUSH2 0x37AF JUMP JUMPDEST JUMPDEST PUSH2 0x46CB DUP9 DUP3 DUP10 ADD PUSH2 0x38CC JUMP JUMPDEST SWAP2 POP POP SWAP3 SWAP6 POP SWAP3 SWAP6 SWAP1 SWAP4 POP JUMP JUMPDEST PUSH2 0x46E1 DUP2 PUSH2 0x3F6E JUMP JUMPDEST DUP2 EQ PUSH2 0x46EC JUMPI PUSH1 0x0 DUP1 REVERT JUMPDEST POP JUMP JUMPDEST PUSH1 0x0 DUP2 CALLDATALOAD SWAP1 POP PUSH2 0x46FE DUP2 PUSH2 0x46D8 JUMP JUMPDEST SWAP3 SWAP2 POP POP JUMP JUMPDEST PUSH1 0x0 DUP1 PUSH1 0x0 DUP1 PUSH1 0x0 PUSH1 0xA0 DUP7 DUP9 SUB SLT ISZERO PUSH2 0x4720 JUMPI PUSH2 0x471F PUSH2 0x37AA JUMP JUMPDEST JUMPDEST PUSH1 0x0 PUSH2 0x472E DUP9 DUP3 DUP10 ADD PUSH2 0x3AF1 JUMP JUMPDEST SWAP6 POP POP PUSH1 0x20 PUSH2 0x473F DUP9 DUP3 DUP10 ADD PUSH2 0x3AF1 JUMP JUMPDEST SWAP5 POP POP PUSH1 0x40 PUSH2 0x4750 DUP9 DUP3 DUP10 ADD PUSH2 0x3AF1 JUMP JUMPDEST SWAP4 POP POP PUSH1 0x60 DUP7 ADD CALLDATALOAD PUSH8 0xFFFFFFFFFFFFFFFF DUP2 GT ISZERO PUSH2 0x4771 JUMPI PUSH2 0x4770 PUSH2 0x37AF JUMP JUMPDEST JUMPDEST PUSH2 0x477D DUP9 DUP3 DUP10 ADD PUSH2 0x38CC JUMP JUMPDEST SWAP3 POP POP PUSH1 0x80 PUSH2 0x478E DUP9 DUP3 DUP10 ADD PUSH2 0x46EF JUMP JUMPDEST SWAP2 POP POP SWAP3 SWAP6 POP SWAP3 SWAP6 SWAP1 SWAP4 POP JUMP JUMPDEST PUSH32 0x4E487B7100000000000000000000000000000000000000000000000000000000 PUSH1 0x0 MSTORE PUSH1 0x22 PUSH1 0x4 MSTORE PUSH1 0x24 PUSH1 0x0 REVERT JUMPDEST PUSH1 0x0 PUSH1 0x2 DUP3 DIV SWAP1 POP PUSH1 0x1 DUP3 AND DUP1 PUSH2 0x47E2 JUMPI PUSH1 0x7F DUP3 AND SWAP2 POP JUMPDEST PUSH1 0x20 DUP3 LT DUP2 SUB PUSH2 0x47F5 JUMPI PUSH2 0x47F4 PUSH2 0x479B JUMP JUMPDEST JUMPDEST POP SWAP2 SWAP1 POP JUMP JUMPDEST PUSH1 0x0 DUP2 SWAP1 POP SWAP3 SWAP2 POP POP JUMP JUMPDEST PUSH1 0x0 DUP2 SWAP1 POP DUP2 PUSH1 0x0 MSTORE PUSH1 0x20 PUSH1 0x0 KECCAK256 SWAP1 POP SWAP2 SWAP1 POP JUMP JUMPDEST PUSH1 0x0 DUP2 SLOAD PUSH2 0x4828 DUP2 PUSH2 0x47CA JUMP JUMPDEST PUSH2 0x4832 DUP2 DUP7 PUSH2 0x47FB JUMP JUMPDEST SWAP5 POP PUSH1 0x1 DUP3 AND PUSH1 0x0 DUP2 EQ PUSH2 0x484D JUMPI PUSH1 0x1 DUP2 EQ PUSH2 0x4862 JUMPI PUSH2 0x4895 JUMP JUMPDEST PUSH1 0xFF NOT DUP4 AND DUP7 MSTORE DUP2 ISZERO ISZERO DUP3 MUL DUP7 ADD SWAP4 POP PUSH2 0x4895 JUMP JUMPDEST PUSH2 0x486B DUP6 PUSH2 0x4806 JUMP JUMPDEST PUSH1 0x0 JUMPDEST DUP4 DUP2 LT ISZERO PUSH2 0x488D JUMPI DUP2 SLOAD DUP2 DUP10 ADD MSTORE PUSH1 0x1 DUP3 ADD SWAP2 POP PUSH1 0x20 DUP2 ADD SWAP1 POP PUSH2 0x486E JUMP JUMPDEST DUP4 DUP9 ADD SWAP6 POP POP POP JUMPDEST POP POP POP SWAP3 SWAP2 POP POP JUMP JUMPDEST PUSH1 0x0 PUSH2 0x48AA DUP3 DUP5 PUSH2 0x481B JUMP JUMPDEST SWAP2 POP DUP2 SWAP1 POP SWAP3 SWAP2 POP POP JUMP JUMPDEST PUSH32 0x4E487B7100000000000000000000000000000000000000000000000000000000 PUSH1 0x0 MSTORE PUSH1 0x32 PUSH1 0x4 MSTORE PUSH1 0x24 PUSH1 0x0 REVERT JUMPDEST PUSH32 0x4E487B7100000000000000000000000000000000000000000000000000000000 PUSH1 0x0 MSTORE PUSH1 0x11 PUSH1 0x4 MSTORE PUSH1 0x24 PUSH1 0x0 REVERT JUMPDEST PUSH1 0x0 PUSH2 0x491E DUP3 PUSH2 0x3AA6 JUMP JUMPDEST SWAP2 POP PUSH32 0xFFFFFFFFFFFFFFFFFFFFFFFFFFFFFFFFFFFFFFFFFFFFFFFFFFFFFFFFFFFFFFFF DUP3 SUB PUSH2 0x4950 JUMPI PUSH2 0x494F PUSH2 0x48E4 JUMP JUMPDEST JUMPDEST PUSH1 0x1 DUP3 ADD SWAP1 POP SWAP2 SWAP1 POP JUMP JUMPDEST PUSH1 0x0 PUSH2 0x4966 DUP3 PUSH2 0x3AA6 JUMP JUMPDEST SWAP2 POP PUSH2 0x4971 DUP4 PUSH2 0x3AA6 JUMP JUMPDEST SWAP3 POP DUP3 DUP3 ADD SWAP1 POP DUP1 DUP3 GT ISZERO PUSH2 0x4989 JUMPI PUSH2 0x4988 PUSH2 0x48E4 JUMP JUMPDEST JUMPDEST SWAP3 SWAP2 POP POP JUMP JUMPDEST PUSH1 0x0 DUP2 SWAP1 POP DUP2 PUSH1 0x0 MSTORE PUSH1 0x20 PUSH1 0x0 KECCAK256 SWAP1 POP SWAP2 SWAP1 POP JUMP JUMPDEST PUSH1 0x0 PUSH1 0x20 PUSH1 0x1F DUP4 ADD DIV SWAP1 POP SWAP2 SWAP1 POP JUMP JUMPDEST PUSH1 0x0 DUP3 DUP3 SHL SWAP1 POP SWAP3 SWAP2 POP POP JUMP JUMPDEST PUSH1 0x0 PUSH1 0x8 DUP4 MUL PUSH2 0x49F1 PUSH32 0xFFFFFFFFFFFFFFFFFFFFFFFFFFFFFFFFFFFFFFFFFFFFFFFFFFFFFFFFFFFFFFFF DUP3 PUSH2 0x49B4 JUMP JUMPDEST PUSH2 0x49FB DUP7 DUP4 PUSH2 0x49B4 JUMP JUMPDEST SWAP6 POP DUP1 NOT DUP5 AND SWAP4 POP DUP1 DUP7 AND DUP5 OR SWAP3 POP POP POP SWAP4 SWAP3 POP POP POP JUMP JUMPDEST PUSH1 0x0 DUP2 SWAP1 POP SWAP2 SWAP1 POP JUMP JUMPDEST PUSH1 0x0 PUSH2 0x4A38 PUSH2 0x4A33 PUSH2 0x4A2E DUP5 PUSH2 0x3AA6 JUMP JUMPDEST PUSH2 0x4A13 JUMP JUMPDEST PUSH2 0x3AA6 JUMP JUMPDEST SWAP1 POP SWAP2 SWAP1 POP JUMP JUMPDEST PUSH1 0x0 DUP2 SWAP1 POP SWAP2 SWAP1 POP JUMP JUMPDEST PUSH2 0x4A52 DUP4 PUSH2 0x4A1D JUMP JUMPDEST PUSH2 0x4A66 PUSH2 0x4A5E DUP3 PUSH2 0x4A3F JUMP JUMPDEST DUP5 DUP5 SLOAD PUSH2 0x49C1 JUMP JUMPDEST DUP3 SSTORE POP POP POP POP JUMP JUMPDEST PUSH1 0x0 SWAP1 JUMP JUMPDEST PUSH2 0x4A7B PUSH2 0x4A6E JUMP JUMPDEST PUSH2 0x4A86 DUP2 DUP5 DUP5 PUSH2 0x4A49 JUMP JUMPDEST POP POP POP JUMP JUMPDEST JUMPDEST DUP2 DUP2 LT ISZERO PUSH2 0x4AAA JUMPI PUSH2 0x4A9F PUSH1 0x0 DUP3 PUSH2 0x4A73 JUMP JUMPDEST PUSH1 0x1 DUP2 ADD SWAP1 POP PUSH2 0x4A8C JUMP JUMPDEST POP POP JUMP JUMPDEST PUSH1 0x1F DUP3 GT ISZERO PUSH2 0x4AEF JUMPI PUSH2 0x4AC0 DUP2 PUSH2 0x498F JUMP JUMPDEST PUSH2 0x4AC9 DUP5 PUSH2 0x49A4 JUMP JUMPDEST DUP2 ADD PUSH1 0x20 DUP6 LT ISZERO PUSH2 0x4AD8 JUMPI DUP2 SWAP1 POP JUMPDEST PUSH2 0x4AEC PUSH2 0x4AE4 DUP6 PUSH2 0x49A4 JUMP JUMPDEST DUP4 ADD DUP3 PUSH2 0x4A8B JUMP JUMPDEST POP POP JUMPDEST POP POP POP JUMP JUMPDEST PUSH1 0x0 DUP3 DUP3 SHR SWAP1 POP SWAP3 SWAP2 POP POP JUMP JUMPDEST PUSH1 0x0 PUSH2 0x4B12 PUSH1 0x0 NOT DUP5 PUSH1 0x8 MUL PUSH2 0x4AF4 JUMP JUMPDEST NOT DUP1 DUP4 AND SWAP2 POP POP SWAP3 SWAP2 POP POP JUMP JUMPDEST PUSH1 0x0 PUSH2 0x4B2B DUP4 DUP4 PUSH2 0x4B01 JUMP JUMPDEST SWAP2 POP DUP3 PUSH1 0x2 MUL DUP3 OR SWAP1 POP SWAP3 SWAP2 POP POP JUMP JUMPDEST PUSH2 0x4B44 DUP3 PUSH2 0x396F JUMP JUMPDEST PUSH8 0xFFFFFFFFFFFFFFFF DUP2 GT ISZERO PUSH2 0x4B5D JUMPI PUSH2 0x4B5C PUSH2 0x37CF JUMP JUMPDEST JUMPDEST PUSH2 0x4B67 DUP3 SLOAD PUSH2 0x47CA JUMP JUMPDEST PUSH2 0x4B72 DUP3 DUP3 DUP6 PUSH2 0x4AAE JUMP JUMPDEST PUSH1 0x0 PUSH1 0x20 SWAP1 POP PUSH1 0x1F DUP4 GT PUSH1 0x1 DUP2 EQ PUSH2 0x4BA5 JUMPI PUSH1 0x0 DUP5 ISZERO PUSH2 0x4B93 JUMPI DUP3 DUP8 ADD MLOAD SWAP1 POP JUMPDEST PUSH2 0x4B9D DUP6 DUP3 PUSH2 0x4B1F JUMP JUMPDEST DUP7 SSTORE POP PUSH2 0x4C05 JUMP JUMPDEST PUSH1 0x1F NOT DUP5 AND PUSH2 0x4BB3 DUP7 PUSH2 0x498F JUMP JUMPDEST PUSH1 0x0 JUMPDEST DUP3 DUP2 LT ISZERO PUSH2 0x4BDB JUMPI DUP5 DUP10 ADD MLOAD DUP3 SSTORE PUSH1 0x1 DUP3 ADD SWAP2 POP PUSH1 0x20 DUP6 ADD SWAP5 POP PUSH1 0x20 DUP2 ADD SWAP1 POP PUSH2 0x4BB6 JUMP JUMPDEST DUP7 DUP4 LT ISZERO PUSH2 0x4BF8 JUMPI DUP5 DUP10 ADD MLOAD PUSH2 0x4BF4 PUSH1 0x1F DUP10 AND DUP3 PUSH2 0x4B01 JUMP JUMPDEST DUP4 SSTORE POP JUMPDEST PUSH1 0x1 PUSH1 0x2 DUP9 MUL ADD DUP9 SSTORE POP POP POP JUMPDEST POP POP POP POP POP POP JUMP JUMPDEST PUSH32 0x4E487B7100000000000000000000000000000000000000000000000000000000 PUSH1 0x0 MSTORE PUSH1 0x12 PUSH1 0x4 MSTORE PUSH1 0x24 PUSH1 0x0 REVERT INVALID LOG2 PUSH5 0x6970667358 0x22 SLT KECCAK256 PUSH9 0xEFF59D305B134DECF0 DUP7 GT CREATE2 0xE1 REVERT MSTORE8 0xAD DUP6 DUP16 ISZERO PUSH3 0x7E8ABE STATICCALL DUP16 0x26 0x2F CALLER SWAP6 0xE5 SELFDESTRUCT PUSH5 0x736F6C6343 STOP ADDMOD GT STOP CALLER "},"gasEstimates":{"creation":{"codeDepositCost":"3914000","executionCost":"4454","totalCost":"3918454"},"external":{"_dao_ids()":"2541","_dao_uris(uint256)":"infinite","_donated(uint256)":"infinite","_donations(uint256)":"infinite","_donations_ids()":"2517","_feed_ids()":"2497","_feeds(uint256)":"infinite","_goal_ids()":"2498","_goal_uris(uint256)":"infinite","_ideas_ids()":"2518","_ideas_uris(uint256)":"infinite","_ideas_vote_ids()":"2498","_join_ids()":"2521","_joined_person(uint256)":"infinite","_message_ids()":"2541","_message_read_ids()":"2540","_reply_ids()":"2563","_smart_contract_ids()":"2520","_smart_contracts_uris(uint256)":"infinite","_template_uris(uint256)":"infinite","_user_badges(uint256)":"infinite","add_Feed(string,string)":"infinite","add_donation(uint256,uint256,uint256,string,string)":"infinite","all_goal_ideas_votes(uint256)":"infinite","all_messages(uint256)":"infinite","all_read_messages(uint256)":"infinite","all_replies(uint256)":"infinite","create_dao(string,string,string,uint256)":"infinite","create_goal(string,string,uint256,string)":"infinite","create_goal_ideas_vote(uint256,uint256,uint256,string,bool)":"infinite","create_ideas(string,uint256,string[],uint256,string)":"infinite","dao_uri(uint256)":"infinite","getMsgIDs(uint256)":"infinite","getReadMsg(uint256,string)":"infinite","getReplyIDs(uint256)":"infinite","get_all_daos()":"infinite","get_all_goals()":"infinite","get_all_goals_by_dao_id(string)":"infinite","get_all_ideas()":"infinite","get_all_ideas_by_goal_id(uint256)":"infinite","get_dao_id_by_ideas_id(uint256)":"infinite","get_goal_id_by_goal_uri(string)":"infinite","get_goal_id_from_ideas_uri(string)":"infinite","get_ideas_id_by_ideas_uri(string)":"infinite","get_ideas_votes_from_goal(uint256,uint256)":"infinite","get_person_joinedID(uint256,uint256)":"infinite","goal_uri(uint256)":"infinite","ideas_uri(uint256)":"infinite","is_person_joined(uint256,uint256)":"infinite","join_community(uint256,uint256,string,string)":"infinite","leave_community(uint256)":"infinite","reset_all()":"infinite","sendMsg(uint256,string,string,uint256)":"infinite","sendReadMsg(uint256,uint256,uint256,string)":"infinite","sendReply(uint256,string,uint256,uint256)":"infinite","set_dao(uint256,string,string)":"infinite","set_goal(uint256,string)":"infinite","set_ideas(uint256,string)":"infinite","update_template(uint256,string)":"infinite"},"internal":{"create_ideas_smart_contract(uint256,uint256,string memory)":"infinite"}},"methodIdentifiers":{"_dao_ids()":"7bbd582d","_dao_uris(uint256)":"27a568b9","_donated(uint256)":"20959ed0","_donations(uint256)":"7fc543ec","_donations_ids()":"ec245802","_feed_ids()":"8ac4110c","_feeds(uint256)":"54a9fb18","_goal_ids()":"13bf4cea","_goal_uris(uint256)":"7f2035d4","_ideas_ids()":"d3791b20","_ideas_uris(uint256)":"468d0c80","_ideas_vote_ids()":"4a797bd7","_join_ids()":"1171b621","_joined_person(uint256)":"330b8f26","_message_ids()":"9077007d","_message_read_ids()":"ca013f17","_reply_ids()":"aa2bf5d3","_smart_contract_ids()":"1b592aeb","_smart_contracts_uris(uint256)":"ff4a37ef","_template_uris(uint256)":"6ecda4ee","_user_badges(uint256)":"a428a47f","add_Feed(string,string)":"bda00335","add_donation(uint256,uint256,uint256,string,string)":"5996278f","all_goal_ideas_votes(uint256)":"1ba44c4c","all_messages(uint256)":"b527d45e","all_read_messages(uint256)":"cace8d46","all_replies(uint256)":"3f87a2f4","create_dao(string,string,string,uint256)":"86ffa45b","create_goal(string,string,uint256,string)":"b39a38bd","create_goal_ideas_vote(uint256,uint256,uint256,string,bool)":"ecde3243","create_ideas(string,uint256,string[],uint256,string)":"e1b011a0","dao_uri(uint256)":"5d907da1","getMsgIDs(uint256)":"803f5b9f","getReadMsg(uint256,string)":"cd230809","getReplyIDs(uint256)":"812fae1f","get_all_daos()":"c04fe978","get_all_goals()":"29b56f60","get_all_goals_by_dao_id(string)":"0377d44a","get_all_ideas()":"97ee7606","get_all_ideas_by_goal_id(uint256)":"131d44f2","get_dao_id_by_ideas_id(uint256)":"38a512d9","get_goal_id_by_goal_uri(string)":"1e9ac9f5","get_goal_id_from_ideas_uri(string)":"aa4cdf2a","get_ideas_id_by_ideas_uri(string)":"a1ca9178","get_ideas_votes_from_goal(uint256,uint256)":"4be7adb5","get_person_joinedID(uint256,uint256)":"b604efaa","goal_uri(uint256)":"e32acc1a","ideas_uri(uint256)":"8d3d2595","is_person_joined(uint256,uint256)":"7a82b1d6","join_community(uint256,uint256,string,string)":"5cd844c9","leave_community(uint256)":"826eeefe","reset_all()":"b16060a6","sendMsg(uint256,string,string,uint256)":"787f19c7","sendReadMsg(uint256,uint256,uint256,string)":"934c5f00","sendReply(uint256,string,uint256,uint256)":"d9fc52db","set_dao(uint256,string,string)":"881de858","set_goal(uint256,string)":"c29595c5","set_ideas(uint256,string)":"c04e7430","update_template(uint256,string)":"87633eb2"}},"storageLayout":{"storage":[{"astId":2433,"contract":"contracts/PlanetDAO.sol:PlanetDAO","label":"_dao_ids","offset":0,"slot":"0","type":"t_uint256"},{"astId":2435,"contract":"contracts/PlanetDAO.sol:PlanetDAO","label":"_donations_ids","offset":0,"slot":"1","type":"t_uint256"},{"astId":2437,"contract":"contracts/PlanetDAO.sol:PlanetDAO","label":"_goal_ids","offset":0,"slot":"2","type":"t_uint256"},{"astId":2439,"contract":"contracts/PlanetDAO.sol:PlanetDAO","label":"_ideas_ids","offset":0,"slot":"3","type":"t_uint256"},{"astId":2441,"contract":"contracts/PlanetDAO.sol:PlanetDAO","label":"_join_ids","offset":0,"slot":"4","type":"t_uint256"},{"astId":2443,"contract":"contracts/PlanetDAO.sol:PlanetDAO","label":"_smart_contract_ids","offset":0,"slot":"5","type":"t_uint256"},{"astId":2445,"contract":"contracts/PlanetDAO.sol:PlanetDAO","label":"_ideas_vote_ids","offset":0,"slot":"6","type":"t_uint256"},{"astId":2447,"contract":"contracts/PlanetDAO.sol:PlanetDAO","label":"_message_ids","offset":0,"slot":"7","type":"t_uint256"},{"astId":2449,"contract":"contracts/PlanetDAO.sol:PlanetDAO","label":"_message_read_ids","offset":0,"slot":"8","type":"t_uint256"},{"astId":2451,"contract":"contracts/PlanetDAO.sol:PlanetDAO","label":"_reply_ids","offset":0,"slot":"9","type":"t_uint256"},{"astId":2453,"contract":"contracts/PlanetDAO.sol:PlanetDAO","label":"_feed_ids","offset":0,"slot":"10","type":"t_uint256"},{"astId":2458,"contract":"contracts/PlanetDAO.sol:PlanetDAO","label":"_dao_uris","offset":0,"slot":"11","type":"t_mapping(t_uint256,t_struct(dao_uri_struct)2331_storage)"},{"astId":2462,"contract":"contracts/PlanetDAO.sol:PlanetDAO","label":"_template_uris","offset":0,"slot":"12","type":"t_mapping(t_uint256,t_string_storage)"},{"astId":2467,"contract":"contracts/PlanetDAO.sol:PlanetDAO","label":"_joined_person","offset":0,"slot":"13","type":"t_mapping(t_uint256,t_struct(join_struct)2403_storage)"},{"astId":2472,"contract":"contracts/PlanetDAO.sol:PlanetDAO","label":"_goal_uris","offset":0,"slot":"14","type":"t_mapping(t_uint256,t_struct(goal_uri_struct)2336_storage)"},{"astId":2477,"contract":"contracts/PlanetDAO.sol:PlanetDAO","label":"_ideas_uris","offset":0,"slot":"15","type":"t_mapping(t_uint256,t_struct(ideas_uri_struct)2343_storage)"},{"astId":2481,"contract":"contracts/PlanetDAO.sol:PlanetDAO","label":"_donated","offset":0,"slot":"16","type":"t_mapping(t_uint256,t_uint256)"},{"astId":2486,"contract":"contracts/PlanetDAO.sol:PlanetDAO","label":"_feeds","offset":0,"slot":"17","type":"t_mapping(t_uint256,t_struct(feed_struct)2431_storage)"},{"astId":2491,"contract":"contracts/PlanetDAO.sol:PlanetDAO","label":"_donations","offset":0,"slot":"18","type":"t_mapping(t_uint256,t_struct(donation_struct)2350_storage)"},{"astId":2496,"contract":"contracts/PlanetDAO.sol:PlanetDAO","label":"_smart_contracts_uris","offset":0,"slot":"19","type":"t_mapping(t_uint256,t_struct(smart_contract_uri_struct)2357_storage)"},{"astId":2501,"contract":"contracts/PlanetDAO.sol:PlanetDAO","label":"all_goal_ideas_votes","offset":0,"slot":"20","type":"t_mapping(t_uint256,t_struct(goal_ideas_votes_struct)2364_storage)"},{"astId":2506,"contract":"contracts/PlanetDAO.sol:PlanetDAO","label":"all_messages","offset":0,"slot":"21","type":"t_mapping(t_uint256,t_struct(message_struct)2373_storage)"},{"astId":2511,"contract":"contracts/PlanetDAO.sol:PlanetDAO","label":"all_read_messages","offset":0,"slot":"22","type":"t_mapping(t_uint256,t_struct(message_read_struct)2382_storage)"},{"astId":2516,"contract":"contracts/PlanetDAO.sol:PlanetDAO","label":"all_replies","offset":0,"slot":"23","type":"t_mapping(t_uint256,t_struct(reply_struct)2391_storage)"},{"astId":2521,"contract":"contracts/PlanetDAO.sol:PlanetDAO","label":"_user_badges","offset":0,"slot":"24","type":"t_mapping(t_uint256,t_struct(user_badge_struct)2422_storage)"}],"types":{"t_bool":{"encoding":"inplace","label":"bool","numberOfBytes":"1"},"t_mapping(t_uint256,t_string_storage)":{"encoding":"mapping","key":"t_uint256","label":"mapping(uint256 => string)","numberOfBytes":"32","value":"t_string_storage"},"t_mapping(t_uint256,t_struct(dao_uri_struct)2331_storage)":{"encoding":"mapping","key":"t_uint256","label":"mapping(uint256 => struct PlanetDAO.dao_uri_struct)","numberOfBytes":"32","value":"t_struct(dao_uri_struct)2331_storage"},"t_mapping(t_uint256,t_struct(donation_struct)2350_storage)":{"encoding":"mapping","key":"t_uint256","label":"mapping(uint256 => struct PlanetDAO.donation_struct)","numberOfBytes":"32","value":"t_struct(donation_struct)2350_storage"},"t_mapping(t_uint256,t_struct(feed_struct)2431_storage)":{"encoding":"mapping","key":"t_uint256","label":"mapping(uint256 => struct PlanetDAO.feed_struct)","numberOfBytes":"32","value":"t_struct(feed_struct)2431_storage"},"t_mapping(t_uint256,t_struct(goal_ideas_votes_struct)2364_storage)":{"encoding":"mapping","key":"t_uint256","label":"mapping(uint256 => struct PlanetDAO.goal_ideas_votes_struct)","numberOfBytes":"32","value":"t_struct(goal_ideas_votes_struct)2364_storage"},"t_mapping(t_uint256,t_struct(goal_uri_struct)2336_storage)":{"encoding":"mapping","key":"t_uint256","label":"mapping(uint256 => struct PlanetDAO.goal_uri_struct)","numberOfBytes":"32","value":"t_struct(goal_uri_struct)2336_storage"},"t_mapping(t_uint256,t_struct(ideas_uri_struct)2343_storage)":{"encoding":"mapping","key":"t_uint256","label":"mapping(uint256 => struct PlanetDAO.ideas_uri_struct)","numberOfBytes":"32","value":"t_struct(ideas_uri_struct)2343_storage"},"t_mapping(t_uint256,t_struct(join_struct)2403_storage)":{"encoding":"mapping","key":"t_uint256","label":"mapping(uint256 => struct PlanetDAO.join_struct)","numberOfBytes":"32","value":"t_struct(join_struct)2403_storage"},"t_mapping(t_uint256,t_struct(message_read_struct)2382_storage)":{"encoding":"mapping","key":"t_uint256","label":"mapping(uint256 => struct PlanetDAO.message_read_struct)","numberOfBytes":"32","value":"t_struct(message_read_struct)2382_storage"},"t_mapping(t_uint256,t_struct(message_struct)2373_storage)":{"encoding":"mapping","key":"t_uint256","label":"mapping(uint256 => struct PlanetDAO.message_struct)","numberOfBytes":"32","value":"t_struct(message_struct)2373_storage"},"t_mapping(t_uint256,t_struct(reply_struct)2391_storage)":{"encoding":"mapping","key":"t_uint256","label":"mapping(uint256 => struct PlanetDAO.reply_struct)","numberOfBytes":"32","value":"t_struct(reply_struct)2391_storage"},"t_mapping(t_uint256,t_struct(smart_contract_uri_struct)2357_storage)":{"encoding":"mapping","key":"t_uint256","label":"mapping(uint256 => struct PlanetDAO.smart_contract_uri_struct)","numberOfBytes":"32","value":"t_struct(smart_contract_uri_struct)2357_storage"},"t_mapping(t_uint256,t_struct(user_badge_struct)2422_storage)":{"encoding":"mapping","key":"t_uint256","label":"mapping(uint256 => struct PlanetDAO.user_badge_struct)","numberOfBytes":"32","value":"t_struct(user_badge_struct)2422_storage"},"t_mapping(t_uint256,t_uint256)":{"encoding":"mapping","key":"t_uint256","label":"mapping(uint256 => uint256)","numberOfBytes":"32","value":"t_uint256"},"t_string_storage":{"encoding":"bytes","label":"string","numberOfBytes":"32"},"t_struct(dao_uri_struct)2331_storage":{"encoding":"inplace","label":"struct PlanetDAO.dao_uri_struct","members":[{"astId":2326,"contract":"contracts/PlanetDAO.sol:PlanetDAO","label":"dao_wallet","offset":0,"slot":"0","type":"t_string_storage"},{"astId":2328,"contract":"contracts/PlanetDAO.sol:PlanetDAO","label":"dao_uri","offset":0,"slot":"1","type":"t_string_storage"},{"astId":2330,"contract":"contracts/PlanetDAO.sol:PlanetDAO","label":"finished","offset":0,"slot":"2","type":"t_string_storage"}],"numberOfBytes":"96"},"t_struct(donation_struct)2350_storage":{"encoding":"inplace","label":"struct PlanetDAO.donation_struct","members":[{"astId":2345,"contract":"contracts/PlanetDAO.sol:PlanetDAO","label":"ideas_id","offset":0,"slot":"0","type":"t_uint256"},{"astId":2347,"contract":"contracts/PlanetDAO.sol:PlanetDAO","label":"userid","offset":0,"slot":"1","type":"t_uint256"},{"astId":2349,"contract":"contracts/PlanetDAO.sol:PlanetDAO","label":"donation","offset":0,"slot":"2","type":"t_uint256"}],"numberOfBytes":"96"},"t_struct(feed_struct)2431_storage":{"encoding":"inplace","label":"struct PlanetDAO.feed_struct","members":[{"astId":2424,"contract":"contracts/PlanetDAO.sol:PlanetDAO","label":"feed_id","offset":0,"slot":"0","type":"t_uint256"},{"astId":2426,"contract":"contracts/PlanetDAO.sol:PlanetDAO","label":"date","offset":0,"slot":"1","type":"t_uint256"},{"astId":2428,"contract":"contracts/PlanetDAO.sol:PlanetDAO","label":"Type","offset":0,"slot":"2","type":"t_string_storage"},{"astId":2430,"contract":"contracts/PlanetDAO.sol:PlanetDAO","label":"data","offset":0,"slot":"3","type":"t_string_storage"}],"numberOfBytes":"128"},"t_struct(goal_ideas_votes_struct)2364_storage":{"encoding":"inplace","label":"struct PlanetDAO.goal_ideas_votes_struct","members":[{"astId":2359,"contract":"contracts/PlanetDAO.sol:PlanetDAO","label":"goal_id","offset":0,"slot":"0","type":"t_uint256"},{"astId":2361,"contract":"contracts/PlanetDAO.sol:PlanetDAO","label":"ideas_id","offset":0,"slot":"1","type":"t_uint256"},{"astId":2363,"contract":"contracts/PlanetDAO.sol:PlanetDAO","label":"user_id","offset":0,"slot":"2","type":"t_uint256"}],"numberOfBytes":"96"},"t_struct(goal_uri_struct)2336_storage":{"encoding":"inplace","label":"struct PlanetDAO.goal_uri_struct","members":[{"astId":2333,"contract":"contracts/PlanetDAO.sol:PlanetDAO","label":"dao_id","offset":0,"slot":"0","type":"t_string_storage"},{"astId":2335,"contract":"contracts/PlanetDAO.sol:PlanetDAO","label":"goal_uri","offset":0,"slot":"1","type":"t_string_storage"}],"numberOfBytes":"64"},"t_struct(ideas_uri_struct)2343_storage":{"encoding":"inplace","label":"struct PlanetDAO.ideas_uri_struct","members":[{"astId":2338,"contract":"contracts/PlanetDAO.sol:PlanetDAO","label":"goal_id","offset":0,"slot":"0","type":"t_uint256"},{"astId":2340,"contract":"contracts/PlanetDAO.sol:PlanetDAO","label":"ideas_uri","offset":0,"slot":"1","type":"t_string_storage"},{"astId":2342,"contract":"contracts/PlanetDAO.sol:PlanetDAO","label":"donation","offset":0,"slot":"2","type":"t_uint256"}],"numberOfBytes":"96"},"t_struct(join_struct)2403_storage":{"encoding":"inplace","label":"struct PlanetDAO.join_struct","members":[{"astId":2398,"contract":"contracts/PlanetDAO.sol:PlanetDAO","label":"daoid","offset":0,"slot":"0","type":"t_uint256"},{"astId":2400,"contract":"contracts/PlanetDAO.sol:PlanetDAO","label":"user_id","offset":0,"slot":"1","type":"t_uint256"},{"astId":2402,"contract":"contracts/PlanetDAO.sol:PlanetDAO","label":"joined_date","offset":0,"slot":"2","type":"t_string_storage"}],"numberOfBytes":"96"},"t_struct(message_read_struct)2382_storage":{"encoding":"inplace","label":"struct PlanetDAO.message_read_struct","members":[{"astId":2375,"contract":"contracts/PlanetDAO.sol:PlanetDAO","label":"message_id","offset":0,"slot":"0","type":"t_uint256"},{"astId":2377,"contract":"contracts/PlanetDAO.sol:PlanetDAO","label":"ideas_id","offset":0,"slot":"1","type":"t_uint256"},{"astId":2379,"contract":"contracts/PlanetDAO.sol:PlanetDAO","label":"user_id","offset":0,"slot":"2","type":"t_uint256"},{"astId":2381,"contract":"contracts/PlanetDAO.sol:PlanetDAO","label":"msg_type","offset":0,"slot":"3","type":"t_string_storage"}],"numberOfBytes":"128"},"t_struct(message_struct)2373_storage":{"encoding":"inplace","label":"struct PlanetDAO.message_struct","members":[{"astId":2366,"contract":"contracts/PlanetDAO.sol:PlanetDAO","label":"message_id","offset":0,"slot":"0","type":"t_uint256"},{"astId":2368,"contract":"contracts/PlanetDAO.sol:PlanetDAO","label":"ideas_id","offset":0,"slot":"1","type":"t_uint256"},{"astId":2370,"contract":"contracts/PlanetDAO.sol:PlanetDAO","label":"message","offset":0,"slot":"2","type":"t_string_storage"},{"astId":2372,"contract":"contracts/PlanetDAO.sol:PlanetDAO","label":"sender","offset":0,"slot":"3","type":"t_string_storage"}],"numberOfBytes":"128"},"t_struct(reply_struct)2391_storage":{"encoding":"inplace","label":"struct PlanetDAO.reply_struct","members":[{"astId":2384,"contract":"contracts/PlanetDAO.sol:PlanetDAO","label":"reply_id","offset":0,"slot":"0","type":"t_uint256"},{"astId":2386,"contract":"contracts/PlanetDAO.sol:PlanetDAO","label":"message_id","offset":0,"slot":"1","type":"t_uint256"},{"astId":2388,"contract":"contracts/PlanetDAO.sol:PlanetDAO","label":"ideas_id","offset":0,"slot":"2","type":"t_uint256"},{"astId":2390,"contract":"contracts/PlanetDAO.sol:PlanetDAO","label":"message","offset":0,"slot":"3","type":"t_string_storage"}],"numberOfBytes":"128"},"t_struct(smart_contract_uri_struct)2357_storage":{"encoding":"inplace","label":"struct PlanetDAO.smart_contract_uri_struct","members":[{"astId":2352,"contract":"contracts/PlanetDAO.sol:PlanetDAO","label":"smart_contract_id","offset":0,"slot":"0","type":"t_uint256"},{"astId":2354,"contract":"contracts/PlanetDAO.sol:PlanetDAO","label":"ideas_id","offset":0,"slot":"1","type":"t_uint256"},{"astId":2356,"contract":"contracts/PlanetDAO.sol:PlanetDAO","label":"smart_contract_uri","offset":0,"slot":"2","type":"t_string_storage"}],"numberOfBytes":"96"},"t_struct(user_badge_struct)2422_storage":{"encoding":"inplace","label":"struct PlanetDAO.user_badge_struct","members":[{"astId":2405,"contract":"contracts/PlanetDAO.sol:PlanetDAO","label":"user_id","offset":0,"slot":"0","type":"t_uint256"},{"astId":2407,"contract":"contracts/PlanetDAO.sol:PlanetDAO","label":"dao","offset":0,"slot":"1","type":"t_bool"},{"astId":2409,"contract":"contracts/PlanetDAO.sol:PlanetDAO","label":"joined","offset":1,"slot":"1","type":"t_bool"},{"astId":2411,"contract":"contracts/PlanetDAO.sol:PlanetDAO","label":"goal","offset":2,"slot":"1","type":"t_bool"},{"astId":2413,"contract":"contracts/PlanetDAO.sol:PlanetDAO","label":"ideas","offset":3,"slot":"1","type":"t_bool"},{"astId":2415,"contract":"contracts/PlanetDAO.sol:PlanetDAO","label":"vote","offset":4,"slot":"1","type":"t_bool"},{"astId":2417,"contract":"contracts/PlanetDAO.sol:PlanetDAO","label":"donation","offset":5,"slot":"1","type":"t_bool"},{"astId":2419,"contract":"contracts/PlanetDAO.sol:PlanetDAO","label":"comment","offset":6,"slot":"1","type":"t_bool"},{"astId":2421,"contract":"contracts/PlanetDAO.sol:PlanetDAO","label":"reply","offset":7,"slot":"1","type":"t_bool"}],"numberOfBytes":"64"},"t_uint256":{"encoding":"inplace","label":"uint256","numberOfBytes":"32"}}},"userdoc":{"kind":"user","methods":{},"version":1}}}}